{
  "_format": "hh-sol-artifact-1",
  "contractName": "MockXAUt",
  "sourceName": "contracts/MockXAUt.sol",
  "abi": [
    {
      "inputs": [
        {
          "internalType": "address",
          "name": "_usdcAddress",
          "type": "address"
        }
      ],
      "stateMutability": "nonpayable",
      "type": "constructor"
    },
    {
      "inputs": [
        {
          "internalType": "address",
          "name": "spender",
          "type": "address"
        },
        {
          "internalType": "uint256",
          "name": "allowance",
          "type": "uint256"
        },
        {
          "internalType": "uint256",
          "name": "needed",
          "type": "uint256"
        }
      ],
      "name": "ERC20InsufficientAllowance",
      "type": "error"
    },
    {
      "inputs": [
        {
          "internalType": "address",
          "name": "sender",
          "type": "address"
        },
        {
          "internalType": "uint256",
          "name": "balance",
          "type": "uint256"
        },
        {
          "internalType": "uint256",
          "name": "needed",
          "type": "uint256"
        }
      ],
      "name": "ERC20InsufficientBalance",
      "type": "error"
    },
    {
      "inputs": [
        {
          "internalType": "address",
          "name": "approver",
          "type": "address"
        }
      ],
      "name": "ERC20InvalidApprover",
      "type": "error"
    },
    {
      "inputs": [
        {
          "internalType": "address",
          "name": "receiver",
          "type": "address"
        }
      ],
      "name": "ERC20InvalidReceiver",
      "type": "error"
    },
    {
      "inputs": [
        {
          "internalType": "address",
          "name": "sender",
          "type": "address"
        }
      ],
      "name": "ERC20InvalidSender",
      "type": "error"
    },
    {
      "inputs": [
        {
          "internalType": "address",
          "name": "spender",
          "type": "address"
        }
      ],
      "name": "ERC20InvalidSpender",
      "type": "error"
    },
    {
      "anonymous": false,
      "inputs": [
        {
          "indexed": true,
          "internalType": "address",
          "name": "owner",
          "type": "address"
        },
        {
          "indexed": true,
          "internalType": "address",
          "name": "spender",
          "type": "address"
        },
        {
          "indexed": false,
          "internalType": "uint256",
          "name": "value",
          "type": "uint256"
        }
      ],
      "name": "Approval",
      "type": "event"
    },
    {
      "anonymous": false,
      "inputs": [
        {
          "indexed": true,
          "internalType": "address",
          "name": "from",
          "type": "address"
        },
        {
          "indexed": true,
          "internalType": "address",
          "name": "to",
          "type": "address"
        },
        {
          "indexed": false,
          "internalType": "uint256",
          "name": "value",
          "type": "uint256"
        }
      ],
      "name": "Transfer",
      "type": "event"
    },
    {
      "inputs": [
        {
          "internalType": "address",
          "name": "owner",
          "type": "address"
        },
        {
          "internalType": "address",
          "name": "spender",
          "type": "address"
        }
      ],
      "name": "allowance",
      "outputs": [
        {
          "internalType": "uint256",
          "name": "",
          "type": "uint256"
        }
      ],
      "stateMutability": "view",
      "type": "function"
    },
    {
      "inputs": [
        {
          "internalType": "address",
          "name": "spender",
          "type": "address"
        },
        {
          "internalType": "uint256",
          "name": "value",
          "type": "uint256"
        }
      ],
      "name": "approve",
      "outputs": [
        {
          "internalType": "bool",
          "name": "",
          "type": "bool"
        }
      ],
      "stateMutability": "nonpayable",
      "type": "function"
    },
    {
      "inputs": [
        {
          "internalType": "address",
          "name": "account",
          "type": "address"
        }
      ],
      "name": "balanceOf",
      "outputs": [
        {
          "internalType": "uint256",
          "name": "",
          "type": "uint256"
        }
      ],
      "stateMutability": "view",
      "type": "function"
    },
    {
      "inputs": [
        {
          "internalType": "uint256",
          "name": "usdcAmount",
          "type": "uint256"
        },
        {
          "internalType": "uint256",
          "name": "xautToMint",
          "type": "uint256"
        }
      ],
      "name": "buyXAUt",
      "outputs": [],
      "stateMutability": "nonpayable",
      "type": "function"
    },
    {
      "inputs": [],
      "name": "decimals",
      "outputs": [
        {
          "internalType": "uint8",
          "name": "",
          "type": "uint8"
        }
      ],
      "stateMutability": "view",
      "type": "function"
    },
    {
      "inputs": [],
      "name": "name",
      "outputs": [
        {
          "internalType": "string",
          "name": "",
          "type": "string"
        }
      ],
      "stateMutability": "view",
      "type": "function"
    },
    {
      "inputs": [],
      "name": "symbol",
      "outputs": [
        {
          "internalType": "string",
          "name": "",
          "type": "string"
        }
      ],
      "stateMutability": "view",
      "type": "function"
    },
    {
      "inputs": [],
      "name": "totalSupply",
      "outputs": [
        {
          "internalType": "uint256",
          "name": "",
          "type": "uint256"
        }
      ],
      "stateMutability": "view",
      "type": "function"
    },
    {
      "inputs": [
        {
          "internalType": "address",
          "name": "to",
          "type": "address"
        },
        {
          "internalType": "uint256",
          "name": "value",
          "type": "uint256"
        }
      ],
      "name": "transfer",
      "outputs": [
        {
          "internalType": "bool",
          "name": "",
          "type": "bool"
        }
      ],
      "stateMutability": "nonpayable",
      "type": "function"
    },
    {
      "inputs": [
        {
          "internalType": "address",
          "name": "from",
          "type": "address"
        },
        {
          "internalType": "address",
          "name": "to",
          "type": "address"
        },
        {
          "internalType": "uint256",
          "name": "value",
          "type": "uint256"
        }
      ],
      "name": "transferFrom",
      "outputs": [
        {
          "internalType": "bool",
          "name": "",
          "type": "bool"
        }
      ],
      "stateMutability": "nonpayable",
      "type": "function"
    },
    {
      "inputs": [],
      "name": "usdcToken",
      "outputs": [
        {
          "internalType": "contract IERC20",
          "name": "",
          "type": "address"
        }
      ],
      "stateMutability": "view",
      "type": "function"
    }
  ],
  "bytecode": "0x60806040523480156200001157600080fd5b50604051620017bf380380620017bf83398181016040528101906200003791906200017b565b6040518060400160405280600e81526020017f546f6b656e697a656420476f6c640000000000000000000000000000000000008152506040518060400160405280600481526020017f58415574000000000000000000000000000000000000000000000000000000008152508160039081620000b4919062000427565b508060049081620000c6919062000427565b50505080600560006101000a81548173ffffffffffffffffffffffffffffffffffffffff021916908373ffffffffffffffffffffffffffffffffffffffff160217905550506200050e565b600080fd5b600073ffffffffffffffffffffffffffffffffffffffff82169050919050565b6000620001438262000116565b9050919050565b620001558162000136565b81146200016157600080fd5b50565b60008151905062000175816200014a565b92915050565b60006020828403121562000194576200019362000111565b5b6000620001a48482850162000164565b91505092915050565b600081519050919050565b7f4e487b7100000000000000000000000000000000000000000000000000000000600052604160045260246000fd5b7f4e487b7100000000000000000000000000000000000000000000000000000000600052602260045260246000fd5b600060028204905060018216806200022f57607f821691505b602082108103620002455762000244620001e7565b5b50919050565b60008190508160005260206000209050919050565b60006020601f8301049050919050565b600082821b905092915050565b600060088302620002af7fffffffffffffffffffffffffffffffffffffffffffffffffffffffffffffffff8262000270565b620002bb868362000270565b95508019841693508086168417925050509392505050565b6000819050919050565b6000819050919050565b60006200030862000302620002fc84620002d3565b620002dd565b620002d3565b9050919050565b6000819050919050565b6200032483620002e7565b6200033c62000333826200030f565b8484546200027d565b825550505050565b600090565b6200035362000344565b6200036081848462000319565b505050565b5b8181101562000388576200037c60008262000349565b60018101905062000366565b5050565b601f821115620003d757620003a1816200024b565b620003ac8462000260565b81016020851015620003bc578190505b620003d4620003cb8562000260565b83018262000365565b50505b505050565b600082821c905092915050565b6000620003fc60001984600802620003dc565b1980831691505092915050565b6000620004178383620003e9565b9150826002028217905092915050565b6200043282620001ad565b67ffffffffffffffff8111156200044e576200044d620001b8565b5b6200045a825462000216565b620004678282856200038c565b600060209050601f8311600181146200049f57600084156200048a578287015190505b62000496858262000409565b86555062000506565b601f198416620004af866200024b565b60005b82811015620004d957848901518255600182019150602085019450602081019050620004b2565b86831015620004f95784890151620004f5601f891682620003e9565b8355505b6001600288020188555050505b505050505050565b6112a1806200051e6000396000f3fe608060405234801561001057600080fd5b50600436106100a95760003560e01c806323b872dd1161007157806323b872dd14610154578063313ce5671461018457806370a08231146101a257806395d89b41146101d2578063a9059cbb146101f0578063dd62ed3e14610220576100a9565b806306fdde03146100ae578063095ea7b3146100cc57806311eac855146100fc57806318160ddd1461011a5780631a41f6fb14610138575b600080fd5b6100b6610250565b6040516100c39190610cd3565b60405180910390f35b6100e660048036038101906100e19190610d8e565b6102e2565b6040516100f39190610de9565b60405180910390f35b610104610305565b6040516101119190610e63565b60405180910390f35b61012261032b565b60405161012f9190610e8d565b60405180910390f35b610152600480360381019061014d9190610ea8565b610335565b005b61016e60048036038101906101699190610ee8565b610467565b60405161017b9190610de9565b60405180910390f35b61018c610496565b6040516101999190610f57565b60405180910390f35b6101bc60048036038101906101b79190610f72565b61049f565b6040516101c99190610e8d565b60405180910390f35b6101da6104e7565b6040516101e79190610cd3565b60405180910390f35b61020a60048036038101906102059190610d8e565b610579565b6040516102179190610de9565b60405180910390f35b61023a60048036038101906102359190610f9f565b61059c565b6040516102479190610e8d565b60405180910390f35b60606003805461025f9061100e565b80601f016020809104026020016040519081016040528092919081815260200182805461028b9061100e565b80156102d85780601f106102ad576101008083540402835291602001916102d8565b820191906000526020600020905b8154815290600101906020018083116102bb57829003601f168201915b5050505050905090565b6000806102ed610623565b90506102fa81858561062b565b600191505092915050565b600560009054906101000a900473ffffffffffffffffffffffffffffffffffffffff1681565b6000600254905090565b60008211610378576040517f08c379a000000000000000000000000000000000000000000000000000000000815260040161036f9061108b565b60405180910390fd5b600560009054906101000a900473ffffffffffffffffffffffffffffffffffffffff1673ffffffffffffffffffffffffffffffffffffffff166323b872dd3330856040518463ffffffff1660e01b81526004016103d7939291906110ba565b6020604051808303816000875af11580156103f6573d6000803e3d6000fd5b505050506040513d601f19601f8201168201806040525081019061041a919061111d565b610459576040517f08c379a000000000000000000000000000000000000000000000000000000000815260040161045090611196565b60405180910390fd5b610463338261063d565b5050565b600080610472610623565b905061047f8582856106bf565b61048a858585610753565b60019150509392505050565b60006012905090565b60008060008373ffffffffffffffffffffffffffffffffffffffff1673ffffffffffffffffffffffffffffffffffffffff168152602001908152602001600020549050919050565b6060600480546104f69061100e565b80601f01602080910402602001604051908101604052809291908181526020018280546105229061100e565b801561056f5780601f106105445761010080835404028352916020019161056f565b820191906000526020600020905b81548152906001019060200180831161055257829003601f168201915b5050505050905090565b600080610584610623565b9050610591818585610753565b600191505092915050565b6000600160008473ffffffffffffffffffffffffffffffffffffffff1673ffffffffffffffffffffffffffffffffffffffff16815260200190815260200160002060008373ffffffffffffffffffffffffffffffffffffffff1673ffffffffffffffffffffffffffffffffffffffff16815260200190815260200160002054905092915050565b600033905090565b6106388383836001610847565b505050565b600073ffffffffffffffffffffffffffffffffffffffff168273ffffffffffffffffffffffffffffffffffffffff16036106af5760006040517fec442f050000000000000000000000000000000000000000000000000000000081526004016106a691906111b6565b60405180910390fd5b6106bb60008383610a1e565b5050565b60006106cb848461059c565b90507fffffffffffffffffffffffffffffffffffffffffffffffffffffffffffffffff811461074d578181101561073d578281836040517ffb8f41b2000000000000000000000000000000000000000000000000000000008152600401610734939291906111d1565b60405180910390fd5b61074c84848484036000610847565b5b50505050565b600073ffffffffffffffffffffffffffffffffffffffff168373ffffffffffffffffffffffffffffffffffffffff16036107c55760006040517f96c6fd1e0000000000000000000000000000000000000000000000000000000081526004016107bc91906111b6565b60405180910390fd5b600073ffffffffffffffffffffffffffffffffffffffff168273ffffffffffffffffffffffffffffffffffffffff16036108375760006040517fec442f0500000000000000000000000000000000000000000000000000000000815260040161082e91906111b6565b60405180910390fd5b610842838383610a1e565b505050565b600073ffffffffffffffffffffffffffffffffffffffff168473ffffffffffffffffffffffffffffffffffffffff16036108b95760006040517fe602df050000000000000000000000000000000000000000000000000000000081526004016108b091906111b6565b60405180910390fd5b600073ffffffffffffffffffffffffffffffffffffffff168373ffffffffffffffffffffffffffffffffffffffff160361092b5760006040517f94280d6200000000000000000000000000000000000000000000000000000000815260040161092291906111b6565b60405180910390fd5b81600160008673ffffffffffffffffffffffffffffffffffffffff1673ffffffffffffffffffffffffffffffffffffffff16815260200190815260200160002060008573ffffffffffffffffffffffffffffffffffffffff1673ffffffffffffffffffffffffffffffffffffffff168152602001908152602001600020819055508015610a18578273ffffffffffffffffffffffffffffffffffffffff168473ffffffffffffffffffffffffffffffffffffffff167f8c5be1e5ebec7d5bd14f71427d1e84f3dd0314c0f7b2291e5b200ac8c7c3b92584604051610a0f9190610e8d565b60405180910390a35b50505050565b600073ffffffffffffffffffffffffffffffffffffffff168373ffffffffffffffffffffffffffffffffffffffff1603610a70578060026000828254610a649190611237565b92505081905550610b43565b60008060008573ffffffffffffffffffffffffffffffffffffffff1673ffffffffffffffffffffffffffffffffffffffff16815260200190815260200160002054905081811015610afc578381836040517fe450d38c000000000000000000000000000000000000000000000000000000008152600401610af3939291906111d1565b60405180910390fd5b8181036000808673ffffffffffffffffffffffffffffffffffffffff1673ffffffffffffffffffffffffffffffffffffffff16815260200190815260200160002081905550505b600073ffffffffffffffffffffffffffffffffffffffff168273ffffffffffffffffffffffffffffffffffffffff1603610b8c5780600260008282540392505081905550610bd9565b806000808473ffffffffffffffffffffffffffffffffffffffff1673ffffffffffffffffffffffffffffffffffffffff168152602001908152602001600020600082825401925050819055505b8173ffffffffffffffffffffffffffffffffffffffff168373ffffffffffffffffffffffffffffffffffffffff167fddf252ad1be2c89b69c2b068fc378daa952ba7f163c4a11628f55a4df523b3ef83604051610c369190610e8d565b60405180910390a3505050565b600081519050919050565b600082825260208201905092915050565b60005b83811015610c7d578082015181840152602081019050610c62565b60008484015250505050565b6000601f19601f8301169050919050565b6000610ca582610c43565b610caf8185610c4e565b9350610cbf818560208601610c5f565b610cc881610c89565b840191505092915050565b60006020820190508181036000830152610ced8184610c9a565b905092915050565b600080fd5b600073ffffffffffffffffffffffffffffffffffffffff82169050919050565b6000610d2582610cfa565b9050919050565b610d3581610d1a565b8114610d4057600080fd5b50565b600081359050610d5281610d2c565b92915050565b6000819050919050565b610d6b81610d58565b8114610d7657600080fd5b50565b600081359050610d8881610d62565b92915050565b60008060408385031215610da557610da4610cf5565b5b6000610db385828601610d43565b9250506020610dc485828601610d79565b9150509250929050565b60008115159050919050565b610de381610dce565b82525050565b6000602082019050610dfe6000830184610dda565b92915050565b6000819050919050565b6000610e29610e24610e1f84610cfa565b610e04565b610cfa565b9050919050565b6000610e3b82610e0e565b9050919050565b6000610e4d82610e30565b9050919050565b610e5d81610e42565b82525050565b6000602082019050610e786000830184610e54565b92915050565b610e8781610d58565b82525050565b6000602082019050610ea26000830184610e7e565b92915050565b60008060408385031215610ebf57610ebe610cf5565b5b6000610ecd85828601610d79565b9250506020610ede85828601610d79565b9150509250929050565b600080600060608486031215610f0157610f00610cf5565b5b6000610f0f86828701610d43565b9350506020610f2086828701610d43565b9250506040610f3186828701610d79565b9150509250925092565b600060ff82169050919050565b610f5181610f3b565b82525050565b6000602082019050610f6c6000830184610f48565b92915050565b600060208284031215610f8857610f87610cf5565b5b6000610f9684828501610d43565b91505092915050565b60008060408385031215610fb657610fb5610cf5565b5b6000610fc485828601610d43565b9250506020610fd585828601610d43565b9150509250929050565b7f4e487b7100000000000000000000000000000000000000000000000000000000600052602260045260246000fd5b6000600282049050600182168061102657607f821691505b60208210810361103957611038610fdf565b5b50919050565b7f416d6f756e74206d7573742062652067726561746572207468616e2030000000600082015250565b6000611075601d83610c4e565b91506110808261103f565b602082019050919050565b600060208201905081810360008301526110a481611068565b9050919050565b6110b481610d1a565b82525050565b60006060820190506110cf60008301866110ab565b6110dc60208301856110ab565b6110e96040830184610e7e565b949350505050565b6110fa81610dce565b811461110557600080fd5b50565b600081519050611117816110f1565b92915050565b60006020828403121561113357611132610cf5565b5b600061114184828501611108565b91505092915050565b7f55534443207472616e73666572206661696c6564000000000000000000000000600082015250565b6000611180601483610c4e565b915061118b8261114a565b602082019050919050565b600060208201905081810360008301526111af81611173565b9050919050565b60006020820190506111cb60008301846110ab565b92915050565b60006060820190506111e660008301866110ab565b6111f36020830185610e7e565b6112006040830184610e7e565b949350505050565b7f4e487b7100000000000000000000000000000000000000000000000000000000600052601160045260246000fd5b600061124282610d58565b915061124d83610d58565b925082820190508082111561126557611264611208565b5b9291505056fea264697066735822122080705150aa69f5248951facc733ab18673bf3be850fad98323cac231992cd07264736f6c63430008140033",
  "linkReferences": {},
  "deployedLinkReferences": {}
}