{
  "_format": "hh-sol-artifact-1",
  "contractName": "UniFairSwap",
  "sourceName": "contracts/UniFairSwap.sol",
  "abi": [
    {
      "inputs": [
        {
          "internalType": "address",
          "name": "rlo",
          "type": "address"
        },
        {
          "internalType": "address",
          "name": "stRlo",
          "type": "address"
        },
        {
          "internalType": "address",
          "name": "usdc",
          "type": "address"
        },
        {
          "internalType": "address",
          "name": "usdt",
          "type": "address"
        }
      ],
      "stateMutability": "nonpayable",
      "type": "constructor"
    },
    {
      "inputs": [
        {
          "internalType": "address",
          "name": "target",
          "type": "address"
        }
      ],
      "name": "AddressEmptyCode",
      "type": "error"
    },
    {
      "inputs": [
        {
          "internalType": "address",
          "name": "account",
          "type": "address"
        }
      ],
      "name": "AddressInsufficientBalance",
      "type": "error"
    },
    {
      "inputs": [],
      "name": "FailedInnerCall",
      "type": "error"
    },
    {
      "inputs": [
        {
          "internalType": "address",
          "name": "owner",
          "type": "address"
        }
      ],
      "name": "OwnableInvalidOwner",
      "type": "error"
    },
    {
      "inputs": [
        {
          "internalType": "address",
          "name": "account",
          "type": "address"
        }
      ],
      "name": "OwnableUnauthorizedAccount",
      "type": "error"
    },
    {
      "inputs": [],
      "name": "ReentrancyGuardReentrantCall",
      "type": "error"
    },
    {
      "inputs": [
        {
          "internalType": "address",
          "name": "token",
          "type": "address"
        }
      ],
      "name": "SafeERC20FailedOperation",
      "type": "error"
    },
    {
      "anonymous": false,
      "inputs": [
        {
          "indexed": true,
          "internalType": "address",
          "name": "owner",
          "type": "address"
        },
        {
          "indexed": true,
          "internalType": "enum UniFairSwap.TokenId",
          "name": "tokenId",
          "type": "uint8"
        },
        {
          "indexed": false,
          "internalType": "uint256",
          "name": "ethAmount",
          "type": "uint256"
        },
        {
          "indexed": false,
          "internalType": "uint256",
          "name": "tokenAmount",
          "type": "uint256"
        }
      ],
      "name": "LiquidityAdded",
      "type": "event"
    },
    {
      "anonymous": false,
      "inputs": [
        {
          "indexed": true,
          "internalType": "address",
          "name": "previousOwner",
          "type": "address"
        },
        {
          "indexed": true,
          "internalType": "address",
          "name": "newOwner",
          "type": "address"
        }
      ],
      "name": "OwnershipTransferred",
      "type": "event"
    },
    {
      "anonymous": false,
      "inputs": [
        {
          "indexed": true,
          "internalType": "address",
          "name": "user",
          "type": "address"
        },
        {
          "indexed": true,
          "internalType": "enum UniFairSwap.TokenId",
          "name": "tokenId",
          "type": "uint8"
        },
        {
          "indexed": false,
          "internalType": "uint256",
          "name": "ethIn",
          "type": "uint256"
        },
        {
          "indexed": false,
          "internalType": "uint256",
          "name": "tokenOut",
          "type": "uint256"
        }
      ],
      "name": "SwapETHForToken",
      "type": "event"
    },
    {
      "anonymous": false,
      "inputs": [
        {
          "indexed": true,
          "internalType": "address",
          "name": "user",
          "type": "address"
        },
        {
          "indexed": true,
          "internalType": "enum UniFairSwap.TokenId",
          "name": "tokenId",
          "type": "uint8"
        },
        {
          "indexed": false,
          "internalType": "uint256",
          "name": "tokenIn",
          "type": "uint256"
        },
        {
          "indexed": false,
          "internalType": "uint256",
          "name": "ethOut",
          "type": "uint256"
        }
      ],
      "name": "SwapTokenForETH",
      "type": "event"
    },
    {
      "anonymous": false,
      "inputs": [
        {
          "indexed": true,
          "internalType": "address",
          "name": "user",
          "type": "address"
        },
        {
          "indexed": true,
          "internalType": "enum UniFairSwap.TokenId",
          "name": "tokenIdIn",
          "type": "uint8"
        },
        {
          "indexed": true,
          "internalType": "enum UniFairSwap.TokenId",
          "name": "tokenIdOut",
          "type": "uint8"
        },
        {
          "indexed": false,
          "internalType": "uint256",
          "name": "amountIn",
          "type": "uint256"
        },
        {
          "indexed": false,
          "internalType": "uint256",
          "name": "amountOut",
          "type": "uint256"
        }
      ],
      "name": "SwapTokenForToken",
      "type": "event"
    },
    {
      "inputs": [],
      "name": "BPS_DENOMINATOR",
      "outputs": [
        {
          "internalType": "uint256",
          "name": "",
          "type": "uint256"
        }
      ],
      "stateMutability": "view",
      "type": "function"
    },
    {
      "inputs": [],
      "name": "SWAP_FEE_BPS",
      "outputs": [
        {
          "internalType": "uint256",
          "name": "",
          "type": "uint256"
        }
      ],
      "stateMutability": "view",
      "type": "function"
    },
    {
      "inputs": [
        {
          "internalType": "enum UniFairSwap.TokenId",
          "name": "tokenId",
          "type": "uint8"
        },
        {
          "internalType": "uint256",
          "name": "tokenAmount",
          "type": "uint256"
        }
      ],
      "name": "addLiquidity",
      "outputs": [],
      "stateMutability": "payable",
      "type": "function"
    },
    {
      "inputs": [
        {
          "internalType": "enum UniFairSwap.TokenId",
          "name": "tokenId",
          "type": "uint8"
        }
      ],
      "name": "addLiquidityETH",
      "outputs": [],
      "stateMutability": "payable",
      "type": "function"
    },
    {
      "inputs": [
        {
          "internalType": "enum UniFairSwap.TokenId",
          "name": "tokenId",
          "type": "uint8"
        },
        {
          "internalType": "uint256",
          "name": "tokenAmount",
          "type": "uint256"
        }
      ],
      "name": "addLiquidityToken",
      "outputs": [],
      "stateMutability": "nonpayable",
      "type": "function"
    },
    {
      "inputs": [
        {
          "internalType": "enum UniFairSwap.TokenId",
          "name": "tokenId",
          "type": "uint8"
        }
      ],
      "name": "getReserves",
      "outputs": [
        {
          "internalType": "uint256",
          "name": "ethReserve",
          "type": "uint256"
        },
        {
          "internalType": "uint256",
          "name": "tokenReserve",
          "type": "uint256"
        }
      ],
      "stateMutability": "view",
      "type": "function"
    },
    {
      "inputs": [
        {
          "internalType": "enum UniFairSwap.TokenId",
          "name": "tokenId",
          "type": "uint8"
        }
      ],
      "name": "getSpotPriceTokenInETH",
      "outputs": [
        {
          "internalType": "uint256",
          "name": "priceWei",
          "type": "uint256"
        }
      ],
      "stateMutability": "view",
      "type": "function"
    },
    {
      "inputs": [
        {
          "internalType": "enum UniFairSwap.TokenId",
          "name": "tokenId",
          "type": "uint8"
        }
      ],
      "name": "getTokenAddress",
      "outputs": [
        {
          "internalType": "address",
          "name": "",
          "type": "address"
        }
      ],
      "stateMutability": "view",
      "type": "function"
    },
    {
      "inputs": [],
      "name": "owner",
      "outputs": [
        {
          "internalType": "address",
          "name": "",
          "type": "address"
        }
      ],
      "stateMutability": "view",
      "type": "function"
    },
    {
      "inputs": [
        {
          "internalType": "enum UniFairSwap.TokenId",
          "name": "tokenId",
          "type": "uint8"
        },
        {
          "internalType": "uint256",
          "name": "ethIn",
          "type": "uint256"
        }
      ],
      "name": "quoteETHForToken",
      "outputs": [
        {
          "internalType": "uint256",
          "name": "tokenOut",
          "type": "uint256"
        }
      ],
      "stateMutability": "view",
      "type": "function"
    },
    {
      "inputs": [
        {
          "internalType": "enum UniFairSwap.TokenId",
          "name": "tokenId",
          "type": "uint8"
        },
        {
          "internalType": "uint256",
          "name": "tokenIn",
          "type": "uint256"
        }
      ],
      "name": "quoteTokenForETH",
      "outputs": [
        {
          "internalType": "uint256",
          "name": "ethOut",
          "type": "uint256"
        }
      ],
      "stateMutability": "view",
      "type": "function"
    },
    {
      "inputs": [
        {
          "internalType": "enum UniFairSwap.TokenId",
          "name": "tokenIdIn",
          "type": "uint8"
        },
        {
          "internalType": "enum UniFairSwap.TokenId",
          "name": "tokenIdOut",
          "type": "uint8"
        },
        {
          "internalType": "uint256",
          "name": "amountIn",
          "type": "uint256"
        }
      ],
      "name": "quoteTokenForToken",
      "outputs": [
        {
          "internalType": "uint256",
          "name": "amountOut",
          "type": "uint256"
        }
      ],
      "stateMutability": "view",
      "type": "function"
    },
    {
      "inputs": [],
      "name": "renounceOwnership",
      "outputs": [],
      "stateMutability": "nonpayable",
      "type": "function"
    },
    {
      "inputs": [
        {
          "internalType": "enum UniFairSwap.TokenId",
          "name": "",
          "type": "uint8"
        }
      ],
      "name": "reserveETH",
      "outputs": [
        {
          "internalType": "uint256",
          "name": "",
          "type": "uint256"
        }
      ],
      "stateMutability": "view",
      "type": "function"
    },
    {
      "inputs": [
        {
          "internalType": "enum UniFairSwap.TokenId",
          "name": "",
          "type": "uint8"
        }
      ],
      "name": "reserveToken",
      "outputs": [
        {
          "internalType": "uint256",
          "name": "",
          "type": "uint256"
        }
      ],
      "stateMutability": "view",
      "type": "function"
    },
    {
      "inputs": [
        {
          "internalType": "enum UniFairSwap.TokenId",
          "name": "tokenId",
          "type": "uint8"
        },
        {
          "internalType": "uint256",
          "name": "minTokenOut",
          "type": "uint256"
        },
        {
          "internalType": "uint256",
          "name": "deadline",
          "type": "uint256"
        }
      ],
      "name": "swapExactETHForTokens",
      "outputs": [],
      "stateMutability": "payable",
      "type": "function"
    },
    {
      "inputs": [
        {
          "internalType": "enum UniFairSwap.TokenId",
          "name": "tokenId",
          "type": "uint8"
        },
        {
          "internalType": "uint256",
          "name": "tokenIn",
          "type": "uint256"
        },
        {
          "internalType": "uint256",
          "name": "minEthOut",
          "type": "uint256"
        },
        {
          "internalType": "uint256",
          "name": "deadline",
          "type": "uint256"
        }
      ],
      "name": "swapExactTokensForETH",
      "outputs": [],
      "stateMutability": "nonpayable",
      "type": "function"
    },
    {
      "inputs": [
        {
          "internalType": "enum UniFairSwap.TokenId",
          "name": "tokenIdIn",
          "type": "uint8"
        },
        {
          "internalType": "enum UniFairSwap.TokenId",
          "name": "tokenIdOut",
          "type": "uint8"
        },
        {
          "internalType": "uint256",
          "name": "amountIn",
          "type": "uint256"
        },
        {
          "internalType": "uint256",
          "name": "minAmountOut",
          "type": "uint256"
        },
        {
          "internalType": "uint256",
          "name": "deadline",
          "type": "uint256"
        }
      ],
      "name": "swapTokensForTokens",
      "outputs": [],
      "stateMutability": "nonpayable",
      "type": "function"
    },
    {
      "inputs": [
        {
          "internalType": "enum UniFairSwap.TokenId",
          "name": "",
          "type": "uint8"
        }
      ],
      "name": "tokenRegistry",
      "outputs": [
        {
          "internalType": "contract IERC20",
          "name": "token",
          "type": "address"
        },
        {
          "internalType": "string",
          "name": "symbol",
          "type": "string"
        },
        {
          "internalType": "uint8",
          "name": "decimals",
          "type": "uint8"
        }
      ],
      "stateMutability": "view",
      "type": "function"
    },
    {
      "inputs": [
        {
          "internalType": "address",
          "name": "newOwner",
          "type": "address"
        }
      ],
      "name": "transferOwnership",
      "outputs": [],
      "stateMutability": "nonpayable",
      "type": "function"
    },
    {
      "inputs": [
        {
          "internalType": "enum UniFairSwap.TokenId",
          "name": "tokenId",
          "type": "uint8"
        },
        {
          "internalType": "uint256",
          "name": "amount",
          "type": "uint256"
        }
      ],
      "name": "withdrawLiquidityETH",
      "outputs": [],
      "stateMutability": "nonpayable",
      "type": "function"
    },
    {
      "inputs": [
        {
          "internalType": "enum UniFairSwap.TokenId",
          "name": "tokenId",
          "type": "uint8"
        },
        {
          "internalType": "uint256",
          "name": "tokenAmount",
          "type": "uint256"
        }
      ],
      "name": "withdrawLiquidityToken",
      "outputs": [],
      "stateMutability": "nonpayable",
      "type": "function"
    },
    {
      "stateMutability": "payable",
      "type": "receive"
    }
  ],
  "bytecode": "0x60806040523480156200001157600080fd5b506040516200488638038062004886833981810160405281019062000037919062000870565b33600073ffffffffffffffffffffffffffffffffffffffff168173ffffffffffffffffffffffffffffffffffffffff1603620000ad5760006040517f1e4fbdf7000000000000000000000000000000000000000000000000000000008152600401620000a49190620008f3565b60405180910390fd5b620000be816200074260201b60201c565b5060018081905550600073ffffffffffffffffffffffffffffffffffffffff168473ffffffffffffffffffffffffffffffffffffffff160362000138576040517f08c379a00000000000000000000000000000000000000000000000000000000081526004016200012f9062000971565b60405180910390fd5b600073ffffffffffffffffffffffffffffffffffffffff168373ffffffffffffffffffffffffffffffffffffffff1603620001aa576040517f08c379a0000000000000000000000000000000000000000000000000000000008152600401620001a190620009e3565b60405180910390fd5b600073ffffffffffffffffffffffffffffffffffffffff168273ffffffffffffffffffffffffffffffffffffffff16036200021c576040517f08c379a0000000000000000000000000000000000000000000000000000000008152600401620002139062000a55565b60405180910390fd5b600073ffffffffffffffffffffffffffffffffffffffff168173ffffffffffffffffffffffffffffffffffffffff16036200028e576040517f08c379a0000000000000000000000000000000000000000000000000000000008152600401620002859062000ac7565b60405180910390fd5b60405180606001604052808573ffffffffffffffffffffffffffffffffffffffff1681526020016040518060400160405280600381526020017f524c4f00000000000000000000000000000000000000000000000000000000008152508152602001601260ff168152506002600080600381111562000312576200031162000ae9565b5b600381111562000327576200032662000ae9565b5b815260200190815260200160002060008201518160000160006101000a81548173ffffffffffffffffffffffffffffffffffffffff021916908373ffffffffffffffffffffffffffffffffffffffff160217905550602082015181600101908162000393919062000d92565b5060408201518160020160006101000a81548160ff021916908360ff16021790555090505060405180606001604052808473ffffffffffffffffffffffffffffffffffffffff1681526020016040518060400160405280600581526020017f7374524c4f0000000000000000000000000000000000000000000000000000008152508152602001601260ff1681525060026000600160038111156200043d576200043c62000ae9565b5b600381111562000452576200045162000ae9565b5b815260200190815260200160002060008201518160000160006101000a81548173ffffffffffffffffffffffffffffffffffffffff021916908373ffffffffffffffffffffffffffffffffffffffff1602179055506020820151816001019081620004be919062000d92565b5060408201518160020160006101000a81548160ff021916908360ff16021790555090505060405180606001604052808373ffffffffffffffffffffffffffffffffffffffff1681526020016040518060400160405280600481526020017f55534443000000000000000000000000000000000000000000000000000000008152508152602001600660ff16815250600260006002600381111562000568576200056762000ae9565b5b60038111156200057d576200057c62000ae9565b5b815260200190815260200160002060008201518160000160006101000a81548173ffffffffffffffffffffffffffffffffffffffff021916908373ffffffffffffffffffffffffffffffffffffffff1602179055506020820151816001019081620005e9919062000d92565b5060408201518160020160006101000a81548160ff021916908360ff16021790555090505060405180606001604052808273ffffffffffffffffffffffffffffffffffffffff1681526020016040518060400160405280600481526020017f55534454000000000000000000000000000000000000000000000000000000008152508152602001600660ff168152506002600060038081111562000692576200069162000ae9565b5b6003811115620006a757620006a662000ae9565b5b815260200190815260200160002060008201518160000160006101000a81548173ffffffffffffffffffffffffffffffffffffffff021916908373ffffffffffffffffffffffffffffffffffffffff160217905550602082015181600101908162000713919062000d92565b5060408201518160020160006101000a81548160ff021916908360ff1602179055509050505050505062000e79565b60008060009054906101000a900473ffffffffffffffffffffffffffffffffffffffff169050816000806101000a81548173ffffffffffffffffffffffffffffffffffffffff021916908373ffffffffffffffffffffffffffffffffffffffff1602179055508173ffffffffffffffffffffffffffffffffffffffff168173ffffffffffffffffffffffffffffffffffffffff167f8be0079c531659141344cd1fd0a4f28419497f9722a3daafe3b4186f6b6457e060405160405180910390a35050565b600080fd5b600073ffffffffffffffffffffffffffffffffffffffff82169050919050565b600062000838826200080b565b9050919050565b6200084a816200082b565b81146200085657600080fd5b50565b6000815190506200086a816200083f565b92915050565b600080600080608085870312156200088d576200088c62000806565b5b60006200089d8782880162000859565b9450506020620008b08782880162000859565b9350506040620008c38782880162000859565b9250506060620008d68782880162000859565b91505092959194509250565b620008ed816200082b565b82525050565b60006020820190506200090a6000830184620008e2565b92915050565b600082825260208201905092915050565b7f556e6946616972537761703a207a65726f206164647265737320524c4f000000600082015250565b600062000959601d8362000910565b9150620009668262000921565b602082019050919050565b600060208201905081810360008301526200098c816200094a565b9050919050565b7f556e6946616972537761703a207a65726f2061646472657373207374524c4f00600082015250565b6000620009cb601f8362000910565b9150620009d88262000993565b602082019050919050565b60006020820190508181036000830152620009fe81620009bc565b9050919050565b7f556e6946616972537761703a207a65726f206164647265737320555344430000600082015250565b600062000a3d601e8362000910565b915062000a4a8262000a05565b602082019050919050565b6000602082019050818103600083015262000a708162000a2e565b9050919050565b7f556e6946616972537761703a207a65726f206164647265737320555344540000600082015250565b600062000aaf601e8362000910565b915062000abc8262000a77565b602082019050919050565b6000602082019050818103600083015262000ae28162000aa0565b9050919050565b7f4e487b7100000000000000000000000000000000000000000000000000000000600052602160045260246000fd5b600081519050919050565b7f4e487b7100000000000000000000000000000000000000000000000000000000600052604160045260246000fd5b7f4e487b7100000000000000000000000000000000000000000000000000000000600052602260045260246000fd5b6000600282049050600182168062000b9a57607f821691505b60208210810362000bb05762000baf62000b52565b5b50919050565b60008190508160005260206000209050919050565b60006020601f8301049050919050565b600082821b905092915050565b60006008830262000c1a7fffffffffffffffffffffffffffffffffffffffffffffffffffffffffffffffff8262000bdb565b62000c26868362000bdb565b95508019841693508086168417925050509392505050565b6000819050919050565b6000819050919050565b600062000c7362000c6d62000c678462000c3e565b62000c48565b62000c3e565b9050919050565b6000819050919050565b62000c8f8362000c52565b62000ca762000c9e8262000c7a565b84845462000be8565b825550505050565b600090565b62000cbe62000caf565b62000ccb81848462000c84565b505050565b5b8181101562000cf35762000ce760008262000cb4565b60018101905062000cd1565b5050565b601f82111562000d425762000d0c8162000bb6565b62000d178462000bcb565b8101602085101562000d27578190505b62000d3f62000d368562000bcb565b83018262000cd0565b50505b505050565b600082821c905092915050565b600062000d676000198460080262000d47565b1980831691505092915050565b600062000d82838362000d54565b9150826002028217905092915050565b62000d9d8262000b18565b67ffffffffffffffff81111562000db95762000db862000b23565b5b62000dc5825462000b81565b62000dd282828562000cf7565b600060209050601f83116001811462000e0a576000841562000df5578287015190505b62000e01858262000d74565b86555062000e71565b601f19841662000e1a8662000bb6565b60005b8281101562000e445784890151825560018201915060208501945060208101905062000e1d565b8683101562000e64578489015162000e60601f89168262000d54565b8355505b6001600288020188555050505b505050505050565b6139fd8062000e896000396000f3fe6080604052600436106101395760003560e01c806386549bf8116100ab578063bd1b9fad1161006f578063bd1b9fad14610449578063cdb82d4814610465578063da4ae1a8146104a2578063e1a45218146104df578063ef429f761461050a578063f2fde38b1461052657610140565b806386549bf8146103715780638cd81c001461039a5780638da5cb5b146103b6578063a0a73e68146103e1578063b9f98ded1461040a57610140565b80633e6d32cf116100fd5780633e6d32cf1461024f5780635ad3f9181461028c57806367a6c440146102c95780636d146268146102f4578063715018a61461031d5780637a6271fc1461033457610140565b80630760eb41146101455780630d2838bd146101835780631fba4caa146101c057806325b5fb86146101e9578063347020cd1461021257610140565b3661014057005b600080fd5b34801561015157600080fd5b5061016c60048036038101906101679190612706565b61054f565b60405161017a92919061274c565b60405180910390f35b34801561018f57600080fd5b506101aa60048036038101906101a591906127a1565b6105cb565b6040516101b791906127f4565b60405180910390f35b3480156101cc57600080fd5b506101e760048036038101906101e2919061280f565b6106cc565b005b3480156101f557600080fd5b50610210600480360381019061020b9190612876565b610ad6565b005b34801561021e57600080fd5b5061023960048036038101906102349190612706565b610c74565b60405161024691906127f4565b60405180910390f35b34801561025b57600080fd5b5061027660048036038101906102719190612876565b610c8c565b60405161028391906127f4565b60405180910390f35b34801561029857600080fd5b506102b360048036038101906102ae9190612706565b610d0f565b6040516102c091906128f7565b60405180910390f35b3480156102d557600080fd5b506102de610d73565b6040516102eb91906127f4565b60405180910390f35b34801561030057600080fd5b5061031b60048036038101906103169190612876565b610d78565b005b34801561032957600080fd5b50610332610f10565b005b34801561034057600080fd5b5061035b60048036038101906103569190612706565b610f24565b60405161036891906127f4565b60405180910390f35b34801561037d57600080fd5b5061039860048036038101906103939190612876565b610f3c565b005b6103b460048036038101906103af9190612876565b6110ac565b005b3480156103c257600080fd5b506103cb611349565b6040516103d891906128f7565b60405180910390f35b3480156103ed57600080fd5b5061040860048036038101906104039190612912565b611372565b005b34801561041657600080fd5b50610431600480360381019061042c9190612706565b611962565b60405161044093929190612a98565b60405180910390f35b610463600480360381019061045e9190612706565b611a41565b005b34801561047157600080fd5b5061048c60048036038101906104879190612876565b611b51565b60405161049991906127f4565b60405180910390f35b3480156104ae57600080fd5b506104c960048036038101906104c49190612706565b611bd4565b6040516104d691906127f4565b60405180910390f35b3480156104eb57600080fd5b506104f4611d09565b60405161050191906127f4565b60405180910390f35b610524600480360381019061051f9190612ad6565b611d0f565b005b34801561053257600080fd5b5061054d60048036038101906105489190612b55565b61206f565b005b6000806003600084600381111561056957610568612b82565b5b600381111561057b5761057a612b82565b5b8152602001908152602001600020549150600460008460038111156105a3576105a2612b82565b5b60038111156105b5576105b4612b82565b5b8152602001908152602001600020549050915091565b60008061064783600460008860038111156105e9576105e8612b82565b5b60038111156105fb576105fa612b82565b5b8152602001908152602001600020546003600089600381111561062157610620612b82565b5b600381111561063357610632612b82565b5b8152602001908152602001600020546120f5565b90506106c2816003600087600381111561066457610663612b82565b5b600381111561067657610675612b82565b5b8152602001908152602001600020546004600088600381111561069c5761069b612b82565b5b60038111156106ae576106ad612b82565b5b8152602001908152602001600020546120f5565b9150509392505050565b6106d46121eb565b80421115610717576040517f08c379a000000000000000000000000000000000000000000000000000000000815260040161070e90612bfd565b60405180910390fd5b6000831161075a576040517f08c379a000000000000000000000000000000000000000000000000000000000815260040161075190612c8f565b60405180910390fd5b60006107d5846004600088600381111561077757610776612b82565b5b600381111561078957610788612b82565b5b815260200190815260200160002054600360008960038111156107af576107ae612b82565b5b60038111156107c1576107c0612b82565b5b8152602001908152602001600020546120f5565b90508281101561081a576040517f08c379a000000000000000000000000000000000000000000000000000000000815260040161081190612cfb565b60405180910390fd5b806003600087600381111561083257610831612b82565b5b600381111561084457610843612b82565b5b8152602001908152602001600020541015610894576040517f08c379a000000000000000000000000000000000000000000000000000000000815260040161088b90612d8d565b60405180910390fd5b61091b333086600260008a60038111156108b1576108b0612b82565b5b60038111156108c3576108c2612b82565b5b815260200190815260200160002060000160009054906101000a900473ffffffffffffffffffffffffffffffffffffffff1673ffffffffffffffffffffffffffffffffffffffff16612231909392919063ffffffff16565b836004600087600381111561093357610932612b82565b5b600381111561094557610944612b82565b5b815260200190815260200160002060008282546109629190612ddc565b92505081905550806003600087600381111561098157610980612b82565b5b600381111561099357610992612b82565b5b815260200190815260200160002060008282546109b09190612e10565b9250508190555060003373ffffffffffffffffffffffffffffffffffffffff16826040516109dd90612e75565b60006040518083038185875af1925050503d8060008114610a1a576040519150601f19603f3d011682016040523d82523d6000602084013e610a1f565b606091505b5050905080610a63576040517f08c379a0000000000000000000000000000000000000000000000000000000008152600401610a5a90612ed6565b60405180910390fd5b856003811115610a7657610a75612b82565b5b3373ffffffffffffffffffffffffffffffffffffffff167f6928bdf8aaa4c4b39cb8c79cab9b5ac46f08266035eff143ee84e8788262cfb48785604051610abe92919061274c565b60405180910390a35050610ad06122b3565b50505050565b610ade6122bc565b610ae66121eb565b60008111610b29576040517f08c379a0000000000000000000000000000000000000000000000000000000008152600401610b2090612c8f565b60405180910390fd5b600060026000846003811115610b4257610b41612b82565b5b6003811115610b5457610b53612b82565b5b815260200190815260200160002060000160009054906101000a900473ffffffffffffffffffffffffffffffffffffffff169050610bb53330848473ffffffffffffffffffffffffffffffffffffffff16612231909392919063ffffffff16565b8160046000856003811115610bcd57610bcc612b82565b5b6003811115610bdf57610bde612b82565b5b81526020019081526020016000206000828254610bfc9190612ddc565b92505081905550826003811115610c1657610c15612b82565b5b3373ffffffffffffffffffffffffffffffffffffffff167f94f6e0a49e48c298ea913e87ea516a4a0f24cb8cbf9947e83e87353feaf99253600085604051610c5f929190612f31565b60405180910390a350610c706122b3565b5050565b60046020528060005260406000206000915090505481565b6000610d078260046000866003811115610ca957610ca8612b82565b5b6003811115610cbb57610cba612b82565b5b81526020019081526020016000205460036000876003811115610ce157610ce0612b82565b5b6003811115610cf357610cf2612b82565b5b8152602001908152602001600020546120f5565b905092915050565b600060026000836003811115610d2857610d27612b82565b5b6003811115610d3a57610d39612b82565b5b815260200190815260200160002060000160009054906101000a900473ffffffffffffffffffffffffffffffffffffffff169050919050565b601e81565b610d806122bc565b610d886121eb565b8060036000846003811115610da057610d9f612b82565b5b6003811115610db257610db1612b82565b5b8152602001908152602001600020541015610e02576040517f08c379a0000000000000000000000000000000000000000000000000000000008152600401610df990612fcc565b60405180910390fd5b8060036000846003811115610e1a57610e19612b82565b5b6003811115610e2c57610e2b612b82565b5b81526020019081526020016000206000828254610e499190612e10565b925050819055506000610e5a611349565b73ffffffffffffffffffffffffffffffffffffffff1682604051610e7d90612e75565b60006040518083038185875af1925050503d8060008114610eba576040519150601f19603f3d011682016040523d82523d6000602084013e610ebf565b606091505b5050905080610f03576040517f08c379a0000000000000000000000000000000000000000000000000000000008152600401610efa9061305e565b60405180910390fd5b50610f0c6122b3565b5050565b610f186122bc565b610f226000612343565b565b60036020528060005260406000206000915090505481565b610f446122bc565b610f4c6121eb565b8060046000846003811115610f6457610f63612b82565b5b6003811115610f7657610f75612b82565b5b8152602001908152602001600020541015610fc6576040517f08c379a0000000000000000000000000000000000000000000000000000000008152600401610fbd906130f0565b60405180910390fd5b8060046000846003811115610fde57610fdd612b82565b5b6003811115610ff057610fef612b82565b5b8152602001908152602001600020600082825461100d9190612e10565b925050819055506110a061101f611349565b826002600086600381111561103757611036612b82565b5b600381111561104957611048612b82565b5b815260200190815260200160002060000160009054906101000a900473ffffffffffffffffffffffffffffffffffffffff1673ffffffffffffffffffffffffffffffffffffffff166124079092919063ffffffff16565b6110a86122b3565b5050565b6110b46122bc565b6110bc6121eb565b600034116110ff576040517f08c379a00000000000000000000000000000000000000000000000000000000081526004016110f69061315c565b60405180910390fd5b60008111611142576040517f08c379a000000000000000000000000000000000000000000000000000000000815260040161113990612c8f565b60405180910390fd5b60006002600084600381111561115b5761115a612b82565b5b600381111561116d5761116c612b82565b5b815260200190815260200160002060000160009054906101000a900473ffffffffffffffffffffffffffffffffffffffff169050600073ffffffffffffffffffffffffffffffffffffffff168173ffffffffffffffffffffffffffffffffffffffff1603611210576040517f08c379a0000000000000000000000000000000000000000000000000000000008152600401611207906131ee565b60405180910390fd5b61123d3330848473ffffffffffffffffffffffffffffffffffffffff16612231909392919063ffffffff16565b346003600085600381111561125557611254612b82565b5b600381111561126757611266612b82565b5b815260200190815260200160002060008282546112849190612ddc565b9250508190555081600460008560038111156112a3576112a2612b82565b5b60038111156112b5576112b4612b82565b5b815260200190815260200160002060008282546112d29190612ddc565b925050819055508260038111156112ec576112eb612b82565b5b3373ffffffffffffffffffffffffffffffffffffffff167f94f6e0a49e48c298ea913e87ea516a4a0f24cb8cbf9947e83e87353feaf99253348560405161133492919061274c565b60405180910390a3506113456122b3565b5050565b60008060009054906101000a900473ffffffffffffffffffffffffffffffffffffffff16905090565b61137a6121eb565b804211156113bd576040517f08c379a00000000000000000000000000000000000000000000000000000000081526004016113b490612bfd565b60405180910390fd5b8360038111156113d0576113cf612b82565b5b8560038111156113e3576113e2612b82565b5b03611423576040517f08c379a000000000000000000000000000000000000000000000000000000000815260040161141a9061325a565b60405180910390fd5b60008311611466576040517f08c379a000000000000000000000000000000000000000000000000000000000815260040161145d906132ec565b60405180910390fd5b60006114e1846004600089600381111561148357611482612b82565b5b600381111561149557611494612b82565b5b815260200190815260200160002054600360008a60038111156114bb576114ba612b82565b5b60038111156114cd576114cc612b82565b5b8152602001908152602001600020546120f5565b905080600360008860038111156114fb576114fa612b82565b5b600381111561150d5761150c612b82565b5b815260200190815260200160002054101561155d576040517f08c379a00000000000000000000000000000000000000000000000000000000081526004016115549061337e565b60405180910390fd5b60006115d8826003600089600381111561157a57611579612b82565b5b600381111561158c5761158b612b82565b5b815260200190815260200160002054600460008a60038111156115b2576115b1612b82565b5b60038111156115c4576115c3612b82565b5b8152602001908152602001600020546120f5565b90508381101561161d576040517f08c379a000000000000000000000000000000000000000000000000000000000815260040161161490612cfb565b60405180910390fd5b806004600088600381111561163557611634612b82565b5b600381111561164757611646612b82565b5b8152602001908152602001600020541015611697576040517f08c379a000000000000000000000000000000000000000000000000000000000815260040161168e90613410565b60405180910390fd5b61171e333087600260008c60038111156116b4576116b3612b82565b5b60038111156116c6576116c5612b82565b5b815260200190815260200160002060000160009054906101000a900473ffffffffffffffffffffffffffffffffffffffff1673ffffffffffffffffffffffffffffffffffffffff16612231909392919063ffffffff16565b846004600089600381111561173657611735612b82565b5b600381111561174857611747612b82565b5b815260200190815260200160002060008282546117659190612ddc565b92505081905550816003600089600381111561178457611783612b82565b5b600381111561179657611795612b82565b5b815260200190815260200160002060008282546117b39190612e10565b9250508190555081600360008860038111156117d2576117d1612b82565b5b60038111156117e4576117e3612b82565b5b815260200190815260200160002060008282546118019190612ddc565b9250508190555080600460008860038111156118205761181f612b82565b5b600381111561183257611831612b82565b5b8152602001908152602001600020600082825461184f9190612e10565b925050819055506118db3382600260008a600381111561187257611871612b82565b5b600381111561188457611883612b82565b5b815260200190815260200160002060000160009054906101000a900473ffffffffffffffffffffffffffffffffffffffff1673ffffffffffffffffffffffffffffffffffffffff166124079092919063ffffffff16565b8560038111156118ee576118ed612b82565b5b87600381111561190157611900612b82565b5b3373ffffffffffffffffffffffffffffffffffffffff167fe87aad2489c20da8f3ce1a92a14ad8f0a97e378991e6f39af293ac5daa794940888560405161194992919061274c565b60405180910390a4505061195b6122b3565b5050505050565b60026020528060005260406000206000915090508060000160009054906101000a900473ffffffffffffffffffffffffffffffffffffffff16908060010180546119ab9061345f565b80601f01602080910402602001604051908101604052809291908181526020018280546119d79061345f565b8015611a245780601f106119f957610100808354040283529160200191611a24565b820191906000526020600020905b815481529060010190602001808311611a0757829003601f168201915b5050505050908060020160009054906101000a900460ff16905083565b611a496122bc565b611a516121eb565b60003411611a94576040517f08c379a0000000000000000000000000000000000000000000000000000000008152600401611a8b9061315c565b60405180910390fd5b3460036000836003811115611aac57611aab612b82565b5b6003811115611abe57611abd612b82565b5b81526020019081526020016000206000828254611adb9190612ddc565b92505081905550806003811115611af557611af4612b82565b5b3373ffffffffffffffffffffffffffffffffffffffff167f94f6e0a49e48c298ea913e87ea516a4a0f24cb8cbf9947e83e87353feaf99253346000604051611b3e929190613490565b60405180910390a3611b4e6122b3565b50565b6000611bcc8260036000866003811115611b6e57611b6d612b82565b5b6003811115611b8057611b7f612b82565b5b81526020019081526020016000205460046000876003811115611ba657611ba5612b82565b5b6003811115611bb857611bb7612b82565b5b8152602001908152602001600020546120f5565b905092915050565b60008060036000846003811115611bee57611bed612b82565b5b6003811115611c0057611bff612b82565b5b8152602001908152602001600020549050600060046000856003811115611c2a57611c29612b82565b5b6003811115611c3c57611c3b612b82565b5b815260200190815260200160002054905060008111611c90576040517f08c379a0000000000000000000000000000000000000000000000000000000008152600401611c8790613505565b60405180910390fd5b600060026000866003811115611ca957611ca8612b82565b5b6003811115611cbb57611cba612b82565b5b815260200190815260200160002060020160009054906101000a900460ff1690508181600a611cea9190613658565b84611cf591906136a3565b611cff9190613714565b9350505050919050565b61271081565b611d176121eb565b80421115611d5a576040517f08c379a0000000000000000000000000000000000000000000000000000000008152600401611d5190612bfd565b60405180910390fd5b60003411611d9d576040517f08c379a0000000000000000000000000000000000000000000000000000000008152600401611d949061315c565b60405180910390fd5b60003490506000611e1d8260036000886003811115611dbf57611dbe612b82565b5b6003811115611dd157611dd0612b82565b5b81526020019081526020016000205460046000896003811115611df757611df6612b82565b5b6003811115611e0957611e08612b82565b5b8152602001908152602001600020546120f5565b905083811015611e62576040517f08c379a0000000000000000000000000000000000000000000000000000000008152600401611e5990612cfb565b60405180910390fd5b8060046000876003811115611e7a57611e79612b82565b5b6003811115611e8c57611e8b612b82565b5b8152602001908152602001600020541015611edc576040517f08c379a0000000000000000000000000000000000000000000000000000000008152600401611ed3906137b7565b60405180910390fd5b8160036000876003811115611ef457611ef3612b82565b5b6003811115611f0657611f05612b82565b5b81526020019081526020016000206000828254611f239190612ddc565b925050819055508060046000876003811115611f4257611f41612b82565b5b6003811115611f5457611f53612b82565b5b81526020019081526020016000206000828254611f719190612e10565b92505081905550611ffd338260026000896003811115611f9457611f93612b82565b5b6003811115611fa657611fa5612b82565b5b815260200190815260200160002060000160009054906101000a900473ffffffffffffffffffffffffffffffffffffffff1673ffffffffffffffffffffffffffffffffffffffff166124079092919063ffffffff16565b8460038111156120105761200f612b82565b5b3373ffffffffffffffffffffffffffffffffffffffff167ff0438c4954ce8db9e7b8cd7abaaaf83dbb5f160d8c9717d6d7f3941ad60a4f20848460405161205892919061274c565b60405180910390a3505061206a6122b3565b505050565b6120776122bc565b600073ffffffffffffffffffffffffffffffffffffffff168173ffffffffffffffffffffffffffffffffffffffff16036120e95760006040517f1e4fbdf70000000000000000000000000000000000000000000000000000000081526004016120e091906128f7565b60405180910390fd5b6120f281612343565b50565b6000808411612139576040517f08c379a000000000000000000000000000000000000000000000000000000000815260040161213090613823565b60405180910390fd5b6000831180156121495750600082115b612188576040517f08c379a000000000000000000000000000000000000000000000000000000000815260040161217f9061388f565b60405180910390fd5b6000601e6127106121999190612e10565b856121a491906136a3565b9050600083826121b491906136a3565b9050600082612710876121c791906136a3565b6121d19190612ddc565b905080826121df9190613714565b93505050509392505050565b600260015403612227576040517f3ee5aeb500000000000000000000000000000000000000000000000000000000815260040160405180910390fd5b6002600181905550565b6122ad848573ffffffffffffffffffffffffffffffffffffffff166323b872dd868686604051602401612266939291906138af565b604051602081830303815290604052915060e01b6020820180517bffffffffffffffffffffffffffffffffffffffffffffffffffffffff8381831617835250505050612486565b50505050565b60018081905550565b6122c461251d565b73ffffffffffffffffffffffffffffffffffffffff166122e2611349565b73ffffffffffffffffffffffffffffffffffffffff16146123415761230561251d565b6040517f118cdaa700000000000000000000000000000000000000000000000000000000815260040161233891906128f7565b60405180910390fd5b565b60008060009054906101000a900473ffffffffffffffffffffffffffffffffffffffff169050816000806101000a81548173ffffffffffffffffffffffffffffffffffffffff021916908373ffffffffffffffffffffffffffffffffffffffff1602179055508173ffffffffffffffffffffffffffffffffffffffff168173ffffffffffffffffffffffffffffffffffffffff167f8be0079c531659141344cd1fd0a4f28419497f9722a3daafe3b4186f6b6457e060405160405180910390a35050565b612481838473ffffffffffffffffffffffffffffffffffffffff1663a9059cbb858560405160240161243a9291906138e6565b604051602081830303815290604052915060e01b6020820180517bffffffffffffffffffffffffffffffffffffffffffffffffffffffff8381831617835250505050612486565b505050565b60006124b1828473ffffffffffffffffffffffffffffffffffffffff1661252590919063ffffffff16565b905060008151141580156124d65750808060200190518101906124d49190613947565b155b1561251857826040517f5274afe700000000000000000000000000000000000000000000000000000000815260040161250f91906128f7565b60405180910390fd5b505050565b600033905090565b60606125338383600061253b565b905092915050565b60608147101561258257306040517fcd78605900000000000000000000000000000000000000000000000000000000815260040161257991906128f7565b60405180910390fd5b6000808573ffffffffffffffffffffffffffffffffffffffff1684866040516125ab91906139b0565b60006040518083038185875af1925050503d80600081146125e8576040519150601f19603f3d011682016040523d82523d6000602084013e6125ed565b606091505b50915091506125fd868383612608565b925050509392505050565b60608261261d5761261882612697565b61268f565b60008251148015612645575060008473ffffffffffffffffffffffffffffffffffffffff163b145b1561268757836040517f9996b31500000000000000000000000000000000000000000000000000000000815260040161267e91906128f7565b60405180910390fd5b819050612690565b5b9392505050565b6000815111156126aa5780518082602001fd5b6040517f1425ea4200000000000000000000000000000000000000000000000000000000815260040160405180910390fd5b600080fd5b600481106126ee57600080fd5b50565b600081359050612700816126e1565b92915050565b60006020828403121561271c5761271b6126dc565b5b600061272a848285016126f1565b91505092915050565b6000819050919050565b61274681612733565b82525050565b6000604082019050612761600083018561273d565b61276e602083018461273d565b9392505050565b61277e81612733565b811461278957600080fd5b50565b60008135905061279b81612775565b92915050565b6000806000606084860312156127ba576127b96126dc565b5b60006127c8868287016126f1565b93505060206127d9868287016126f1565b92505060406127ea8682870161278c565b9150509250925092565b6000602082019050612809600083018461273d565b92915050565b60008060008060808587031215612829576128286126dc565b5b6000612837878288016126f1565b94505060206128488782880161278c565b93505060406128598782880161278c565b925050606061286a8782880161278c565b91505092959194509250565b6000806040838503121561288d5761288c6126dc565b5b600061289b858286016126f1565b92505060206128ac8582860161278c565b9150509250929050565b600073ffffffffffffffffffffffffffffffffffffffff82169050919050565b60006128e1826128b6565b9050919050565b6128f1816128d6565b82525050565b600060208201905061290c60008301846128e8565b92915050565b600080600080600060a0868803121561292e5761292d6126dc565b5b600061293c888289016126f1565b955050602061294d888289016126f1565b945050604061295e8882890161278c565b935050606061296f8882890161278c565b92505060806129808882890161278c565b9150509295509295909350565b6000819050919050565b60006129b26129ad6129a8846128b6565b61298d565b6128b6565b9050919050565b60006129c482612997565b9050919050565b60006129d6826129b9565b9050919050565b6129e6816129cb565b82525050565b600081519050919050565b600082825260208201905092915050565b60005b83811015612a26578082015181840152602081019050612a0b565b60008484015250505050565b6000601f19601f8301169050919050565b6000612a4e826129ec565b612a5881856129f7565b9350612a68818560208601612a08565b612a7181612a32565b840191505092915050565b600060ff82169050919050565b612a9281612a7c565b82525050565b6000606082019050612aad60008301866129dd565b8181036020830152612abf8185612a43565b9050612ace6040830184612a89565b949350505050565b600080600060608486031215612aef57612aee6126dc565b5b6000612afd868287016126f1565b9350506020612b0e8682870161278c565b9250506040612b1f8682870161278c565b9150509250925092565b612b32816128d6565b8114612b3d57600080fd5b50565b600081359050612b4f81612b29565b92915050565b600060208284031215612b6b57612b6a6126dc565b5b6000612b7984828501612b40565b91505092915050565b7f4e487b7100000000000000000000000000000000000000000000000000000000600052602160045260246000fd5b7f556e6946616972537761703a207472616e73616374696f6e2065787069726564600082015250565b6000612be76020836129f7565b9150612bf282612bb1565b602082019050919050565b60006020820190508181036000830152612c1681612bda565b9050919050565b7f556e6946616972537761703a20746f6b656e20616d6f756e742072657175697260008201527f6564000000000000000000000000000000000000000000000000000000000000602082015250565b6000612c796022836129f7565b9150612c8482612c1d565b604082019050919050565b60006020820190508181036000830152612ca881612c6c565b9050919050565b7f556e6946616972537761703a20736c6970706167652065786365656465640000600082015250565b6000612ce5601e836129f7565b9150612cf082612caf565b602082019050919050565b60006020820190508181036000830152612d1481612cd8565b9050919050565b7f556e6946616972537761703a20696e73756666696369656e7420455448206c6960008201527f7175696469747900000000000000000000000000000000000000000000000000602082015250565b6000612d776027836129f7565b9150612d8282612d1b565b604082019050919050565b60006020820190508181036000830152612da681612d6a565b9050919050565b7f4e487b7100000000000000000000000000000000000000000000000000000000600052601160045260246000fd5b6000612de782612733565b9150612df283612733565b9250828201905080821115612e0a57612e09612dad565b5b92915050565b6000612e1b82612733565b9150612e2683612733565b9250828203905081811115612e3e57612e3d612dad565b5b92915050565b600081905092915050565b50565b6000612e5f600083612e44565b9150612e6a82612e4f565b600082019050919050565b6000612e8082612e52565b9150819050919050565b7f556e6946616972537761703a20455448207472616e73666572206661696c6564600082015250565b6000612ec06020836129f7565b9150612ecb82612e8a565b602082019050919050565b60006020820190508181036000830152612eef81612eb3565b9050919050565b6000819050919050565b6000612f1b612f16612f1184612ef6565b61298d565b612733565b9050919050565b612f2b81612f00565b82525050565b6000604082019050612f466000830185612f22565b612f53602083018461273d565b9392505050565b7f556e6946616972537761703a20696e73756666696369656e742045544820726560008201527f7365727665000000000000000000000000000000000000000000000000000000602082015250565b6000612fb66025836129f7565b9150612fc182612f5a565b604082019050919050565b60006020820190508181036000830152612fe581612fa9565b9050919050565b7f556e6946616972537761703a20455448207769746864726177616c206661696c60008201527f6564000000000000000000000000000000000000000000000000000000000000602082015250565b60006130486022836129f7565b915061305382612fec565b604082019050919050565b600060208201905081810360008301526130778161303b565b9050919050565b7f556e6946616972537761703a20696e73756666696369656e7420746f6b656e2060008201527f7265736572766500000000000000000000000000000000000000000000000000602082015250565b60006130da6027836129f7565b91506130e58261307e565b604082019050919050565b60006020820190508181036000830152613109816130cd565b9050919050565b7f556e6946616972537761703a2045544820616d6f756e74207265717569726564600082015250565b60006131466020836129f7565b915061315182613110565b602082019050919050565b6000602082019050818103600083015261317581613139565b9050919050565b7f556e6946616972537761703a20746f6b656e206e6f742072656769737465726560008201527f6400000000000000000000000000000000000000000000000000000000000000602082015250565b60006131d86021836129f7565b91506131e38261317c565b604082019050919050565b60006020820190508181036000830152613207816131cb565b9050919050565b7f556e6946616972537761703a206964656e746963616c20746f6b656e73000000600082015250565b6000613244601d836129f7565b915061324f8261320e565b602082019050919050565b6000602082019050818103600083015261327381613237565b9050919050565b7f556e6946616972537761703a20696e70757420616d6f756e742072657175697260008201527f6564000000000000000000000000000000000000000000000000000000000000602082015250565b60006132d66022836129f7565b91506132e18261327a565b604082019050919050565b60006020820190508181036000830152613305816132c9565b9050919050565b7f556e6946616972537761703a20696e73756666696369656e742045544820696e60008201527f20736f7572636520706f6f6c0000000000000000000000000000000000000000602082015250565b6000613368602c836129f7565b91506133738261330c565b604082019050919050565b600060208201905081810360008301526133978161335b565b9050919050565b7f556e6946616972537761703a20696e73756666696369656e74206c697175696460008201527f69747920696e206465737420706f6f6c00000000000000000000000000000000602082015250565b60006133fa6030836129f7565b91506134058261339e565b604082019050919050565b60006020820190508181036000830152613429816133ed565b9050919050565b7f4e487b7100000000000000000000000000000000000000000000000000000000600052602260045260246000fd5b6000600282049050600182168061347757607f821691505b60208210810361348a57613489613430565b5b50919050565b60006040820190506134a5600083018561273d565b6134b26020830184612f22565b9392505050565b7f556e6946616972537761703a206e6f20746f6b656e2072657365727665000000600082015250565b60006134ef601d836129f7565b91506134fa826134b9565b602082019050919050565b6000602082019050818103600083015261351e816134e2565b9050919050565b60008160011c9050919050565b6000808291508390505b600185111561357c5780860481111561355857613557612dad565b5b60018516156135675780820291505b808102905061357585613525565b945061353c565b94509492505050565b6000826135955760019050613651565b816135a35760009050613651565b81600181146135b957600281146135c3576135f2565b6001915050613651565b60ff8411156135d5576135d4612dad565b5b8360020a9150848211156135ec576135eb612dad565b5b50613651565b5060208310610133831016604e8410600b84101617156136275782820a90508381111561362257613621612dad565b5b613651565b6136348484846001613532565b9250905081840481111561364b5761364a612dad565b5b81810290505b9392505050565b600061366382612733565b915061366e83612a7c565b925061369b7fffffffffffffffffffffffffffffffffffffffffffffffffffffffffffffffff8484613585565b905092915050565b60006136ae82612733565b91506136b983612733565b92508282026136c781612733565b915082820484148315176136de576136dd612dad565b5b5092915050565b7f4e487b7100000000000000000000000000000000000000000000000000000000600052601260045260246000fd5b600061371f82612733565b915061372a83612733565b92508261373a576137396136e5565b5b828204905092915050565b7f556e6946616972537761703a20696e73756666696369656e74206c697175696460008201527f6974790000000000000000000000000000000000000000000000000000000000602082015250565b60006137a16023836129f7565b91506137ac82613745565b604082019050919050565b600060208201905081810360008301526137d081613794565b9050919050565b7f556e6946616972537761703a20696e73756666696369656e7420696e70757400600082015250565b600061380d601f836129f7565b9150613818826137d7565b602082019050919050565b6000602082019050818103600083015261383c81613800565b9050919050565b7f556e6946616972537761703a20656d7074792072657365727665000000000000600082015250565b6000613879601a836129f7565b915061388482613843565b602082019050919050565b600060208201905081810360008301526138a88161386c565b9050919050565b60006060820190506138c460008301866128e8565b6138d160208301856128e8565b6138de604083018461273d565b949350505050565b60006040820190506138fb60008301856128e8565b613908602083018461273d565b9392505050565b60008115159050919050565b6139248161390f565b811461392f57600080fd5b50565b6000815190506139418161391b565b92915050565b60006020828403121561395d5761395c6126dc565b5b600061396b84828501613932565b91505092915050565b600081519050919050565b600061398a82613974565b6139948185612e44565b93506139a4818560208601612a08565b80840191505092915050565b60006139bc828461397f565b91508190509291505056fea264697066735822122050a527e3370720f14810b507f87afa55e6bda4df59b9ca9dc18ce95c33ce0c2164736f6c63430008140033",
  "linkReferences": {},
  "deployedLinkReferences": {}
}