{
  "_format": "hh-sol-artifact-1",
  "contractName": "AdvancedStaking",
  "sourceName": "contracts/AdvancedStaking.sol",
  "abi": [
    {
      "inputs": [
        {
          "internalType": "address",
          "name": "_rloToken",
          "type": "address"
        },
        {
          "internalType": "address",
          "name": "_treasuryWallet",
          "type": "address"
        }
      ],
      "stateMutability": "nonpayable",
      "type": "constructor"
    },
    {
      "inputs": [],
      "name": "ReentrancyGuardReentrantCall",
      "type": "error"
    },
    {
      "anonymous": false,
      "inputs": [
        {
          "indexed": true,
          "internalType": "address",
          "name": "user",
          "type": "address"
        },
        {
          "indexed": true,
          "internalType": "uint256",
          "name": "stakeId",
          "type": "uint256"
        },
        {
          "indexed": false,
          "internalType": "uint256",
          "name": "amountRLO",
          "type": "uint256"
        },
        {
          "indexed": false,
          "internalType": "uint256",
          "name": "amountETH",
          "type": "uint256"
        },
        {
          "indexed": false,
          "internalType": "uint256",
          "name": "lockMonths",
          "type": "uint256"
        }
      ],
      "name": "Staked",
      "type": "event"
    },
    {
      "anonymous": false,
      "inputs": [
        {
          "indexed": true,
          "internalType": "address",
          "name": "user",
          "type": "address"
        },
        {
          "indexed": true,
          "internalType": "uint256",
          "name": "stakeId",
          "type": "uint256"
        },
        {
          "indexed": false,
          "internalType": "uint256",
          "name": "amountToUser",
          "type": "uint256"
        }
      ],
      "name": "UpfrontYieldPaid",
      "type": "event"
    },
    {
      "anonymous": false,
      "inputs": [
        {
          "indexed": true,
          "internalType": "address",
          "name": "user",
          "type": "address"
        },
        {
          "indexed": true,
          "internalType": "uint256",
          "name": "stakeId",
          "type": "uint256"
        }
      ],
      "name": "Withdrawn",
      "type": "event"
    },
    {
      "inputs": [
        {
          "internalType": "uint256",
          "name": "lockMonths",
          "type": "uint256"
        },
        {
          "internalType": "enum AdvancedStaking.AssetType",
          "name": "assetType",
          "type": "uint8"
        },
        {
          "internalType": "bool",
          "name": "isRWA",
          "type": "bool"
        }
      ],
      "name": "calculateAPY",
      "outputs": [
        {
          "internalType": "uint256",
          "name": "",
          "type": "uint256"
        }
      ],
      "stateMutability": "pure",
      "type": "function"
    },
    {
      "inputs": [
        {
          "internalType": "address",
          "name": "user",
          "type": "address"
        }
      ],
      "name": "getUserStakes",
      "outputs": [
        {
          "components": [
            {
              "internalType": "uint256",
              "name": "id",
              "type": "uint256"
            },
            {
              "internalType": "enum AdvancedStaking.AssetType",
              "name": "assetType",
              "type": "uint8"
            },
            {
              "internalType": "uint256",
              "name": "amountRLO",
              "type": "uint256"
            },
            {
              "internalType": "uint256",
              "name": "amountETH",
              "type": "uint256"
            },
            {
              "internalType": "uint256",
              "name": "lockMonths",
              "type": "uint256"
            },
            {
              "internalType": "uint256",
              "name": "lockEndTimestamp",
              "type": "uint256"
            },
            {
              "internalType": "uint256",
              "name": "apyBPS",
              "type": "uint256"
            },
            {
              "internalType": "bool",
              "name": "isUpfrontPaid",
              "type": "bool"
            },
            {
              "internalType": "uint256",
              "name": "lastUpdate",
              "type": "uint256"
            },
            {
              "internalType": "bool",
              "name": "isRWA",
              "type": "bool"
            },
            {
              "internalType": "uint256",
              "name": "sfsFraction",
              "type": "uint256"
            },
            {
              "internalType": "bool",
              "name": "active",
              "type": "bool"
            }
          ],
          "internalType": "struct AdvancedStaking.StakePosition[]",
          "name": "",
          "type": "tuple[]"
        }
      ],
      "stateMutability": "view",
      "type": "function"
    },
    {
      "inputs": [],
      "name": "nextStakeId",
      "outputs": [
        {
          "internalType": "uint256",
          "name": "",
          "type": "uint256"
        }
      ],
      "stateMutability": "view",
      "type": "function"
    },
    {
      "inputs": [],
      "name": "rloToken",
      "outputs": [
        {
          "internalType": "contract IERC20",
          "name": "",
          "type": "address"
        }
      ],
      "stateMutability": "view",
      "type": "function"
    },
    {
      "inputs": [
        {
          "internalType": "enum AdvancedStaking.AssetType",
          "name": "assetType",
          "type": "uint8"
        },
        {
          "internalType": "uint256",
          "name": "rloAmount",
          "type": "uint256"
        },
        {
          "internalType": "uint256",
          "name": "lockMonths",
          "type": "uint256"
        },
        {
          "internalType": "bool",
          "name": "isRWA",
          "type": "bool"
        },
        {
          "internalType": "uint256",
          "name": "sfsFraction",
          "type": "uint256"
        }
      ],
      "name": "stake",
      "outputs": [],
      "stateMutability": "payable",
      "type": "function"
    },
    {
      "inputs": [],
      "name": "treasuryWallet",
      "outputs": [
        {
          "internalType": "address",
          "name": "",
          "type": "address"
        }
      ],
      "stateMutability": "view",
      "type": "function"
    },
    {
      "inputs": [
        {
          "internalType": "address",
          "name": "",
          "type": "address"
        },
        {
          "internalType": "uint256",
          "name": "",
          "type": "uint256"
        }
      ],
      "name": "userStakes",
      "outputs": [
        {
          "internalType": "uint256",
          "name": "id",
          "type": "uint256"
        },
        {
          "internalType": "enum AdvancedStaking.AssetType",
          "name": "assetType",
          "type": "uint8"
        },
        {
          "internalType": "uint256",
          "name": "amountRLO",
          "type": "uint256"
        },
        {
          "internalType": "uint256",
          "name": "amountETH",
          "type": "uint256"
        },
        {
          "internalType": "uint256",
          "name": "lockMonths",
          "type": "uint256"
        },
        {
          "internalType": "uint256",
          "name": "lockEndTimestamp",
          "type": "uint256"
        },
        {
          "internalType": "uint256",
          "name": "apyBPS",
          "type": "uint256"
        },
        {
          "internalType": "bool",
          "name": "isUpfrontPaid",
          "type": "bool"
        },
        {
          "internalType": "uint256",
          "name": "lastUpdate",
          "type": "uint256"
        },
        {
          "internalType": "bool",
          "name": "isRWA",
          "type": "bool"
        },
        {
          "internalType": "uint256",
          "name": "sfsFraction",
          "type": "uint256"
        },
        {
          "internalType": "bool",
          "name": "active",
          "type": "bool"
        }
      ],
      "stateMutability": "view",
      "type": "function"
    },
    {
      "inputs": [
        {
          "internalType": "uint256",
          "name": "stakeId",
          "type": "uint256"
        }
      ],
      "name": "withdraw",
      "outputs": [],
      "stateMutability": "nonpayable",
      "type": "function"
    }
  ],
  "bytecode": "0x608060405260016004553480156200001657600080fd5b5060405162002ce238038062002ce283398181016040528101906200003c91906200021c565b6001600081905550600073ffffffffffffffffffffffffffffffffffffffff168273ffffffffffffffffffffffffffffffffffffffff1603620000b6576040517f08c379a0000000000000000000000000000000000000000000000000000000008152600401620000ad90620002c4565b60405180910390fd5b600073ffffffffffffffffffffffffffffffffffffffff168173ffffffffffffffffffffffffffffffffffffffff160362000128576040517f08c379a00000000000000000000000000000000000000000000000000000000081526004016200011f9062000336565b60405180910390fd5b81600160006101000a81548173ffffffffffffffffffffffffffffffffffffffff021916908373ffffffffffffffffffffffffffffffffffffffff16021790555080600260006101000a81548173ffffffffffffffffffffffffffffffffffffffff021916908373ffffffffffffffffffffffffffffffffffffffff160217905550505062000358565b600080fd5b600073ffffffffffffffffffffffffffffffffffffffff82169050919050565b6000620001e482620001b7565b9050919050565b620001f681620001d7565b81146200020257600080fd5b50565b6000815190506200021681620001eb565b92915050565b60008060408385031215620002365762000235620001b2565b5b6000620002468582860162000205565b9250506020620002598582860162000205565b9150509250929050565b600082825260208201905092915050565b7f496e76616c696420524c4f20546f6b656e204164647265737300000000000000600082015250565b6000620002ac60198362000263565b9150620002b98262000274565b602082019050919050565b60006020820190508181036000830152620002df816200029d565b9050919050565b7f496e76616c696420547265617375727920416464726573730000000000000000600082015250565b60006200031e60188362000263565b91506200032b82620002e6565b602082019050919050565b6000602082019050818103600083015262000351816200030f565b9050919050565b61297a80620003686000396000f3fe60806040526004361061007b5760003560e01c8063834b39141161004e578063834b39141461012a578063842e2981146101465780638a0c57c914610183578063b5d5b5fa146101c05761007b565b80632e1a7d4d146100805780634626402b146100a957806347b17d68146100d457806375506c96146100ff575b600080fd5b34801561008c57600080fd5b506100a760048036038101906100a29190611936565b610208565b005b3480156100b557600080fd5b506100be610b2a565b6040516100cb91906119a4565b60405180910390f35b3480156100e057600080fd5b506100e9610b50565b6040516100f69190611a1e565b60405180910390f35b34801561010b57600080fd5b50610114610b76565b6040516101219190611a48565b60405180910390f35b610144600480360381019061013f9190611ac0565b610b7c565b005b34801561015257600080fd5b5061016d60048036038101906101689190611b67565b61154f565b60405161017a9190611dcf565b60405180910390f35b34801561018f57600080fd5b506101aa60048036038101906101a59190611df1565b6116ca565b6040516101b79190611a48565b60405180910390f35b3480156101cc57600080fd5b506101e760048036038101906101e29190611e44565b6117fa565b6040516101ff9c9b9a99989796959493929190611ea2565b60405180910390f35b6102106118ab565b6000805b600360003373ffffffffffffffffffffffffffffffffffffffff1673ffffffffffffffffffffffffffffffffffffffff16815260200190815260200160002080549050811015610add5782600360003373ffffffffffffffffffffffffffffffffffffffff1673ffffffffffffffffffffffffffffffffffffffff16815260200190815260200160002082815481106102b0576102af611f5c565b5b90600052602060002090600c02016000015414801561033b5750600360003373ffffffffffffffffffffffffffffffffffffffff1673ffffffffffffffffffffffffffffffffffffffff168152602001908152602001600020818154811061031b5761031a611f5c565b5b90600052602060002090600c0201600b0160009054906101000a900460ff165b15610aca576000600360003373ffffffffffffffffffffffffffffffffffffffff1673ffffffffffffffffffffffffffffffffffffffff168152602001908152602001600020828154811061039357610392611f5c565b5b90600052602060002090600c0201905080600501544210156103ea576040517f08c379a00000000000000000000000000000000000000000000000000000000081526004016103e190611fe8565b60405180910390fd5b600081600b0160006101000a81548160ff0219169083151502179055506001925060008160040154036108cc57600061271090506001600281111561043257610431611bcf565b5b8260010160009054906101000a900460ff16600281111561045657610455611bcf565b5b036104655761177090506104a8565b60028081111561047857610477611bcf565b5b8260010160009054906101000a900460ff16600281111561049c5761049b611bcf565b5b036104a7576107d090505b5b6000826002015490506002808111156104c4576104c3611bcf565b5b8360010160009054906101000a900460ff1660028111156104e8576104e7611bcf565b5b0361050657610bb883600301546104ff9190612037565b9050610568565b6001600281111561051a57610519611bcf565b5b8360010160009054906101000a900460ff16600281111561053e5761053d611bcf565b5b0361056757610bb883600301546105559190612037565b83600201546105649190612079565b90505b5b600083600801544261057a91906120ad565b9050600064496cebb800828660060154856105959190612037565b61059f9190612037565b6105a99190612110565b905060008111156108c75760006305f5e1008587600a0154846105cc9190612037565b6105d69190612037565b6105e09190612110565b9050600081836105f091906120ad565b905082600160009054906101000a900473ffffffffffffffffffffffffffffffffffffffff1673ffffffffffffffffffffffffffffffffffffffff166370a08231306040518263ffffffff1660e01b815260040161064e91906119a4565b602060405180830381865afa15801561066b573d6000803e3d6000fd5b505050506040513d601f19601f8201168201806040525081019061068f9190612156565b10156106d0576040517f08c379a00000000000000000000000000000000000000000000000000000000081526004016106c7906121f5565b60405180910390fd5b60008111156107b957600160009054906101000a900473ffffffffffffffffffffffffffffffffffffffff1673ffffffffffffffffffffffffffffffffffffffff1663a9059cbb33836040518363ffffffff1660e01b8152600401610736929190612215565b6020604051808303816000875af1158015610755573d6000803e3d6000fd5b505050506040513d601f19601f820116820180604052508101906107799190612253565b6107b8576040517f08c379a00000000000000000000000000000000000000000000000000000000081526004016107af906122cc565b60405180910390fd5b5b60008211156108c457600160009054906101000a900473ffffffffffffffffffffffffffffffffffffffff1673ffffffffffffffffffffffffffffffffffffffff1663a9059cbb600260009054906101000a900473ffffffffffffffffffffffffffffffffffffffff16846040518363ffffffff1660e01b8152600401610841929190612215565b6020604051808303816000875af1158015610860573d6000803e3d6000fd5b505050506040513d601f19601f820116820180604052508101906108849190612253565b6108c3576040517f08c379a00000000000000000000000000000000000000000000000000000000081526004016108ba90612338565b60405180910390fd5b5b50505b505050505b6000816002015411156109bd57600160009054906101000a900473ffffffffffffffffffffffffffffffffffffffff1673ffffffffffffffffffffffffffffffffffffffff1663a9059cbb3383600201546040518363ffffffff1660e01b815260040161093a929190612215565b6020604051808303816000875af1158015610959573d6000803e3d6000fd5b505050506040513d601f19601f8201168201806040525081019061097d9190612253565b6109bc576040517f08c379a00000000000000000000000000000000000000000000000000000000081526004016109b3906123a4565b60405180910390fd5b5b600081600301541115610a7c5760003373ffffffffffffffffffffffffffffffffffffffff1682600301546040516109f4906123f5565b60006040518083038185875af1925050503d8060008114610a31576040519150601f19603f3d011682016040523d82523d6000602084013e610a36565b606091505b5050905080610a7a576040517f08c379a0000000000000000000000000000000000000000000000000000000008152600401610a7190612456565b60405180910390fd5b505b80600001543373ffffffffffffffffffffffffffffffffffffffff167f7084f5476618d8e60b11ef0d7d3f06914655adb8793e28ff7f018d4c76d505d560405160405180910390a350610add565b8080610ad590612476565b915050610214565b5080610b1e576040517f08c379a0000000000000000000000000000000000000000000000000000000008152600401610b159061250a565b60405180910390fd5b50610b276118f1565b50565b600260009054906101000a900473ffffffffffffffffffffffffffffffffffffffff1681565b600160009054906101000a900473ffffffffffffffffffffffffffffffffffffffff1681565b60045481565b610b846118ab565b6030831115610bc8576040517f08c379a0000000000000000000000000000000000000000000000000000000008152600401610bbf90612576565b60405180910390fd5b612710811115610c0d576040517f08c379a0000000000000000000000000000000000000000000000000000000008152600401610c04906125e2565b60405180910390fd5b60006002811115610c2157610c20611bcf565b5b856002811115610c3457610c33611bcf565b5b1480610c64575060016002811115610c4f57610c4e611bcf565b5b856002811115610c6257610c61611bcf565b5b145b15610d9657678ac7230489e80000841015610cb4576040517f08c379a0000000000000000000000000000000000000000000000000000000008152600401610cab9061264e565b60405180910390fd5b600160009054906101000a900473ffffffffffffffffffffffffffffffffffffffff1673ffffffffffffffffffffffffffffffffffffffff166323b872dd3330876040518463ffffffff1660e01b8152600401610d139392919061266e565b6020604051808303816000875af1158015610d32573d6000803e3d6000fd5b505050506040513d601f19601f82011682018060405250810190610d569190612253565b610d95576040517f08c379a0000000000000000000000000000000000000000000000000000000008152600401610d8c906126f1565b60405180910390fd5b5b600280811115610da957610da8611bcf565b5b856002811115610dbc57610dbb611bcf565b5b1480610dec575060016002811115610dd757610dd6611bcf565b5b856002811115610dea57610de9611bcf565b5b145b15610e355760003411610e34576040517f08c379a0000000000000000000000000000000000000000000000000000000008152600401610e2b9061275d565b60405180910390fd5b5b6000610e428487856116ca565b9050600060405180610180016040528060046000815480929190610e6590612476565b919050558152602001886002811115610e8157610e80611bcf565b5b815260200187815260200134815260200186815260200160008711610ea7576000610ec2565b62278d0087610eb69190612037565b42610ec19190612079565b5b815260200183815260200160001515815260200142815260200185151581526020018481526020016001151581525090506000851115611398576000612710905060016002811115610f1757610f16611bcf565b5b886002811115610f2a57610f29611bcf565b5b03610f39576117709050610f6b565b600280811115610f4c57610f4b611bcf565b5b886002811115610f5f57610f5e611bcf565b5b03610f6a576107d090505b5b6000879050600280811115610f8357610f82611bcf565b5b896002811115610f9657610f95611bcf565b5b03610fb057610bb834610fa99190612037565b9050610ff9565b60016002811115610fc457610fc3611bcf565b5b896002811115610fd757610fd6611bcf565b5b03610ff857610bb834610fea9190612037565b88610ff59190612079565b90505b5b60006201d4c088868461100c9190612037565b6110169190612037565b6110209190612110565b905060006305f5e1008488846110369190612037565b6110409190612037565b61104a9190612110565b90506000818361105a91906120ad565b905082600160009054906101000a900473ffffffffffffffffffffffffffffffffffffffff1673ffffffffffffffffffffffffffffffffffffffff166370a08231306040518263ffffffff1660e01b81526004016110b891906119a4565b602060405180830381865afa1580156110d5573d6000803e3d6000fd5b505050506040513d601f19601f820116820180604052508101906110f99190612156565b101561113a576040517f08c379a0000000000000000000000000000000000000000000000000000000008152600401611131906127ef565b60405180910390fd5b600081111561122357600160009054906101000a900473ffffffffffffffffffffffffffffffffffffffff1673ffffffffffffffffffffffffffffffffffffffff1663a9059cbb33836040518363ffffffff1660e01b81526004016111a0929190612215565b6020604051808303816000875af11580156111bf573d6000803e3d6000fd5b505050506040513d601f19601f820116820180604052508101906111e39190612253565b611222576040517f08c379a00000000000000000000000000000000000000000000000000000000081526004016112199061285b565b60405180910390fd5b5b600082111561132e57600160009054906101000a900473ffffffffffffffffffffffffffffffffffffffff1673ffffffffffffffffffffffffffffffffffffffff1663a9059cbb600260009054906101000a900473ffffffffffffffffffffffffffffffffffffffff16846040518363ffffffff1660e01b81526004016112ab929190612215565b6020604051808303816000875af11580156112ca573d6000803e3d6000fd5b505050506040513d601f19601f820116820180604052508101906112ee9190612253565b61132d576040517f08c379a0000000000000000000000000000000000000000000000000000000008152600401611324906128ed565b60405180910390fd5b5b60018660e001901515908115158152505085600001513373ffffffffffffffffffffffffffffffffffffffff167fd35a06876d8aa271be69ca9557d1683fc3e494aa03cbe38daf122e19944178088360405161138a9190611a48565b60405180910390a350505050505b600360003373ffffffffffffffffffffffffffffffffffffffff1673ffffffffffffffffffffffffffffffffffffffff1681526020019081526020016000208190806001815401808255809150506001900390600052602060002090600c02016000909190919091506000820151816000015560208201518160010160006101000a81548160ff0219169083600281111561143657611435611bcf565b5b021790555060408201518160020155606082015181600301556080820151816004015560a0820151816005015560c0820151816006015560e08201518160070160006101000a81548160ff02191690831515021790555061010082015181600801556101208201518160090160006101000a81548160ff02191690831515021790555061014082015181600a015561016082015181600b0160006101000a81548160ff021916908315150217905550505080600001513373ffffffffffffffffffffffffffffffffffffffff167f9cfd25589d1eb8ad71e342a86a8524e83522e3936c0803048c08f6d9ad974f408834896040516115369392919061290d565b60405180910390a350506115486118f1565b5050505050565b6060600360008373ffffffffffffffffffffffffffffffffffffffff1673ffffffffffffffffffffffffffffffffffffffff168152602001908152602001600020805480602002602001604051908101604052809291908181526020016000905b828210156116bf57838290600052602060002090600c020160405180610180016040529081600082015481526020016001820160009054906101000a900460ff16600281111561160357611602611bcf565b5b600281111561161557611614611bcf565b5b815260200160028201548152602001600382015481526020016004820154815260200160058201548152602001600682015481526020016007820160009054906101000a900460ff16151515158152602001600882015481526020016009820160009054906101000a900460ff16151515158152602001600a8201548152602001600b820160009054906101000a900460ff161515151581525050815260200190600101906115b0565b505050509050919050565b600080826116da576104b06116de565b6103205b61ffff169050600061012c905060008087036116fc5781905061174e565b60308710611719576103e8836117129190612079565b905061174d565b602f6103e860018961172b91906120ad565b6117359190612037565b61173f9190612110565b8361174a9190612079565b90505b5b6000600281111561176257611761611bcf565b5b86600281111561177557611774611bcf565b5b03611785578093505050506117f3565b6001600281111561179957611798611bcf565b5b8660028111156117ac576117ab611bcf565b5b036117d4576064604b826117c09190612037565b6117ca9190612110565b93505050506117f3565b6064601e826117e39190612037565b6117ed9190612110565b93505050505b9392505050565b6003602052816000526040600020818154811061181657600080fd5b90600052602060002090600c0201600091509150508060000154908060010160009054906101000a900460ff16908060020154908060030154908060040154908060050154908060060154908060070160009054906101000a900460ff16908060080154908060090160009054906101000a900460ff169080600a01549080600b0160009054906101000a900460ff1690508c565b6002600054036118e7576040517f3ee5aeb500000000000000000000000000000000000000000000000000000000815260040160405180910390fd5b6002600081905550565b6001600081905550565b600080fd5b6000819050919050565b61191381611900565b811461191e57600080fd5b50565b6000813590506119308161190a565b92915050565b60006020828403121561194c5761194b6118fb565b5b600061195a84828501611921565b91505092915050565b600073ffffffffffffffffffffffffffffffffffffffff82169050919050565b600061198e82611963565b9050919050565b61199e81611983565b82525050565b60006020820190506119b96000830184611995565b92915050565b6000819050919050565b60006119e46119df6119da84611963565b6119bf565b611963565b9050919050565b60006119f6826119c9565b9050919050565b6000611a08826119eb565b9050919050565b611a18816119fd565b82525050565b6000602082019050611a336000830184611a0f565b92915050565b611a4281611900565b82525050565b6000602082019050611a5d6000830184611a39565b92915050565b60038110611a7057600080fd5b50565b600081359050611a8281611a63565b92915050565b60008115159050919050565b611a9d81611a88565b8114611aa857600080fd5b50565b600081359050611aba81611a94565b92915050565b600080600080600060a08688031215611adc57611adb6118fb565b5b6000611aea88828901611a73565b9550506020611afb88828901611921565b9450506040611b0c88828901611921565b9350506060611b1d88828901611aab565b9250506080611b2e88828901611921565b9150509295509295909350565b611b4481611983565b8114611b4f57600080fd5b50565b600081359050611b6181611b3b565b92915050565b600060208284031215611b7d57611b7c6118fb565b5b6000611b8b84828501611b52565b91505092915050565b600081519050919050565b600082825260208201905092915050565b6000819050602082019050919050565b611bc981611900565b82525050565b7f4e487b7100000000000000000000000000000000000000000000000000000000600052602160045260246000fd5b60038110611c0f57611c0e611bcf565b5b50565b6000819050611c2082611bfe565b919050565b6000611c3082611c12565b9050919050565b611c4081611c25565b82525050565b611c4f81611a88565b82525050565b61018082016000820151611c6c6000850182611bc0565b506020820151611c7f6020850182611c37565b506040820151611c926040850182611bc0565b506060820151611ca56060850182611bc0565b506080820151611cb86080850182611bc0565b5060a0820151611ccb60a0850182611bc0565b5060c0820151611cde60c0850182611bc0565b5060e0820151611cf160e0850182611c46565b50610100820151611d06610100850182611bc0565b50610120820151611d1b610120850182611c46565b50610140820151611d30610140850182611bc0565b50610160820151611d45610160850182611c46565b50505050565b6000611d578383611c55565b6101808301905092915050565b6000602082019050919050565b6000611d7c82611b94565b611d868185611b9f565b9350611d9183611bb0565b8060005b83811015611dc2578151611da98882611d4b565b9750611db483611d64565b925050600181019050611d95565b5085935050505092915050565b60006020820190508181036000830152611de98184611d71565b905092915050565b600080600060608486031215611e0a57611e096118fb565b5b6000611e1886828701611921565b9350506020611e2986828701611a73565b9250506040611e3a86828701611aab565b9150509250925092565b60008060408385031215611e5b57611e5a6118fb565b5b6000611e6985828601611b52565b9250506020611e7a85828601611921565b9150509250929050565b611e8d81611c25565b82525050565b611e9c81611a88565b82525050565b600061018082019050611eb8600083018f611a39565b611ec5602083018e611e84565b611ed2604083018d611a39565b611edf606083018c611a39565b611eec608083018b611a39565b611ef960a083018a611a39565b611f0660c0830189611a39565b611f1360e0830188611e93565b611f21610100830187611a39565b611f2f610120830186611e93565b611f3d610140830185611a39565b611f4b610160830184611e93565b9d9c50505050505050505050505050565b7f4e487b7100000000000000000000000000000000000000000000000000000000600052603260045260246000fd5b600082825260208201905092915050565b7f5374616b65206973207374696c6c206c6f636b65640000000000000000000000600082015250565b6000611fd2601583611f8b565b9150611fdd82611f9c565b602082019050919050565b6000602082019050818103600083015261200181611fc5565b9050919050565b7f4e487b7100000000000000000000000000000000000000000000000000000000600052601160045260246000fd5b600061204282611900565b915061204d83611900565b925082820261205b81611900565b9150828204841483151761207257612071612008565b5b5092915050565b600061208482611900565b915061208f83611900565b92508282019050808211156120a7576120a6612008565b5b92915050565b60006120b882611900565b91506120c383611900565b92508282039050818111156120db576120da612008565b5b92915050565b7f4e487b7100000000000000000000000000000000000000000000000000000000600052601260045260246000fd5b600061211b82611900565b915061212683611900565b925082612136576121356120e1565b5b828204905092915050565b6000815190506121508161190a565b92915050565b60006020828403121561216c5761216b6118fb565b5b600061217a84828501612141565b91505092915050565b7f4e6f7420656e6f75676820524c4f20666f7220466c657869626c65205969656c60008201527f6400000000000000000000000000000000000000000000000000000000000000602082015250565b60006121df602183611f8b565b91506121ea82612183565b604082019050919050565b6000602082019050818103600083015261220e816121d2565b9050919050565b600060408201905061222a6000830185611995565b6122376020830184611a39565b9392505050565b60008151905061224d81611a94565b92915050565b600060208284031215612269576122686118fb565b5b60006122778482850161223e565b91505092915050565b7f466c657869626c65205969656c6420746f2055736572206661696c6564000000600082015250565b60006122b6601d83611f8b565b91506122c182612280565b602082019050919050565b600060208201905081810360008301526122e5816122a9565b9050919050565b7f466c657869626c652053465320746f205472656173757279206661696c656400600082015250565b6000612322601f83611f8b565b915061232d826122ec565b602082019050919050565b6000602082019050818103600083015261235181612315565b9050919050565b7f524c4f207072696e636970616c2072657475726e206661696c65640000000000600082015250565b600061238e601b83611f8b565b915061239982612358565b602082019050919050565b600060208201905081810360008301526123bd81612381565b9050919050565b600081905092915050565b50565b60006123df6000836123c4565b91506123ea826123cf565b600082019050919050565b6000612400826123d2565b9150819050919050565b7f455448207072696e636970616c2072657475726e206661696c65640000000000600082015250565b6000612440601b83611f8b565b915061244b8261240a565b602082019050919050565b6000602082019050818103600083015261246f81612433565b9050919050565b600061248182611900565b91507fffffffffffffffffffffffffffffffffffffffffffffffffffffffffffffffff82036124b3576124b2612008565b5b600182019050919050565b7f416374697665207374616b65206e6f7420666f756e6400000000000000000000600082015250565b60006124f4601683611f8b565b91506124ff826124be565b602082019050919050565b60006020820190508181036000830152612523816124e7565b9050919050565b7f4d6178206c6f636b206973203438206d6f6e7468730000000000000000000000600082015250565b6000612560601583611f8b565b915061256b8261252a565b602082019050919050565b6000602082019050818103600083015261258f81612553565b9050919050565b7f534653204672616374696f6e2063616e6e6f7420657863656564203130302500600082015250565b60006125cc601f83611f8b565b91506125d782612596565b602082019050919050565b600060208201905081810360008301526125fb816125bf565b9050919050565b7f4d696e696d756d207374616b6520697320313020524c4f000000000000000000600082015250565b6000612638601783611f8b565b915061264382612602565b602082019050919050565b600060208201905081810360008301526126678161262b565b9050919050565b60006060820190506126836000830186611995565b6126906020830185611995565b61269d6040830184611a39565b949350505050565b7f524c4f205472616e73666572206661696c656400000000000000000000000000600082015250565b60006126db601383611f8b565b91506126e6826126a5565b602082019050919050565b6000602082019050818103600083015261270a816126ce565b9050919050565b7f45544820616d6f756e74206d757374206265203e203000000000000000000000600082015250565b6000612747601683611f8b565b915061275282612711565b602082019050919050565b600060208201905081810360008301526127768161273a565b9050919050565b7f4e6f7420656e6f75676820524c4f20696e20636f6e747261637420666f72205560008201527f7066726f6e74205969656c640000000000000000000000000000000000000000602082015250565b60006127d9602c83611f8b565b91506127e48261277d565b604082019050919050565b60006020820190508181036000830152612808816127cc565b9050919050565b7f4661696c656420746f207472616e73666572205969656c6420746f2055736572600082015250565b6000612845602083611f8b565b91506128508261280f565b602082019050919050565b6000602082019050818103600083015261287481612838565b9050919050565b7f4661696c656420746f207472616e736665722053465320746f2054726561737560008201527f7279000000000000000000000000000000000000000000000000000000000000602082015250565b60006128d7602283611f8b565b91506128e28261287b565b604082019050919050565b60006020820190508181036000830152612906816128ca565b9050919050565b60006060820190506129226000830186611a39565b61292f6020830185611a39565b61293c6040830184611a39565b94935050505056fea2646970667358221220ca47fda548b466230ab377a57c4ff9f37e5e3fb3013f64e2479a5431eba6848864736f6c63430008140033",
  "linkReferences": {},
  "deployedLinkReferences": {}
}