{
  "_format": "hh-sol-artifact-1",
  "contractName": "RwaStakingV5",
  "sourceName": "contracts/RwaStakingV5.sol",
  "abi": [
    {
      "inputs": [
        {
          "internalType": "address",
          "name": "_rlo",
          "type": "address"
        },
        {
          "internalType": "address",
          "name": "_usdc",
          "type": "address"
        }
      ],
      "stateMutability": "nonpayable",
      "type": "constructor"
    },
    {
      "inputs": [
        {
          "internalType": "address",
          "name": "owner",
          "type": "address"
        }
      ],
      "name": "OwnableInvalidOwner",
      "type": "error"
    },
    {
      "inputs": [
        {
          "internalType": "address",
          "name": "account",
          "type": "address"
        }
      ],
      "name": "OwnableUnauthorizedAccount",
      "type": "error"
    },
    {
      "anonymous": false,
      "inputs": [
        {
          "indexed": true,
          "internalType": "address",
          "name": "user",
          "type": "address"
        },
        {
          "indexed": false,
          "internalType": "uint256",
          "name": "amount",
          "type": "uint256"
        }
      ],
      "name": "CreditsEarned",
      "type": "event"
    },
    {
      "anonymous": false,
      "inputs": [
        {
          "indexed": true,
          "internalType": "address",
          "name": "previousOwner",
          "type": "address"
        },
        {
          "indexed": true,
          "internalType": "address",
          "name": "newOwner",
          "type": "address"
        }
      ],
      "name": "OwnershipTransferred",
      "type": "event"
    },
    {
      "inputs": [
        {
          "internalType": "uint256",
          "name": "_index",
          "type": "uint256"
        }
      ],
      "name": "claimReward",
      "outputs": [],
      "stateMutability": "nonpayable",
      "type": "function"
    },
    {
      "inputs": [
        {
          "internalType": "uint256",
          "name": "_amount",
          "type": "uint256"
        }
      ],
      "name": "depositRewardTokens",
      "outputs": [],
      "stateMutability": "nonpayable",
      "type": "function"
    },
    {
      "inputs": [],
      "name": "owner",
      "outputs": [
        {
          "internalType": "address",
          "name": "",
          "type": "address"
        }
      ],
      "stateMutability": "view",
      "type": "function"
    },
    {
      "inputs": [],
      "name": "renounceOwnership",
      "outputs": [],
      "stateMutability": "nonpayable",
      "type": "function"
    },
    {
      "inputs": [],
      "name": "rloToken",
      "outputs": [
        {
          "internalType": "contract IERC20",
          "name": "",
          "type": "address"
        }
      ],
      "stateMutability": "view",
      "type": "function"
    },
    {
      "inputs": [
        {
          "internalType": "uint256",
          "name": "_lockMonths",
          "type": "uint256"
        },
        {
          "internalType": "uint256",
          "name": "_expectedReward",
          "type": "uint256"
        },
        {
          "internalType": "uint256",
          "name": "_credits",
          "type": "uint256"
        }
      ],
      "name": "stakeEth",
      "outputs": [],
      "stateMutability": "payable",
      "type": "function"
    },
    {
      "inputs": [
        {
          "internalType": "uint256",
          "name": "_rloAmount",
          "type": "uint256"
        },
        {
          "internalType": "uint256",
          "name": "_lockMonths",
          "type": "uint256"
        },
        {
          "internalType": "uint256",
          "name": "_expectedReward",
          "type": "uint256"
        },
        {
          "internalType": "uint256",
          "name": "_credits",
          "type": "uint256"
        }
      ],
      "name": "stakePair",
      "outputs": [],
      "stateMutability": "payable",
      "type": "function"
    },
    {
      "inputs": [
        {
          "internalType": "uint256",
          "name": "_amount",
          "type": "uint256"
        },
        {
          "internalType": "uint256",
          "name": "_lockMonths",
          "type": "uint256"
        },
        {
          "internalType": "uint256",
          "name": "_expectedReward",
          "type": "uint256"
        },
        {
          "internalType": "uint256",
          "name": "_credits",
          "type": "uint256"
        }
      ],
      "name": "stakeRlo",
      "outputs": [],
      "stateMutability": "nonpayable",
      "type": "function"
    },
    {
      "inputs": [
        {
          "internalType": "address",
          "name": "newOwner",
          "type": "address"
        }
      ],
      "name": "transferOwnership",
      "outputs": [],
      "stateMutability": "nonpayable",
      "type": "function"
    },
    {
      "inputs": [],
      "name": "usdcToken",
      "outputs": [
        {
          "internalType": "contract IERC20",
          "name": "",
          "type": "address"
        }
      ],
      "stateMutability": "view",
      "type": "function"
    },
    {
      "inputs": [
        {
          "internalType": "address",
          "name": "",
          "type": "address"
        }
      ],
      "name": "userCredits",
      "outputs": [
        {
          "internalType": "uint256",
          "name": "",
          "type": "uint256"
        }
      ],
      "stateMutability": "view",
      "type": "function"
    },
    {
      "inputs": [
        {
          "internalType": "address",
          "name": "",
          "type": "address"
        },
        {
          "internalType": "uint256",
          "name": "",
          "type": "uint256"
        }
      ],
      "name": "userStakes",
      "outputs": [
        {
          "internalType": "uint256",
          "name": "amountRLO",
          "type": "uint256"
        },
        {
          "internalType": "uint256",
          "name": "amountETH",
          "type": "uint256"
        },
        {
          "internalType": "uint256",
          "name": "rewardUSDC",
          "type": "uint256"
        },
        {
          "internalType": "uint256",
          "name": "startTime",
          "type": "uint256"
        },
        {
          "internalType": "uint256",
          "name": "lockDuration",
          "type": "uint256"
        },
        {
          "internalType": "bool",
          "name": "claimed",
          "type": "bool"
        },
        {
          "internalType": "string",
          "name": "stakeType",
          "type": "string"
        }
      ],
      "stateMutability": "view",
      "type": "function"
    }
  ],
  "bytecode": "0x60806040523480156200001157600080fd5b5060405162001dd738038062001dd7833981810160405281019062000037919062000277565b33600073ffffffffffffffffffffffffffffffffffffffff168173ffffffffffffffffffffffffffffffffffffffff1603620000ad5760006040517f1e4fbdf7000000000000000000000000000000000000000000000000000000008152600401620000a49190620002cf565b60405180910390fd5b620000be816200014960201b60201c565b5081600160006101000a81548173ffffffffffffffffffffffffffffffffffffffff021916908373ffffffffffffffffffffffffffffffffffffffff16021790555080600260006101000a81548173ffffffffffffffffffffffffffffffffffffffff021916908373ffffffffffffffffffffffffffffffffffffffff1602179055505050620002ec565b60008060009054906101000a900473ffffffffffffffffffffffffffffffffffffffff169050816000806101000a81548173ffffffffffffffffffffffffffffffffffffffff021916908373ffffffffffffffffffffffffffffffffffffffff1602179055508173ffffffffffffffffffffffffffffffffffffffff168173ffffffffffffffffffffffffffffffffffffffff167f8be0079c531659141344cd1fd0a4f28419497f9722a3daafe3b4186f6b6457e060405160405180910390a35050565b600080fd5b600073ffffffffffffffffffffffffffffffffffffffff82169050919050565b60006200023f8262000212565b9050919050565b620002518162000232565b81146200025d57600080fd5b50565b600081519050620002718162000246565b92915050565b600080604083850312156200029157620002906200020d565b5b6000620002a18582860162000260565b9250506020620002b48582860162000260565b9150509250929050565b620002c98162000232565b82525050565b6000602082019050620002e66000830184620002be565b92915050565b611adb80620002fc6000396000f3fe6080604052600436106100a75760003560e01c80638da5cb5b116100645780638da5cb5b146101a8578063ae169a50146101d3578063b5d5b5fa146101fc578063ba42ed751461023f578063be455d191461025b578063f2fde38b14610277576100a7565b806311eac855146100ac57806316c621e0146100d757806320babb9214610100578063415410831461013d57806347b17d6814610166578063715018a614610191575b600080fd5b3480156100b857600080fd5b506100c16102a0565b6040516100ce9190610fee565b60405180910390f35b3480156100e357600080fd5b506100fe60048036038101906100f99190611044565b6102c6565b005b34801561010c57600080fd5b50610127600480360381019061012291906110af565b610374565b60405161013491906110eb565b60405180910390f35b34801561014957600080fd5b50610164600480360381019061015f9190611106565b61038c565b005b34801561017257600080fd5b5061017b610479565b6040516101889190610fee565b60405180910390f35b34801561019d57600080fd5b506101a661049f565b005b3480156101b457600080fd5b506101bd6104b3565b6040516101ca919061117c565b60405180910390f35b3480156101df57600080fd5b506101fa60048036038101906101f59190611044565b6104dc565b005b34801561020857600080fd5b50610223600480360381019061021e9190611197565b61078f565b6040516102369796959493929190611282565b60405180910390f35b61025960048036038101906102549190611106565b610883565b005b610275600480360381019061027091906112f8565b6109be565b005b34801561028357600080fd5b5061029e600480360381019061029991906110af565b610a4a565b005b600260009054906101000a900473ffffffffffffffffffffffffffffffffffffffff1681565b6102ce610ad0565b600260009054906101000a900473ffffffffffffffffffffffffffffffffffffffff1673ffffffffffffffffffffffffffffffffffffffff166323b872dd3330846040518463ffffffff1660e01b815260040161032d9392919061134b565b6020604051808303816000875af115801561034c573d6000803e3d6000fd5b505050506040513d601f19601f8201168201806040525081019061037091906113ae565b5050565b60036020528060005260406000206000915090505481565b600160009054906101000a900473ffffffffffffffffffffffffffffffffffffffff1673ffffffffffffffffffffffffffffffffffffffff166323b872dd3330876040518463ffffffff1660e01b81526004016103eb9392919061134b565b6020604051808303816000875af115801561040a573d6000803e3d6000fd5b505050506040513d601f19601f8201168201806040525081019061042e91906113ae565b506104738460008585856040518060400160405280600381526020017f726c6f0000000000000000000000000000000000000000000000000000000000815250610b57565b50505050565b600160009054906101000a900473ffffffffffffffffffffffffffffffffffffffff1681565b6104a7610ad0565b6104b16000610ea3565b565b60008060009054906101000a900473ffffffffffffffffffffffffffffffffffffffff16905090565b6000600460003373ffffffffffffffffffffffffffffffffffffffff1673ffffffffffffffffffffffffffffffffffffffff168152602001908152602001600020828154811061052f5761052e6113db565b5b906000526020600020906007020190508060050160009054906101000a900460ff1615610591576040517f08c379a000000000000000000000000000000000000000000000000000000000815260040161058890611456565b60405180910390fd5b806004015481600301546105a591906114a5565b4210156105e7576040517f08c379a00000000000000000000000000000000000000000000000000000000081526004016105de90611525565b60405180910390fd5b8060020154600260009054906101000a900473ffffffffffffffffffffffffffffffffffffffff1673ffffffffffffffffffffffffffffffffffffffff166370a08231306040518263ffffffff1660e01b8152600401610647919061117c565b602060405180830381865afa158015610664573d6000803e3d6000fd5b505050506040513d601f19601f82011682018060405250810190610688919061155a565b10156106c9576040517f08c379a00000000000000000000000000000000000000000000000000000000081526004016106c0906115d3565b60405180910390fd5b60018160050160006101000a81548160ff021916908315150217905550600260009054906101000a900473ffffffffffffffffffffffffffffffffffffffff1673ffffffffffffffffffffffffffffffffffffffff1663a9059cbb3383600201546040518363ffffffff1660e01b81526004016107479291906115f3565b6020604051808303816000875af1158015610766573d6000803e3d6000fd5b505050506040513d601f19601f8201168201806040525081019061078a91906113ae565b505050565b600460205281600052604060002081815481106107ab57600080fd5b9060005260206000209060070201600091509150508060000154908060010154908060020154908060030154908060040154908060050160009054906101000a900460ff16908060060180546108009061164b565b80601f016020809104026020016040519081016040528092919081815260200182805461082c9061164b565b80156108795780601f1061084e57610100808354040283529160200191610879565b820191906000526020600020905b81548152906001019060200180831161085c57829003601f168201915b5050505050905087565b6000841180156108935750600034115b6108d2576040517f08c379a00000000000000000000000000000000000000000000000000000000081526004016108c9906116c8565b60405180910390fd5b600160009054906101000a900473ffffffffffffffffffffffffffffffffffffffff1673ffffffffffffffffffffffffffffffffffffffff166323b872dd3330876040518463ffffffff1660e01b81526004016109319392919061134b565b6020604051808303816000875af1158015610950573d6000803e3d6000fd5b505050506040513d601f19601f8201168201806040525081019061097491906113ae565b506109b884348585856040518060400160405280600481526020017f7061697200000000000000000000000000000000000000000000000000000000815250610b57565b50505050565b60003411610a01576040517f08c379a00000000000000000000000000000000000000000000000000000000081526004016109f890611734565b60405180910390fd5b610a456000348585856040518060400160405280600381526020017f6574680000000000000000000000000000000000000000000000000000000000815250610b57565b505050565b610a52610ad0565b600073ffffffffffffffffffffffffffffffffffffffff168173ffffffffffffffffffffffffffffffffffffffff1603610ac45760006040517f1e4fbdf7000000000000000000000000000000000000000000000000000000008152600401610abb919061117c565b60405180910390fd5b610acd81610ea3565b50565b610ad8610f67565b73ffffffffffffffffffffffffffffffffffffffff16610af66104b3565b73ffffffffffffffffffffffffffffffffffffffff1614610b5557610b19610f67565b6040517f118cdaa7000000000000000000000000000000000000000000000000000000008152600401610b4c919061117c565b60405180910390fd5b565b82600260009054906101000a900473ffffffffffffffffffffffffffffffffffffffff1673ffffffffffffffffffffffffffffffffffffffff166370a08231306040518263ffffffff1660e01b8152600401610bb3919061117c565b602060405180830381865afa158015610bd0573d6000803e3d6000fd5b505050506040513d601f19601f82011682018060405250810190610bf4919061155a565b1015610c35576040517f08c379a0000000000000000000000000000000000000000000000000000000008152600401610c2c906117a0565b60405180910390fd5b6000831115610ce057600260009054906101000a900473ffffffffffffffffffffffffffffffffffffffff1673ffffffffffffffffffffffffffffffffffffffff1663a9059cbb33856040518363ffffffff1660e01b8152600401610c9b9291906115f3565b6020604051808303816000875af1158015610cba573d6000803e3d6000fd5b505050506040513d601f19601f82011682018060405250810190610cde91906113ae565b505b81600360003373ffffffffffffffffffffffffffffffffffffffff1673ffffffffffffffffffffffffffffffffffffffff1681526020019081526020016000206000828254610d2f91906114a5565b925050819055503373ffffffffffffffffffffffffffffffffffffffff167f7586d43a1b02ce3d561d32cda2c1ed06e6c377ece2e7825fdfc682a2b427b83d83604051610d7c91906110eb565b60405180910390a2600460003373ffffffffffffffffffffffffffffffffffffffff1673ffffffffffffffffffffffffffffffffffffffff1681526020019081526020016000206040518060e001604052808881526020018781526020016000815260200142815260200162278d0087610df691906117c0565b8152602001600115158152602001838152509080600181540180825580915050600190039060005260206000209060070201600090919091909150600082015181600001556020820151816001015560408201518160020155606082015181600301556080820151816004015560a08201518160050160006101000a81548160ff02191690831515021790555060c0820151816006019081610e9891906119d3565b505050505050505050565b60008060009054906101000a900473ffffffffffffffffffffffffffffffffffffffff169050816000806101000a81548173ffffffffffffffffffffffffffffffffffffffff021916908373ffffffffffffffffffffffffffffffffffffffff1602179055508173ffffffffffffffffffffffffffffffffffffffff168173ffffffffffffffffffffffffffffffffffffffff167f8be0079c531659141344cd1fd0a4f28419497f9722a3daafe3b4186f6b6457e060405160405180910390a35050565b600033905090565b600073ffffffffffffffffffffffffffffffffffffffff82169050919050565b6000819050919050565b6000610fb4610faf610faa84610f6f565b610f8f565b610f6f565b9050919050565b6000610fc682610f99565b9050919050565b6000610fd882610fbb565b9050919050565b610fe881610fcd565b82525050565b60006020820190506110036000830184610fdf565b92915050565b600080fd5b6000819050919050565b6110218161100e565b811461102c57600080fd5b50565b60008135905061103e81611018565b92915050565b60006020828403121561105a57611059611009565b5b60006110688482850161102f565b91505092915050565b600061107c82610f6f565b9050919050565b61108c81611071565b811461109757600080fd5b50565b6000813590506110a981611083565b92915050565b6000602082840312156110c5576110c4611009565b5b60006110d38482850161109a565b91505092915050565b6110e58161100e565b82525050565b600060208201905061110060008301846110dc565b92915050565b600080600080608085870312156111205761111f611009565b5b600061112e8782880161102f565b945050602061113f8782880161102f565b93505060406111508782880161102f565b92505060606111618782880161102f565b91505092959194509250565b61117681611071565b82525050565b6000602082019050611191600083018461116d565b92915050565b600080604083850312156111ae576111ad611009565b5b60006111bc8582860161109a565b92505060206111cd8582860161102f565b9150509250929050565b60008115159050919050565b6111ec816111d7565b82525050565b600081519050919050565b600082825260208201905092915050565b60005b8381101561122c578082015181840152602081019050611211565b60008484015250505050565b6000601f19601f8301169050919050565b6000611254826111f2565b61125e81856111fd565b935061126e81856020860161120e565b61127781611238565b840191505092915050565b600060e082019050611297600083018a6110dc565b6112a460208301896110dc565b6112b160408301886110dc565b6112be60608301876110dc565b6112cb60808301866110dc565b6112d860a08301856111e3565b81810360c08301526112ea8184611249565b905098975050505050505050565b60008060006060848603121561131157611310611009565b5b600061131f8682870161102f565b93505060206113308682870161102f565b92505060406113418682870161102f565b9150509250925092565b6000606082019050611360600083018661116d565b61136d602083018561116d565b61137a60408301846110dc565b949350505050565b61138b816111d7565b811461139657600080fd5b50565b6000815190506113a881611382565b92915050565b6000602082840312156113c4576113c3611009565b5b60006113d284828501611399565b91505092915050565b7f4e487b7100000000000000000000000000000000000000000000000000000000600052603260045260246000fd5b7f53756461682064696b6c61696d00000000000000000000000000000000000000600082015250565b6000611440600d836111fd565b915061144b8261140a565b602082019050919050565b6000602082019050818103600083015261146f81611433565b9050919050565b7f4e487b7100000000000000000000000000000000000000000000000000000000600052601160045260246000fd5b60006114b08261100e565b91506114bb8361100e565b92508282019050808211156114d3576114d2611476565b5b92915050565b7f42656c756d206d6174616e670000000000000000000000000000000000000000600082015250565b600061150f600c836111fd565b915061151a826114d9565b602082019050919050565b6000602082019050818103600083015261153e81611502565b9050919050565b60008151905061155481611018565b92915050565b6000602082840312156115705761156f611009565b5b600061157e84828501611545565b91505092915050565b7f53616c646f2055534443206b6f6e7472616b2068616269730000000000000000600082015250565b60006115bd6018836111fd565b91506115c882611587565b602082019050919050565b600060208201905081810360008301526115ec816115b0565b9050919050565b6000604082019050611608600083018561116d565b61161560208301846110dc565b9392505050565b7f4e487b7100000000000000000000000000000000000000000000000000000000600052602260045260246000fd5b6000600282049050600182168061166357607f821691505b6020821081036116765761167561161c565b5b50919050565b7f48617275732061646120524c4f2064616e204554480000000000000000000000600082015250565b60006116b26015836111fd565b91506116bd8261167c565b602082019050919050565b600060208201905081810360008301526116e1816116a5565b9050919050565b7f4b6972696d204554482d6e796120646f6e672042616e67000000000000000000600082015250565b600061171e6017836111fd565b9150611729826116e8565b602082019050919050565b6000602082019050818103600083015261174d81611711565b9050919050565b7f53616c646f2055534443206b6f6e7472616b20746964616b2063756b75700000600082015250565b600061178a601e836111fd565b915061179582611754565b602082019050919050565b600060208201905081810360008301526117b98161177d565b9050919050565b60006117cb8261100e565b91506117d68361100e565b92508282026117e48161100e565b915082820484148315176117fb576117fa611476565b5b5092915050565b7f4e487b7100000000000000000000000000000000000000000000000000000000600052604160045260246000fd5b60008190508160005260206000209050919050565b60006020601f8301049050919050565b600082821b905092915050565b6000600883026118937fffffffffffffffffffffffffffffffffffffffffffffffffffffffffffffffff82611856565b61189d8683611856565b95508019841693508086168417925050509392505050565b60006118d06118cb6118c68461100e565b610f8f565b61100e565b9050919050565b6000819050919050565b6118ea836118b5565b6118fe6118f6826118d7565b848454611863565b825550505050565b600090565b611913611906565b61191e8184846118e1565b505050565b5b818110156119425761193760008261190b565b600181019050611924565b5050565b601f8211156119875761195881611831565b61196184611846565b81016020851015611970578190505b61198461197c85611846565b830182611923565b50505b505050565b600082821c905092915050565b60006119aa6000198460080261198c565b1980831691505092915050565b60006119c38383611999565b9150826002028217905092915050565b6119dc826111f2565b67ffffffffffffffff8111156119f5576119f4611802565b5b6119ff825461164b565b611a0a828285611946565b600060209050601f831160018114611a3d5760008415611a2b578287015190505b611a3585826119b7565b865550611a9d565b601f198416611a4b86611831565b60005b82811015611a7357848901518255600182019150602085019450602081019050611a4e565b86831015611a905784890151611a8c601f891682611999565b8355505b6001600288020188555050505b50505050505056fea2646970667358221220bdc3b5e583abe0f8d12f7a1eb049fa44baf598f9bf4cc55e8482b7b9b4c69b2b64736f6c63430008140033",
  "linkReferences": {},
  "deployedLinkReferences": {}
}