{
  "_format": "hh-sol-artifact-1",
  "contractName": "UniFAIRStakingV3",
  "sourceName": "contracts/UniFAIRStakingV3.sol",
  "abi": [
    {
      "inputs": [
        {
          "internalType": "address",
          "name": "_rloToken",
          "type": "address"
        },
        {
          "internalType": "address",
          "name": "_stRloToken",
          "type": "address"
        }
      ],
      "stateMutability": "nonpayable",
      "type": "constructor"
    },
    {
      "inputs": [],
      "name": "rloToken",
      "outputs": [
        {
          "internalType": "contract IERC20",
          "name": "",
          "type": "address"
        }
      ],
      "stateMutability": "view",
      "type": "function"
    },
    {
      "inputs": [],
      "name": "stRloToken",
      "outputs": [
        {
          "internalType": "contract IstRLOToken",
          "name": "",
          "type": "address"
        }
      ],
      "stateMutability": "view",
      "type": "function"
    },
    {
      "inputs": [
        {
          "internalType": "uint256",
          "name": "lockMonths",
          "type": "uint256"
        },
        {
          "internalType": "uint256",
          "name": "expectedReward",
          "type": "uint256"
        }
      ],
      "name": "stakeEth",
      "outputs": [],
      "stateMutability": "payable",
      "type": "function"
    },
    {
      "inputs": [
        {
          "internalType": "uint256",
          "name": "amountRlo",
          "type": "uint256"
        },
        {
          "internalType": "uint256",
          "name": "lockMonths",
          "type": "uint256"
        },
        {
          "internalType": "uint256",
          "name": "expectedReward",
          "type": "uint256"
        }
      ],
      "name": "stakePair",
      "outputs": [],
      "stateMutability": "payable",
      "type": "function"
    },
    {
      "inputs": [
        {
          "internalType": "uint256",
          "name": "amount",
          "type": "uint256"
        },
        {
          "internalType": "uint256",
          "name": "lockMonths",
          "type": "uint256"
        },
        {
          "internalType": "uint256",
          "name": "expectedReward",
          "type": "uint256"
        }
      ],
      "name": "stakeRlo",
      "outputs": [],
      "stateMutability": "nonpayable",
      "type": "function"
    },
    {
      "inputs": [
        {
          "internalType": "address",
          "name": "",
          "type": "address"
        }
      ],
      "name": "stakes",
      "outputs": [
        {
          "internalType": "uint256",
          "name": "rloAmount",
          "type": "uint256"
        },
        {
          "internalType": "uint256",
          "name": "ethAmount",
          "type": "uint256"
        },
        {
          "internalType": "uint256",
          "name": "lockEndTime",
          "type": "uint256"
        },
        {
          "internalType": "uint256",
          "name": "stakeType",
          "type": "uint256"
        }
      ],
      "stateMutability": "view",
      "type": "function"
    }
  ],
  "bytecode": "0x608060405234801561001057600080fd5b5060405162000e8a38038062000e8a8339818101604052810190610034919061011f565b816000806101000a81548173ffffffffffffffffffffffffffffffffffffffff021916908373ffffffffffffffffffffffffffffffffffffffff16021790555080600160006101000a81548173ffffffffffffffffffffffffffffffffffffffff021916908373ffffffffffffffffffffffffffffffffffffffff160217905550505061015f565b600080fd5b600073ffffffffffffffffffffffffffffffffffffffff82169050919050565b60006100ec826100c1565b9050919050565b6100fc816100e1565b811461010757600080fd5b50565b600081519050610119816100f3565b92915050565b60008060408385031215610136576101356100bc565b5b60006101448582860161010a565b92505060206101558582860161010a565b9150509250929050565b610d1b806200016f6000396000f3fe6080604052600436106100555760003560e01c806316934fc41461005a578063274892e31461009a57806347b17d68146100c55780637319da24146100f0578063b91759c01461010c578063d344724814610135575b600080fd5b34801561006657600080fd5b50610081600480360381019061007c91906107f1565b610151565b6040516100919493929190610837565b60405180910390f35b3480156100a657600080fd5b506100af610181565b6040516100bc91906108db565b60405180910390f35b3480156100d157600080fd5b506100da6101a7565b6040516100e79190610917565b60405180910390f35b61010a6004803603810190610105919061095e565b6101cb565b005b34801561011857600080fd5b50610133600480360381019061012e919061099e565b610347565b005b61014f600480360381019061014a919061099e565b610565565b005b60026020528060005260406000206000915090508060000154908060010154908060020154908060030154905084565b600160009054906101000a900473ffffffffffffffffffffffffffffffffffffffff1681565b60008054906101000a900473ffffffffffffffffffffffffffffffffffffffff1681565b6000341161020e576040517f08c379a000000000000000000000000000000000000000000000000000000000815260040161020590610a4e565b60405180910390fd5b60405180608001604052806000815260200134815260200162278d00846102359190610a9d565b426102409190610adf565b81526020016002815250600260003373ffffffffffffffffffffffffffffffffffffffff1673ffffffffffffffffffffffffffffffffffffffff16815260200190815260200160002060008201518160000155602082015181600101556040820151816002015560608201518160030155905050600160009054906101000a900473ffffffffffffffffffffffffffffffffffffffff1673ffffffffffffffffffffffffffffffffffffffff166340c10f1933836040518363ffffffff1660e01b8152600401610311929190610b22565b600060405180830381600087803b15801561032b57600080fd5b505af115801561033f573d6000803e3d6000fd5b505050505050565b6000831161038a576040517f08c379a000000000000000000000000000000000000000000000000000000000815260040161038190610b97565b60405180910390fd5b60008054906101000a900473ffffffffffffffffffffffffffffffffffffffff1673ffffffffffffffffffffffffffffffffffffffff166323b872dd3330866040518463ffffffff1660e01b81526004016103e793929190610bb7565b6020604051808303816000875af1158015610406573d6000803e3d6000fd5b505050506040513d601f19601f8201168201806040525081019061042a9190610c26565b5060405180608001604052808481526020016000815260200162278d00846104529190610a9d565b4261045d9190610adf565b81526020016001815250600260003373ffffffffffffffffffffffffffffffffffffffff1673ffffffffffffffffffffffffffffffffffffffff16815260200190815260200160002060008201518160000155602082015181600101556040820151816002015560608201518160030155905050600160009054906101000a900473ffffffffffffffffffffffffffffffffffffffff1673ffffffffffffffffffffffffffffffffffffffff166340c10f1933836040518363ffffffff1660e01b815260040161052e929190610b22565b600060405180830381600087803b15801561054857600080fd5b505af115801561055c573d6000803e3d6000fd5b50505050505050565b6000831180156105755750600034115b6105b4576040517f08c379a00000000000000000000000000000000000000000000000000000000081526004016105ab90610cc5565b60405180910390fd5b60008054906101000a900473ffffffffffffffffffffffffffffffffffffffff1673ffffffffffffffffffffffffffffffffffffffff166323b872dd3330866040518463ffffffff1660e01b815260040161061193929190610bb7565b6020604051808303816000875af1158015610630573d6000803e3d6000fd5b505050506040513d601f19601f820116820180604052508101906106549190610c26565b50604051806080016040528084815260200134815260200162278d008461067b9190610a9d565b426106869190610adf565b81526020016003815250600260003373ffffffffffffffffffffffffffffffffffffffff1673ffffffffffffffffffffffffffffffffffffffff16815260200190815260200160002060008201518160000155602082015181600101556040820151816002015560608201518160030155905050600160009054906101000a900473ffffffffffffffffffffffffffffffffffffffff1673ffffffffffffffffffffffffffffffffffffffff166340c10f1933836040518363ffffffff1660e01b8152600401610757929190610b22565b600060405180830381600087803b15801561077157600080fd5b505af1158015610785573d6000803e3d6000fd5b50505050505050565b600080fd5b600073ffffffffffffffffffffffffffffffffffffffff82169050919050565b60006107be82610793565b9050919050565b6107ce816107b3565b81146107d957600080fd5b50565b6000813590506107eb816107c5565b92915050565b6000602082840312156108075761080661078e565b5b6000610815848285016107dc565b91505092915050565b6000819050919050565b6108318161081e565b82525050565b600060808201905061084c6000830187610828565b6108596020830186610828565b6108666040830185610828565b6108736060830184610828565b95945050505050565b6000819050919050565b60006108a161089c61089784610793565b61087c565b610793565b9050919050565b60006108b382610886565b9050919050565b60006108c5826108a8565b9050919050565b6108d5816108ba565b82525050565b60006020820190506108f060008301846108cc565b92915050565b6000610901826108a8565b9050919050565b610911816108f6565b82525050565b600060208201905061092c6000830184610908565b92915050565b61093b8161081e565b811461094657600080fd5b50565b60008135905061095881610932565b92915050565b600080604083850312156109755761097461078e565b5b600061098385828601610949565b925050602061099485828601610949565b9150509250929050565b6000806000606084860312156109b7576109b661078e565b5b60006109c586828701610949565b93505060206109d686828701610949565b92505060406109e786828701610949565b9150509250925092565b600082825260208201905092915050565b7f4861727573206b6972696d204554482042616e67210000000000000000000000600082015250565b6000610a386015836109f1565b9150610a4382610a02565b602082019050919050565b60006020820190508181036000830152610a6781610a2b565b9050919050565b7f4e487b7100000000000000000000000000000000000000000000000000000000600052601160045260246000fd5b6000610aa88261081e565b9150610ab38361081e565b9250828202610ac18161081e565b91508282048414831517610ad857610ad7610a6e565b5b5092915050565b6000610aea8261081e565b9150610af58361081e565b9250828201905080821115610b0d57610b0c610a6e565b5b92915050565b610b1c816107b3565b82525050565b6000604082019050610b376000830185610b13565b610b446020830184610828565b9392505050565b7f4a756d6c6168207374616b65206861727573203e203000000000000000000000600082015250565b6000610b816016836109f1565b9150610b8c82610b4b565b602082019050919050565b60006020820190508181036000830152610bb081610b74565b9050919050565b6000606082019050610bcc6000830186610b13565b610bd96020830185610b13565b610be66040830184610828565b949350505050565b60008115159050919050565b610c0381610bee565b8114610c0e57600080fd5b50565b600081519050610c2081610bfa565b92915050565b600060208284031215610c3c57610c3b61078e565b5b6000610c4a84828501610c11565b91505092915050565b7f4861727573207365746f7220524c4f2064616e204554482073656b616c69677560008201527f7321000000000000000000000000000000000000000000000000000000000000602082015250565b6000610caf6022836109f1565b9150610cba82610c53565b604082019050919050565b60006020820190508181036000830152610cde81610ca2565b905091905056fea2646970667358221220c9fc7357b21e27a7ae94418615456abbc852cde7301982012e2aa7d03c8e212664736f6c63430008140033",
  "linkReferences": {},
  "deployedLinkReferences": {}
}