{
  "_format": "hh-sol-artifact-1",
  "contractName": "RwaStakingV6",
  "sourceName": "contracts/RwaStakingV6.sol",
  "abi": [
    {
      "inputs": [
        {
          "internalType": "address",
          "name": "_rlo",
          "type": "address"
        },
        {
          "internalType": "address",
          "name": "_usdc",
          "type": "address"
        },
        {
          "internalType": "address",
          "name": "_stRlo",
          "type": "address"
        }
      ],
      "stateMutability": "nonpayable",
      "type": "constructor"
    },
    {
      "inputs": [
        {
          "internalType": "address",
          "name": "owner",
          "type": "address"
        }
      ],
      "name": "OwnableInvalidOwner",
      "type": "error"
    },
    {
      "inputs": [
        {
          "internalType": "address",
          "name": "account",
          "type": "address"
        }
      ],
      "name": "OwnableUnauthorizedAccount",
      "type": "error"
    },
    {
      "anonymous": false,
      "inputs": [
        {
          "indexed": true,
          "internalType": "address",
          "name": "user",
          "type": "address"
        },
        {
          "indexed": false,
          "internalType": "uint256",
          "name": "amount",
          "type": "uint256"
        }
      ],
      "name": "CreditsEarned",
      "type": "event"
    },
    {
      "anonymous": false,
      "inputs": [
        {
          "indexed": true,
          "internalType": "address",
          "name": "previousOwner",
          "type": "address"
        },
        {
          "indexed": true,
          "internalType": "address",
          "name": "newOwner",
          "type": "address"
        }
      ],
      "name": "OwnershipTransferred",
      "type": "event"
    },
    {
      "inputs": [],
      "name": "owner",
      "outputs": [
        {
          "internalType": "address",
          "name": "",
          "type": "address"
        }
      ],
      "stateMutability": "view",
      "type": "function"
    },
    {
      "inputs": [],
      "name": "renounceOwnership",
      "outputs": [],
      "stateMutability": "nonpayable",
      "type": "function"
    },
    {
      "inputs": [],
      "name": "rloToken",
      "outputs": [
        {
          "internalType": "contract IERC20",
          "name": "",
          "type": "address"
        }
      ],
      "stateMutability": "view",
      "type": "function"
    },
    {
      "inputs": [],
      "name": "stRloToken",
      "outputs": [
        {
          "internalType": "contract IERC20",
          "name": "",
          "type": "address"
        }
      ],
      "stateMutability": "view",
      "type": "function"
    },
    {
      "inputs": [
        {
          "internalType": "uint256",
          "name": "_lockMonths",
          "type": "uint256"
        },
        {
          "internalType": "uint256",
          "name": "_usdcReward",
          "type": "uint256"
        },
        {
          "internalType": "uint256",
          "name": "_stRloReward",
          "type": "uint256"
        },
        {
          "internalType": "uint256",
          "name": "_credits",
          "type": "uint256"
        }
      ],
      "name": "stakeEth",
      "outputs": [],
      "stateMutability": "payable",
      "type": "function"
    },
    {
      "inputs": [
        {
          "internalType": "uint256",
          "name": "_rloAmount",
          "type": "uint256"
        },
        {
          "internalType": "uint256",
          "name": "_lockMonths",
          "type": "uint256"
        },
        {
          "internalType": "uint256",
          "name": "_usdcReward",
          "type": "uint256"
        },
        {
          "internalType": "uint256",
          "name": "_stRloReward",
          "type": "uint256"
        },
        {
          "internalType": "uint256",
          "name": "_credits",
          "type": "uint256"
        }
      ],
      "name": "stakePair",
      "outputs": [],
      "stateMutability": "payable",
      "type": "function"
    },
    {
      "inputs": [
        {
          "internalType": "uint256",
          "name": "_amount",
          "type": "uint256"
        },
        {
          "internalType": "uint256",
          "name": "_lockMonths",
          "type": "uint256"
        },
        {
          "internalType": "uint256",
          "name": "_usdcReward",
          "type": "uint256"
        },
        {
          "internalType": "uint256",
          "name": "_stRloReward",
          "type": "uint256"
        },
        {
          "internalType": "uint256",
          "name": "_credits",
          "type": "uint256"
        }
      ],
      "name": "stakeRlo",
      "outputs": [],
      "stateMutability": "nonpayable",
      "type": "function"
    },
    {
      "inputs": [
        {
          "internalType": "address",
          "name": "newOwner",
          "type": "address"
        }
      ],
      "name": "transferOwnership",
      "outputs": [],
      "stateMutability": "nonpayable",
      "type": "function"
    },
    {
      "inputs": [],
      "name": "usdcToken",
      "outputs": [
        {
          "internalType": "contract IERC20",
          "name": "",
          "type": "address"
        }
      ],
      "stateMutability": "view",
      "type": "function"
    },
    {
      "inputs": [
        {
          "internalType": "address",
          "name": "",
          "type": "address"
        }
      ],
      "name": "userCredits",
      "outputs": [
        {
          "internalType": "uint256",
          "name": "",
          "type": "uint256"
        }
      ],
      "stateMutability": "view",
      "type": "function"
    },
    {
      "inputs": [
        {
          "internalType": "address",
          "name": "",
          "type": "address"
        },
        {
          "internalType": "uint256",
          "name": "",
          "type": "uint256"
        }
      ],
      "name": "userStakes",
      "outputs": [
        {
          "internalType": "uint256",
          "name": "amountRLO",
          "type": "uint256"
        },
        {
          "internalType": "uint256",
          "name": "amountETH",
          "type": "uint256"
        },
        {
          "internalType": "uint256",
          "name": "rewardUSDC",
          "type": "uint256"
        },
        {
          "internalType": "uint256",
          "name": "rewardSTRLO",
          "type": "uint256"
        },
        {
          "internalType": "uint256",
          "name": "startTime",
          "type": "uint256"
        },
        {
          "internalType": "uint256",
          "name": "lockDuration",
          "type": "uint256"
        },
        {
          "internalType": "bool",
          "name": "claimed",
          "type": "bool"
        },
        {
          "internalType": "string",
          "name": "stakeType",
          "type": "string"
        }
      ],
      "stateMutability": "view",
      "type": "function"
    }
  ],
  "bytecode": "0x60806040523480156200001157600080fd5b5060405162001b6d38038062001b6d8339818101604052810190620000379190620002b9565b33600073ffffffffffffffffffffffffffffffffffffffff168173ffffffffffffffffffffffffffffffffffffffff1603620000ad5760006040517f1e4fbdf7000000000000000000000000000000000000000000000000000000008152600401620000a4919062000326565b60405180910390fd5b620000be816200018b60201b60201c565b5082600160006101000a81548173ffffffffffffffffffffffffffffffffffffffff021916908373ffffffffffffffffffffffffffffffffffffffff16021790555081600260006101000a81548173ffffffffffffffffffffffffffffffffffffffff021916908373ffffffffffffffffffffffffffffffffffffffff16021790555080600360006101000a81548173ffffffffffffffffffffffffffffffffffffffff021916908373ffffffffffffffffffffffffffffffffffffffff16021790555050505062000343565b60008060009054906101000a900473ffffffffffffffffffffffffffffffffffffffff169050816000806101000a81548173ffffffffffffffffffffffffffffffffffffffff021916908373ffffffffffffffffffffffffffffffffffffffff1602179055508173ffffffffffffffffffffffffffffffffffffffff168173ffffffffffffffffffffffffffffffffffffffff167f8be0079c531659141344cd1fd0a4f28419497f9722a3daafe3b4186f6b6457e060405160405180910390a35050565b600080fd5b600073ffffffffffffffffffffffffffffffffffffffff82169050919050565b6000620002818262000254565b9050919050565b620002938162000274565b81146200029f57600080fd5b50565b600081519050620002b38162000288565b92915050565b600080600060608486031215620002d557620002d46200024f565b5b6000620002e586828701620002a2565b9350506020620002f886828701620002a2565b92505060406200030b86828701620002a2565b9150509250925092565b620003208162000274565b82525050565b60006020820190506200033d600083018462000315565b92915050565b61181a80620003536000396000f3fe60806040526004361061009c5760003560e01c80634a2afaf0116100645780634a2afaf01461017b578063715018a6146101975780638da5cb5b146101ae578063b10c6d78146101d9578063b5d5b5fa14610202578063f2fde38b146102465761009c565b806311eac855146100a1578063205ce1be146100cc57806320babb92146100e8578063274892e31461012557806347b17d6814610150575b600080fd5b3480156100ad57600080fd5b506100b661026f565b6040516100c39190610e2a565b60405180910390f35b6100e660048036038101906100e19190610e80565b610295565b005b3480156100f457600080fd5b5061010f600480360381019061010a9190610f25565b610323565b60405161011c9190610f61565b60405180910390f35b34801561013157600080fd5b5061013a61033b565b6040516101479190610e2a565b60405180910390f35b34801561015c57600080fd5b50610165610361565b6040516101729190610e2a565b60405180910390f35b61019560048036038101906101909190610f7c565b610387565b005b3480156101a357600080fd5b506101ac6104c4565b005b3480156101ba57600080fd5b506101c36104d8565b6040516101d09190611006565b60405180910390f35b3480156101e557600080fd5b5061020060048036038101906101fb9190610f7c565b610501565b005b34801561020e57600080fd5b5061022960048036038101906102249190611021565b6105f0565b60405161023d98979695949392919061110c565b60405180910390f35b34801561025257600080fd5b5061026d60048036038101906102689190610f25565b6106ea565b005b600260009054906101000a900473ffffffffffffffffffffffffffffffffffffffff1681565b600034116102d8576040517f08c379a00000000000000000000000000000000000000000000000000000000081526004016102cf906111dd565b60405180910390fd5b61031d600034868686866040518060400160405280600381526020017f6574680000000000000000000000000000000000000000000000000000000000815250610770565b50505050565b60046020528060005260406000206000915090505481565b600360009054906101000a900473ffffffffffffffffffffffffffffffffffffffff1681565b600160009054906101000a900473ffffffffffffffffffffffffffffffffffffffff1681565b6000851180156103975750600034115b6103d6576040517f08c379a00000000000000000000000000000000000000000000000000000000081526004016103cd90611249565b60405180910390fd5b600160009054906101000a900473ffffffffffffffffffffffffffffffffffffffff1673ffffffffffffffffffffffffffffffffffffffff166323b872dd3330886040518463ffffffff1660e01b815260040161043593929190611269565b6020604051808303816000875af1158015610454573d6000803e3d6000fd5b505050506040513d601f19601f8201168201806040525081019061047891906112cc565b506104bd8534868686866040518060400160405280600481526020017f7061697200000000000000000000000000000000000000000000000000000000815250610770565b5050505050565b6104cc610c58565b6104d66000610cdf565b565b60008060009054906101000a900473ffffffffffffffffffffffffffffffffffffffff16905090565b600160009054906101000a900473ffffffffffffffffffffffffffffffffffffffff1673ffffffffffffffffffffffffffffffffffffffff166323b872dd3330886040518463ffffffff1660e01b815260040161056093929190611269565b6020604051808303816000875af115801561057f573d6000803e3d6000fd5b505050506040513d601f19601f820116820180604052508101906105a391906112cc565b506105e9856000868686866040518060400160405280600381526020017f726c6f0000000000000000000000000000000000000000000000000000000000815250610770565b5050505050565b6005602052816000526040600020818154811061060c57600080fd5b9060005260206000209060080201600091509150508060000154908060010154908060020154908060030154908060040154908060050154908060060160009054906101000a900460ff169080600701805461066790611328565b80601f016020809104026020016040519081016040528092919081815260200182805461069390611328565b80156106e05780601f106106b5576101008083540402835291602001916106e0565b820191906000526020600020905b8154815290600101906020018083116106c357829003601f168201915b5050505050905088565b6106f2610c58565b600073ffffffffffffffffffffffffffffffffffffffff168173ffffffffffffffffffffffffffffffffffffffff16036107645760006040517f1e4fbdf700000000000000000000000000000000000000000000000000000000815260040161075b9190611006565b60405180910390fd5b61076d81610cdf565b50565b60008411156108f95783600260009054906101000a900473ffffffffffffffffffffffffffffffffffffffff1673ffffffffffffffffffffffffffffffffffffffff166370a08231306040518263ffffffff1660e01b81526004016107d59190611006565b602060405180830381865afa1580156107f2573d6000803e3d6000fd5b505050506040513d601f19601f82011682018060405250810190610816919061136e565b1015610857576040517f08c379a000000000000000000000000000000000000000000000000000000000815260040161084e906113e7565b60405180910390fd5b600260009054906101000a900473ffffffffffffffffffffffffffffffffffffffff1673ffffffffffffffffffffffffffffffffffffffff1663a9059cbb33866040518363ffffffff1660e01b81526004016108b4929190611407565b6020604051808303816000875af11580156108d3573d6000803e3d6000fd5b505050506040513d601f19601f820116820180604052508101906108f791906112cc565b505b6000831115610a825782600360009054906101000a900473ffffffffffffffffffffffffffffffffffffffff1673ffffffffffffffffffffffffffffffffffffffff166370a08231306040518263ffffffff1660e01b815260040161095e9190611006565b602060405180830381865afa15801561097b573d6000803e3d6000fd5b505050506040513d601f19601f8201168201806040525081019061099f919061136e565b10156109e0576040517f08c379a00000000000000000000000000000000000000000000000000000000081526004016109d79061147c565b60405180910390fd5b600360009054906101000a900473ffffffffffffffffffffffffffffffffffffffff1673ffffffffffffffffffffffffffffffffffffffff1663a9059cbb33856040518363ffffffff1660e01b8152600401610a3d929190611407565b6020604051808303816000875af1158015610a5c573d6000803e3d6000fd5b505050506040513d601f19601f82011682018060405250810190610a8091906112cc565b505b81600460003373ffffffffffffffffffffffffffffffffffffffff1673ffffffffffffffffffffffffffffffffffffffff1681526020019081526020016000206000828254610ad191906114cb565b925050819055503373ffffffffffffffffffffffffffffffffffffffff167f7586d43a1b02ce3d561d32cda2c1ed06e6c377ece2e7825fdfc682a2b427b83d83604051610b1e9190610f61565b60405180910390a2600560003373ffffffffffffffffffffffffffffffffffffffff1673ffffffffffffffffffffffffffffffffffffffff168152602001908152602001600020604051806101000160405280898152602001888152602001600081526020016000815260200142815260200162278d0088610ba091906114ff565b8152602001600115158152602001838152509080600181540180825580915050600190039060005260206000209060080201600090919091909150600082015181600001556020820151816001015560408201518160020155606082015181600301556080820151816004015560a0820151816005015560c08201518160060160006101000a81548160ff02191690831515021790555060e0820151816007019081610c4c9190611712565b50505050505050505050565b610c60610da3565b73ffffffffffffffffffffffffffffffffffffffff16610c7e6104d8565b73ffffffffffffffffffffffffffffffffffffffff1614610cdd57610ca1610da3565b6040517f118cdaa7000000000000000000000000000000000000000000000000000000008152600401610cd49190611006565b60405180910390fd5b565b60008060009054906101000a900473ffffffffffffffffffffffffffffffffffffffff169050816000806101000a81548173ffffffffffffffffffffffffffffffffffffffff021916908373ffffffffffffffffffffffffffffffffffffffff1602179055508173ffffffffffffffffffffffffffffffffffffffff168173ffffffffffffffffffffffffffffffffffffffff167f8be0079c531659141344cd1fd0a4f28419497f9722a3daafe3b4186f6b6457e060405160405180910390a35050565b600033905090565b600073ffffffffffffffffffffffffffffffffffffffff82169050919050565b6000819050919050565b6000610df0610deb610de684610dab565b610dcb565b610dab565b9050919050565b6000610e0282610dd5565b9050919050565b6000610e1482610df7565b9050919050565b610e2481610e09565b82525050565b6000602082019050610e3f6000830184610e1b565b92915050565b600080fd5b6000819050919050565b610e5d81610e4a565b8114610e6857600080fd5b50565b600081359050610e7a81610e54565b92915050565b60008060008060808587031215610e9a57610e99610e45565b5b6000610ea887828801610e6b565b9450506020610eb987828801610e6b565b9350506040610eca87828801610e6b565b9250506060610edb87828801610e6b565b91505092959194509250565b6000610ef282610dab565b9050919050565b610f0281610ee7565b8114610f0d57600080fd5b50565b600081359050610f1f81610ef9565b92915050565b600060208284031215610f3b57610f3a610e45565b5b6000610f4984828501610f10565b91505092915050565b610f5b81610e4a565b82525050565b6000602082019050610f766000830184610f52565b92915050565b600080600080600060a08688031215610f9857610f97610e45565b5b6000610fa688828901610e6b565b9550506020610fb788828901610e6b565b9450506040610fc888828901610e6b565b9350506060610fd988828901610e6b565b9250506080610fea88828901610e6b565b9150509295509295909350565b61100081610ee7565b82525050565b600060208201905061101b6000830184610ff7565b92915050565b6000806040838503121561103857611037610e45565b5b600061104685828601610f10565b925050602061105785828601610e6b565b9150509250929050565b60008115159050919050565b61107681611061565b82525050565b600081519050919050565b600082825260208201905092915050565b60005b838110156110b657808201518184015260208101905061109b565b60008484015250505050565b6000601f19601f8301169050919050565b60006110de8261107c565b6110e88185611087565b93506110f8818560208601611098565b611101816110c2565b840191505092915050565b600061010082019050611122600083018b610f52565b61112f602083018a610f52565b61113c6040830189610f52565b6111496060830188610f52565b6111566080830187610f52565b61116360a0830186610f52565b61117060c083018561106d565b81810360e083015261118281846110d3565b90509998505050505050505050565b7f4b6972696d204554480000000000000000000000000000000000000000000000600082015250565b60006111c7600983611087565b91506111d282611191565b602082019050919050565b600060208201905081810360008301526111f6816111ba565b9050919050565b7f48617275732061646120524c4f2064616e204554480000000000000000000000600082015250565b6000611233601583611087565b915061123e826111fd565b602082019050919050565b6000602082019050818103600083015261126281611226565b9050919050565b600060608201905061127e6000830186610ff7565b61128b6020830185610ff7565b6112986040830184610f52565b949350505050565b6112a981611061565b81146112b457600080fd5b50565b6000815190506112c6816112a0565b92915050565b6000602082840312156112e2576112e1610e45565b5b60006112f0848285016112b7565b91505092915050565b7f4e487b7100000000000000000000000000000000000000000000000000000000600052602260045260246000fd5b6000600282049050600182168061134057607f821691505b602082108103611353576113526112f9565b5b50919050565b60008151905061136881610e54565b92915050565b60006020828403121561138457611383610e45565b5b600061139284828501611359565b91505092915050565b7f53616c646f2055534443206b6f6e7472616b206b7572616e6700000000000000600082015250565b60006113d1601983611087565b91506113dc8261139b565b602082019050919050565b60006020820190508181036000830152611400816113c4565b9050919050565b600060408201905061141c6000830185610ff7565b6114296020830184610f52565b9392505050565b7f53616c646f207374524c4f206b6f6e7472616b206b7572616e67000000000000600082015250565b6000611466601a83611087565b915061147182611430565b602082019050919050565b6000602082019050818103600083015261149581611459565b9050919050565b7f4e487b7100000000000000000000000000000000000000000000000000000000600052601160045260246000fd5b60006114d682610e4a565b91506114e183610e4a565b92508282019050808211156114f9576114f861149c565b5b92915050565b600061150a82610e4a565b915061151583610e4a565b925082820261152381610e4a565b9150828204841483151761153a5761153961149c565b5b5092915050565b7f4e487b7100000000000000000000000000000000000000000000000000000000600052604160045260246000fd5b60008190508160005260206000209050919050565b60006020601f8301049050919050565b600082821b905092915050565b6000600883026115d27fffffffffffffffffffffffffffffffffffffffffffffffffffffffffffffffff82611595565b6115dc8683611595565b95508019841693508086168417925050509392505050565b600061160f61160a61160584610e4a565b610dcb565b610e4a565b9050919050565b6000819050919050565b611629836115f4565b61163d61163582611616565b8484546115a2565b825550505050565b600090565b611652611645565b61165d818484611620565b505050565b5b818110156116815761167660008261164a565b600181019050611663565b5050565b601f8211156116c65761169781611570565b6116a084611585565b810160208510156116af578190505b6116c36116bb85611585565b830182611662565b50505b505050565b600082821c905092915050565b60006116e9600019846008026116cb565b1980831691505092915050565b600061170283836116d8565b9150826002028217905092915050565b61171b8261107c565b67ffffffffffffffff81111561173457611733611541565b5b61173e8254611328565b611749828285611685565b600060209050601f83116001811461177c576000841561176a578287015190505b61177485826116f6565b8655506117dc565b601f19841661178a86611570565b60005b828110156117b25784890151825560018201915060208501945060208101905061178d565b868310156117cf57848901516117cb601f8916826116d8565b8355505b6001600288020188555050505b50505050505056fea2646970667358221220de78faadc9b1750611e72dba08ec77919cd9d355bfac0aaedc4865989a8727bc64736f6c63430008140033",
  "linkReferences": {},
  "deployedLinkReferences": {}
}