{
  "_format": "hh-sol-artifact-1",
  "contractName": "Staking",
  "sourceName": "contracts/Staking.sol",
  "abi": [
    {
      "inputs": [
        {
          "internalType": "address",
          "name": "_stakingToken",
          "type": "address"
        }
      ],
      "stateMutability": "nonpayable",
      "type": "constructor"
    },
    {
      "inputs": [
        {
          "internalType": "address",
          "name": "owner",
          "type": "address"
        }
      ],
      "name": "OwnableInvalidOwner",
      "type": "error"
    },
    {
      "inputs": [
        {
          "internalType": "address",
          "name": "account",
          "type": "address"
        }
      ],
      "name": "OwnableUnauthorizedAccount",
      "type": "error"
    },
    {
      "inputs": [],
      "name": "ReentrancyGuardReentrantCall",
      "type": "error"
    },
    {
      "anonymous": false,
      "inputs": [
        {
          "indexed": true,
          "internalType": "address",
          "name": "previousOwner",
          "type": "address"
        },
        {
          "indexed": true,
          "internalType": "address",
          "name": "newOwner",
          "type": "address"
        }
      ],
      "name": "OwnershipTransferred",
      "type": "event"
    },
    {
      "anonymous": false,
      "inputs": [
        {
          "indexed": true,
          "internalType": "address",
          "name": "user",
          "type": "address"
        },
        {
          "indexed": false,
          "internalType": "uint256",
          "name": "walletAmount",
          "type": "uint256"
        },
        {
          "indexed": false,
          "internalType": "uint256",
          "name": "sfsAmount",
          "type": "uint256"
        },
        {
          "indexed": false,
          "internalType": "uint256",
          "name": "rwaAmount",
          "type": "uint256"
        }
      ],
      "name": "RewardClaimed",
      "type": "event"
    },
    {
      "anonymous": false,
      "inputs": [
        {
          "indexed": true,
          "internalType": "address",
          "name": "user",
          "type": "address"
        },
        {
          "indexed": false,
          "internalType": "uint256",
          "name": "percentage",
          "type": "uint256"
        },
        {
          "indexed": false,
          "internalType": "string",
          "name": "target",
          "type": "string"
        }
      ],
      "name": "RwaAllocationUpdated",
      "type": "event"
    },
    {
      "anonymous": false,
      "inputs": [
        {
          "indexed": true,
          "internalType": "address",
          "name": "user",
          "type": "address"
        },
        {
          "indexed": false,
          "internalType": "uint256",
          "name": "newFraction",
          "type": "uint256"
        }
      ],
      "name": "SfsFractionUpdated",
      "type": "event"
    },
    {
      "anonymous": false,
      "inputs": [
        {
          "indexed": true,
          "internalType": "address",
          "name": "user",
          "type": "address"
        },
        {
          "indexed": true,
          "internalType": "address",
          "name": "destination",
          "type": "address"
        },
        {
          "indexed": false,
          "internalType": "uint256",
          "name": "amount",
          "type": "uint256"
        }
      ],
      "name": "SponsorshipPathAdded",
      "type": "event"
    },
    {
      "anonymous": false,
      "inputs": [
        {
          "indexed": true,
          "internalType": "address",
          "name": "user",
          "type": "address"
        },
        {
          "indexed": false,
          "internalType": "uint256",
          "name": "amount",
          "type": "uint256"
        },
        {
          "indexed": false,
          "internalType": "uint256",
          "name": "lockEnd",
          "type": "uint256"
        }
      ],
      "name": "StakedETH",
      "type": "event"
    },
    {
      "anonymous": false,
      "inputs": [
        {
          "indexed": true,
          "internalType": "address",
          "name": "user",
          "type": "address"
        },
        {
          "indexed": false,
          "internalType": "uint256",
          "name": "rloAmount",
          "type": "uint256"
        },
        {
          "indexed": false,
          "internalType": "uint256",
          "name": "ethAmount",
          "type": "uint256"
        },
        {
          "indexed": false,
          "internalType": "uint256",
          "name": "lockEnd",
          "type": "uint256"
        }
      ],
      "name": "StakedPair",
      "type": "event"
    },
    {
      "anonymous": false,
      "inputs": [
        {
          "indexed": true,
          "internalType": "address",
          "name": "user",
          "type": "address"
        },
        {
          "indexed": false,
          "internalType": "uint256",
          "name": "amount",
          "type": "uint256"
        },
        {
          "indexed": false,
          "internalType": "uint256",
          "name": "lockEnd",
          "type": "uint256"
        }
      ],
      "name": "StakedRLO",
      "type": "event"
    },
    {
      "anonymous": false,
      "inputs": [
        {
          "indexed": true,
          "internalType": "address",
          "name": "user",
          "type": "address"
        },
        {
          "indexed": false,
          "internalType": "uint256",
          "name": "amount",
          "type": "uint256"
        }
      ],
      "name": "WithdrawnETH",
      "type": "event"
    },
    {
      "anonymous": false,
      "inputs": [
        {
          "indexed": true,
          "internalType": "address",
          "name": "user",
          "type": "address"
        },
        {
          "indexed": false,
          "internalType": "uint256",
          "name": "rloAmount",
          "type": "uint256"
        },
        {
          "indexed": false,
          "internalType": "uint256",
          "name": "ethAmount",
          "type": "uint256"
        }
      ],
      "name": "WithdrawnPair",
      "type": "event"
    },
    {
      "anonymous": false,
      "inputs": [
        {
          "indexed": true,
          "internalType": "address",
          "name": "user",
          "type": "address"
        },
        {
          "indexed": false,
          "internalType": "uint256",
          "name": "amount",
          "type": "uint256"
        }
      ],
      "name": "WithdrawnRLO",
      "type": "event"
    },
    {
      "inputs": [
        {
          "internalType": "address",
          "name": "destination",
          "type": "address"
        },
        {
          "internalType": "uint256",
          "name": "amount",
          "type": "uint256"
        }
      ],
      "name": "addSponsorshipPath",
      "outputs": [],
      "stateMutability": "nonpayable",
      "type": "function"
    },
    {
      "inputs": [
        {
          "internalType": "address",
          "name": "user",
          "type": "address"
        }
      ],
      "name": "calculateRewards",
      "outputs": [
        {
          "internalType": "uint256",
          "name": "",
          "type": "uint256"
        }
      ],
      "stateMutability": "view",
      "type": "function"
    },
    {
      "inputs": [],
      "name": "claimRewards",
      "outputs": [],
      "stateMutability": "nonpayable",
      "type": "function"
    },
    {
      "inputs": [
        {
          "internalType": "address",
          "name": "user",
          "type": "address"
        }
      ],
      "name": "getSponsorshipPaths",
      "outputs": [
        {
          "components": [
            {
              "internalType": "address",
              "name": "destination",
              "type": "address"
            },
            {
              "internalType": "uint256",
              "name": "amount",
              "type": "uint256"
            }
          ],
          "internalType": "struct Staking.SponsorshipPath[]",
          "name": "",
          "type": "tuple[]"
        }
      ],
      "stateMutability": "view",
      "type": "function"
    },
    {
      "inputs": [],
      "name": "minStakeRlo",
      "outputs": [
        {
          "internalType": "uint256",
          "name": "",
          "type": "uint256"
        }
      ],
      "stateMutability": "view",
      "type": "function"
    },
    {
      "inputs": [],
      "name": "owner",
      "outputs": [
        {
          "internalType": "address",
          "name": "",
          "type": "address"
        }
      ],
      "stateMutability": "view",
      "type": "function"
    },
    {
      "inputs": [],
      "name": "renounceOwnership",
      "outputs": [],
      "stateMutability": "nonpayable",
      "type": "function"
    },
    {
      "inputs": [],
      "name": "rewardRate",
      "outputs": [
        {
          "internalType": "uint256",
          "name": "",
          "type": "uint256"
        }
      ],
      "stateMutability": "view",
      "type": "function"
    },
    {
      "inputs": [],
      "name": "servicePaymaster",
      "outputs": [
        {
          "internalType": "address",
          "name": "",
          "type": "address"
        }
      ],
      "stateMutability": "view",
      "type": "function"
    },
    {
      "inputs": [
        {
          "internalType": "string",
          "name": "target",
          "type": "string"
        },
        {
          "internalType": "uint256",
          "name": "percentage",
          "type": "uint256"
        }
      ],
      "name": "setRwaAllocation",
      "outputs": [],
      "stateMutability": "nonpayable",
      "type": "function"
    },
    {
      "inputs": [
        {
          "internalType": "address",
          "name": "_paymaster",
          "type": "address"
        }
      ],
      "name": "setServicePaymaster",
      "outputs": [],
      "stateMutability": "nonpayable",
      "type": "function"
    },
    {
      "inputs": [
        {
          "internalType": "uint256",
          "name": "fraction",
          "type": "uint256"
        }
      ],
      "name": "setSfsFraction",
      "outputs": [],
      "stateMutability": "nonpayable",
      "type": "function"
    },
    {
      "inputs": [
        {
          "internalType": "uint256",
          "name": "amount",
          "type": "uint256"
        },
        {
          "internalType": "uint256",
          "name": "lockMonths",
          "type": "uint256"
        }
      ],
      "name": "stake",
      "outputs": [],
      "stateMutability": "nonpayable",
      "type": "function"
    },
    {
      "inputs": [
        {
          "internalType": "uint256",
          "name": "lockMonths",
          "type": "uint256"
        }
      ],
      "name": "stakeEth",
      "outputs": [],
      "stateMutability": "payable",
      "type": "function"
    },
    {
      "inputs": [
        {
          "internalType": "uint256",
          "name": "rloAmount",
          "type": "uint256"
        },
        {
          "internalType": "uint256",
          "name": "lockMonths",
          "type": "uint256"
        }
      ],
      "name": "stakePair",
      "outputs": [],
      "stateMutability": "payable",
      "type": "function"
    },
    {
      "inputs": [
        {
          "internalType": "address",
          "name": "",
          "type": "address"
        }
      ],
      "name": "stakes",
      "outputs": [
        {
          "internalType": "uint256",
          "name": "rloAmount",
          "type": "uint256"
        },
        {
          "internalType": "uint256",
          "name": "ethAmount",
          "type": "uint256"
        },
        {
          "internalType": "uint256",
          "name": "lastUpdate",
          "type": "uint256"
        },
        {
          "internalType": "uint256",
          "name": "lockEnd",
          "type": "uint256"
        },
        {
          "internalType": "uint256",
          "name": "rewardsAccumulated",
          "type": "uint256"
        },
        {
          "internalType": "uint256",
          "name": "sfsFraction",
          "type": "uint256"
        },
        {
          "internalType": "uint256",
          "name": "rwaAllocation",
          "type": "uint256"
        },
        {
          "internalType": "string",
          "name": "rwaTarget",
          "type": "string"
        }
      ],
      "stateMutability": "view",
      "type": "function"
    },
    {
      "inputs": [],
      "name": "stakingToken",
      "outputs": [
        {
          "internalType": "contract IERC20",
          "name": "",
          "type": "address"
        }
      ],
      "stateMutability": "view",
      "type": "function"
    },
    {
      "inputs": [],
      "name": "totalStakedEth",
      "outputs": [
        {
          "internalType": "uint256",
          "name": "",
          "type": "uint256"
        }
      ],
      "stateMutability": "view",
      "type": "function"
    },
    {
      "inputs": [],
      "name": "totalStakedRlo",
      "outputs": [
        {
          "internalType": "uint256",
          "name": "",
          "type": "uint256"
        }
      ],
      "stateMutability": "view",
      "type": "function"
    },
    {
      "inputs": [
        {
          "internalType": "address",
          "name": "newOwner",
          "type": "address"
        }
      ],
      "name": "transferOwnership",
      "outputs": [],
      "stateMutability": "nonpayable",
      "type": "function"
    },
    {
      "inputs": [
        {
          "internalType": "address",
          "name": "",
          "type": "address"
        },
        {
          "internalType": "uint256",
          "name": "",
          "type": "uint256"
        }
      ],
      "name": "userSponsorshipPaths",
      "outputs": [
        {
          "internalType": "address",
          "name": "destination",
          "type": "address"
        },
        {
          "internalType": "uint256",
          "name": "amount",
          "type": "uint256"
        }
      ],
      "stateMutability": "view",
      "type": "function"
    },
    {
      "inputs": [],
      "name": "withdraw",
      "outputs": [],
      "stateMutability": "nonpayable",
      "type": "function"
    },
    {
      "inputs": [
        {
          "internalType": "uint256",
          "name": "rloAmt",
          "type": "uint256"
        },
        {
          "internalType": "uint256",
          "name": "ethAmt",
          "type": "uint256"
        }
      ],
      "name": "withdrawAmount",
      "outputs": [],
      "stateMutability": "nonpayable",
      "type": "function"
    },
    {
      "stateMutability": "payable",
      "type": "receive"
    }
  ],
  "bytecode": "0x608060405260b8600355678ac7230489e800006009553480156200002257600080fd5b506040516200373d3803806200373d83398181016040528101906200004891906200028e565b33600073ffffffffffffffffffffffffffffffffffffffff168173ffffffffffffffffffffffffffffffffffffffff1603620000be5760006040517f1e4fbdf7000000000000000000000000000000000000000000000000000000008152600401620000b59190620002d1565b60405180910390fd5b620000cf816200016060201b60201c565b506001808190555080600260006101000a81548173ffffffffffffffffffffffffffffffffffffffff021916908373ffffffffffffffffffffffffffffffffffffffff16021790555033600860006101000a81548173ffffffffffffffffffffffffffffffffffffffff021916908373ffffffffffffffffffffffffffffffffffffffff16021790555050620002ee565b60008060009054906101000a900473ffffffffffffffffffffffffffffffffffffffff169050816000806101000a81548173ffffffffffffffffffffffffffffffffffffffff021916908373ffffffffffffffffffffffffffffffffffffffff1602179055508173ffffffffffffffffffffffffffffffffffffffff168173ffffffffffffffffffffffffffffffffffffffff167f8be0079c531659141344cd1fd0a4f28419497f9722a3daafe3b4186f6b6457e060405160405180910390a35050565b600080fd5b600073ffffffffffffffffffffffffffffffffffffffff82169050919050565b6000620002568262000229565b9050919050565b620002688162000249565b81146200027457600080fd5b50565b60008151905062000288816200025d565b92915050565b600060208284031215620002a757620002a662000224565b5b6000620002b78482850162000277565b91505092915050565b620002cb8162000249565b82525050565b6000602082019050620002e86000830184620002c0565b92915050565b61343f80620002fe6000396000f3fe6080604052600436106101445760003560e01c80636c370e2e116100b657806396db582a1161006f57806396db582a14610422578063af9074f41461043e578063d6f66ae614610467578063e6034b7114610483578063e8306304146104ae578063f2fde38b146104ec5761014b565b80636c370e2e14610338578063715018a61461036157806372f702f3146103785780637b0472f0146103a35780637b0a47ee146103cc5780638da5cb5b146103f75761014b565b80633ccfd60b116101085780633ccfd60b1461023e578063436bb199146102555780634fe5f0e01461027e578063504cdacf146102a75780635e997c07146102d257806364ab8675146102fb5761014b565b806304fe754c146101505780630620f7471461017b57806316934fc4146101b85780631cb628cd146101fc578063372500ab146102275761014b565b3661014b57005b600080fd5b34801561015c57600080fd5b50610165610515565b6040516101729190612422565b60405180910390f35b34801561018757600080fd5b506101a2600480360381019061019d91906124a5565b61051b565b6040516101af91906125ce565b60405180910390f35b3480156101c457600080fd5b506101df60048036038101906101da91906124a5565b610619565b6040516101f3989796959493929190612680565b60405180910390f35b34801561020857600080fd5b506102116106e9565b60405161021e9190612422565b60405180910390f35b34801561023357600080fd5b5061023c6106ef565b005b34801561024a57600080fd5b50610253610b76565b005b34801561026157600080fd5b5061027c60048036038101906102779190612731565b610f68565b005b34801561028a57600080fd5b506102a560048036038101906102a09190612771565b6113aa565b005b3480156102b357600080fd5b506102bc6114f9565b6040516102c99190612422565b60405180910390f35b3480156102de57600080fd5b506102f960048036038101906102f491906124a5565b6114ff565b005b34801561030757600080fd5b50610322600480360381019061031d91906124a5565b61154b565b60405161032f9190612422565b60405180910390f35b34801561034457600080fd5b5061035f600480360381019061035a9190612816565b61171f565b005b34801561036d57600080fd5b5061037661185d565b005b34801561038457600080fd5b5061038d611871565b60405161039a91906128d5565b60405180910390f35b3480156103af57600080fd5b506103ca60048036038101906103c59190612731565b611897565b005b3480156103d857600080fd5b506103e1611b00565b6040516103ee9190612422565b60405180910390f35b34801561040357600080fd5b5061040c611b06565b60405161041991906128ff565b60405180910390f35b61043c6004803603810190610437919061291a565b611b2f565b005b34801561044a57600080fd5b506104656004803603810190610460919061291a565b611cf2565b005b610481600480360381019061047c9190612731565b611dd8565b005b34801561048f57600080fd5b506104986120c1565b6040516104a591906128ff565b60405180910390f35b3480156104ba57600080fd5b506104d560048036038101906104d09190612771565b6120e7565b6040516104e3929190612947565b60405180910390f35b3480156104f857600080fd5b50610513600480360381019061050e91906124a5565b612148565b005b60065481565b6060600560008373ffffffffffffffffffffffffffffffffffffffff1673ffffffffffffffffffffffffffffffffffffffff168152602001908152602001600020805480602002602001604051908101604052809291908181526020016000905b8282101561060e57838290600052602060002090600202016040518060400160405290816000820160009054906101000a900473ffffffffffffffffffffffffffffffffffffffff1673ffffffffffffffffffffffffffffffffffffffff1673ffffffffffffffffffffffffffffffffffffffff1681526020016001820154815250508152602001906001019061057c565b505050509050919050565b60046020528060005260406000206000915090508060000154908060010154908060020154908060030154908060040154908060050154908060060154908060070180546106669061299f565b80601f01602080910402602001604051908101604052809291908181526020018280546106929061299f565b80156106df5780601f106106b4576101008083540402835291602001916106df565b820191906000526020600020905b8154815290600101906020018083116106c257829003601f168201915b5050505050905088565b60095481565b6106f76121ce565b60006107023361154b565b905060008111610747576040517f08c379a000000000000000000000000000000000000000000000000000000000815260040161073e90612a1c565b60405180910390fd5b6000600460003373ffffffffffffffffffffffffffffffffffffffff1673ffffffffffffffffffffffffffffffffffffffff1681526020019081526020016000206004018190555042600460003373ffffffffffffffffffffffffffffffffffffffff1673ffffffffffffffffffffffffffffffffffffffff168152602001908152602001600020600201819055506000612710600460003373ffffffffffffffffffffffffffffffffffffffff1673ffffffffffffffffffffffffffffffffffffffff16815260200190815260200160002060050154836108299190612a6b565b6108339190612adc565b90506000612710600460003373ffffffffffffffffffffffffffffffffffffffff1673ffffffffffffffffffffffffffffffffffffffff16815260200190815260200160002060060154846108889190612a6b565b6108929190612adc565b90508281836108a19190612b0d565b11156108b65781836108b39190612b41565b90505b600081836108c49190612b0d565b846108cf9190612b41565b9050600083111561099e57600260009054906101000a900473ffffffffffffffffffffffffffffffffffffffff1673ffffffffffffffffffffffffffffffffffffffff1663a9059cbb600860009054906101000a900473ffffffffffffffffffffffffffffffffffffffff16856040518363ffffffff1660e01b8152600401610959929190612947565b6020604051808303816000875af1158015610978573d6000803e3d6000fd5b505050506040513d601f19601f8201168201806040525081019061099c9190612bad565b505b6000821115610a6b57600260009054906101000a900473ffffffffffffffffffffffffffffffffffffffff1673ffffffffffffffffffffffffffffffffffffffff1663a9059cbb600860009054906101000a900473ffffffffffffffffffffffffffffffffffffffff16846040518363ffffffff1660e01b8152600401610a26929190612947565b6020604051808303816000875af1158015610a45573d6000803e3d6000fd5b505050506040513d601f19601f82011682018060405250810190610a699190612bad565b505b6000811115610b1657600260009054906101000a900473ffffffffffffffffffffffffffffffffffffffff1673ffffffffffffffffffffffffffffffffffffffff1663a9059cbb33836040518363ffffffff1660e01b8152600401610ad1929190612947565b6020604051808303816000875af1158015610af0573d6000803e3d6000fd5b505050506040513d601f19601f82011682018060405250810190610b149190612bad565b505b3373ffffffffffffffffffffffffffffffffffffffff167f812be816db82c66cd18ca8457005cd84689642d8ac4d38599cc6af444a2dc72a828585604051610b6093929190612bda565b60405180910390a250505050610b74612214565b565b610b7e6121ce565b600460003373ffffffffffffffffffffffffffffffffffffffff1673ffffffffffffffffffffffffffffffffffffffff16815260200190815260200160002060030154421015610c03576040517f08c379a0000000000000000000000000000000000000000000000000000000008152600401610bfa90612c5d565b60405180910390fd5b610c0c3361221d565b6000600460003373ffffffffffffffffffffffffffffffffffffffff1673ffffffffffffffffffffffffffffffffffffffff1681526020019081526020016000206000015490506000600460003373ffffffffffffffffffffffffffffffffffffffff1673ffffffffffffffffffffffffffffffffffffffff1681526020019081526020016000206001015490506000821180610ca95750600081115b610ce8576040517f08c379a0000000000000000000000000000000000000000000000000000000008152600401610cdf90612cc9565b60405180910390fd5b6000600460003373ffffffffffffffffffffffffffffffffffffffff1673ffffffffffffffffffffffffffffffffffffffff168152602001908152602001600020600001819055506000600460003373ffffffffffffffffffffffffffffffffffffffff1673ffffffffffffffffffffffffffffffffffffffff168152602001908152602001600020600101819055508160066000828254610d8a9190612b41565b925050819055508060076000828254610da39190612b41565b925050819055506000821115610e5557600260009054906101000a900473ffffffffffffffffffffffffffffffffffffffff1673ffffffffffffffffffffffffffffffffffffffff1663a9059cbb33846040518363ffffffff1660e01b8152600401610e10929190612947565b6020604051808303816000875af1158015610e2f573d6000803e3d6000fd5b505050506040513d601f19601f82011682018060405250810190610e539190612bad565b505b6000811115610f0c5760003373ffffffffffffffffffffffffffffffffffffffff1682604051610e8490612d1a565b60006040518083038185875af1925050503d8060008114610ec1576040519150601f19603f3d011682016040523d82523d6000602084013e610ec6565b606091505b5050905080610f0a576040517f08c379a0000000000000000000000000000000000000000000000000000000008152600401610f0190612d7b565b60405180910390fd5b505b3373ffffffffffffffffffffffffffffffffffffffff167f6b5ffc6940603c1f479ba591eb61b488bd1af4d994fd5330facbfd8c1b57b2698383604051610f54929190612d9b565b60405180910390a25050610f66612214565b565b610f706121ce565b600460003373ffffffffffffffffffffffffffffffffffffffff1673ffffffffffffffffffffffffffffffffffffffff16815260200190815260200160002060030154421015610ff5576040517f08c379a0000000000000000000000000000000000000000000000000000000008152600401610fec90612c5d565b60405180910390fd5b81600460003373ffffffffffffffffffffffffffffffffffffffff1673ffffffffffffffffffffffffffffffffffffffff16815260200190815260200160002060000154101561107a576040517f08c379a000000000000000000000000000000000000000000000000000000000815260040161107190612e10565b60405180910390fd5b80600460003373ffffffffffffffffffffffffffffffffffffffff1673ffffffffffffffffffffffffffffffffffffffff1681526020019081526020016000206001015410156110ff576040517f08c379a00000000000000000000000000000000000000000000000000000000081526004016110f690612e7c565b60405180910390fd5b6111083361221d565b81600460003373ffffffffffffffffffffffffffffffffffffffff1673ffffffffffffffffffffffffffffffffffffffff168152602001908152602001600020600001600082825461115a9190612b41565b9250508190555080600460003373ffffffffffffffffffffffffffffffffffffffff1673ffffffffffffffffffffffffffffffffffffffff16815260200190815260200160002060010160008282546111b39190612b41565b9250508190555081600660008282546111cc9190612b41565b9250508190555080600760008282546111e59190612b41565b92505081905550600082111561129757600260009054906101000a900473ffffffffffffffffffffffffffffffffffffffff1673ffffffffffffffffffffffffffffffffffffffff1663a9059cbb33846040518363ffffffff1660e01b8152600401611252929190612947565b6020604051808303816000875af1158015611271573d6000803e3d6000fd5b505050506040513d601f19601f820116820180604052508101906112959190612bad565b505b600081111561134e5760003373ffffffffffffffffffffffffffffffffffffffff16826040516112c690612d1a565b60006040518083038185875af1925050503d8060008114611303576040519150601f19603f3d011682016040523d82523d6000602084013e611308565b606091505b505090508061134c576040517f08c379a000000000000000000000000000000000000000000000000000000000815260040161134390612d7b565b60405180910390fd5b505b3373ffffffffffffffffffffffffffffffffffffffff167f6b5ffc6940603c1f479ba591eb61b488bd1af4d994fd5330facbfd8c1b57b2698383604051611396929190612d9b565b60405180910390a26113a6612214565b5050565b600560003373ffffffffffffffffffffffffffffffffffffffff1673ffffffffffffffffffffffffffffffffffffffff16815260200190815260200160002060405180604001604052808473ffffffffffffffffffffffffffffffffffffffff16815260200183815250908060018154018082558091505060019003906000526020600020906002020160009091909190915060008201518160000160006101000a81548173ffffffffffffffffffffffffffffffffffffffff021916908373ffffffffffffffffffffffffffffffffffffffff1602179055506020820151816001015550508173ffffffffffffffffffffffffffffffffffffffff163373ffffffffffffffffffffffffffffffffffffffff167fcc80a2fe2786c3abbc65c679e6e81e4c51de790c1b2359213275fa31decc8677836040516114ed9190612422565b60405180910390a35050565b60075481565b6115076122b6565b80600860006101000a81548173ffffffffffffffffffffffffffffffffffffffff021916908373ffffffffffffffffffffffffffffffffffffffff16021790555050565b600080600460008473ffffffffffffffffffffffffffffffffffffffff1673ffffffffffffffffffffffffffffffffffffffff16815260200190815260200160002060405180610100016040529081600082015481526020016001820154815260200160028201548152602001600382015481526020016004820154815260200160058201548152602001600682015481526020016007820180546115ef9061299f565b80601f016020809104026020016040519081016040528092919081815260200182805461161b9061299f565b80156116685780601f1061163d57610100808354040283529160200191611668565b820191906000526020600020905b81548152906001019060200180831161164b57829003601f168201915b50505050508152505090506000816000015114801561168b575060008160200151145b1561169d57806080015191505061171a565b60008160400151426116af9190612b41565b905060006107d083602001516116c59190612a6b565b83600001516116d49190612b0d565b90506000640757b12c0083600354846116ed9190612a6b565b6116f79190612a6b565b6117019190612adc565b90508084608001516117139190612b0d565b9450505050505b919050565b612710811115611764576040517f08c379a000000000000000000000000000000000000000000000000000000000815260040161175b90612ee8565b60405180910390fd5b61176d3361221d565b80600460003373ffffffffffffffffffffffffffffffffffffffff1673ffffffffffffffffffffffffffffffffffffffff168152602001908152602001600020600601819055508282600460003373ffffffffffffffffffffffffffffffffffffffff1673ffffffffffffffffffffffffffffffffffffffff16815260200190815260200160002060070191826118059291906130e4565b503373ffffffffffffffffffffffffffffffffffffffff167f5a6ae5aab0881da9a161d8bd4fcd05d6a46be79bd888e9cfbae5f31547eaec87828585604051611850939291906131f0565b60405180910390a2505050565b6118656122b6565b61186f600061233d565b565b600260009054906101000a900473ffffffffffffffffffffffffffffffffffffffff1681565b61189f6121ce565b6009548210156118e4576040517f08c379a00000000000000000000000000000000000000000000000000000000081526004016118db9061326e565b60405180910390fd5b6118ed3361221d565b600260009054906101000a900473ffffffffffffffffffffffffffffffffffffffff1673ffffffffffffffffffffffffffffffffffffffff166323b872dd3330856040518463ffffffff1660e01b815260040161194c9392919061328e565b6020604051808303816000875af115801561196b573d6000803e3d6000fd5b505050506040513d601f19601f8201168201806040525081019061198f9190612bad565b5081600460003373ffffffffffffffffffffffffffffffffffffffff1673ffffffffffffffffffffffffffffffffffffffff16815260200190815260200160002060000160008282546119e29190612b0d565b9250508190555081600660008282546119fb9190612b0d565b9250508190555062278d0081611a119190612a6b565b42611a1c9190612b0d565b600460003373ffffffffffffffffffffffffffffffffffffffff1673ffffffffffffffffffffffffffffffffffffffff168152602001908152602001600020600301819055503373ffffffffffffffffffffffffffffffffffffffff167faab3d0030e4069ab00cb3dc8a4c1d65aef4e049b1e5ad436c337b7cc101ad83183600460003373ffffffffffffffffffffffffffffffffffffffff1673ffffffffffffffffffffffffffffffffffffffff16815260200190815260200160002060030154604051611aec929190612d9b565b60405180910390a2611afc612214565b5050565b60035481565b60008060009054906101000a900473ffffffffffffffffffffffffffffffffffffffff16905090565b611b376121ce565b60003411611b7a576040517f08c379a0000000000000000000000000000000000000000000000000000000008152600401611b7190613311565b60405180910390fd5b611b833361221d565b34600460003373ffffffffffffffffffffffffffffffffffffffff1673ffffffffffffffffffffffffffffffffffffffff1681526020019081526020016000206001016000828254611bd59190612b0d565b925050819055503460076000828254611bee9190612b0d565b9250508190555062278d0081611c049190612a6b565b42611c0f9190612b0d565b600460003373ffffffffffffffffffffffffffffffffffffffff1673ffffffffffffffffffffffffffffffffffffffff168152602001908152602001600020600301819055503373ffffffffffffffffffffffffffffffffffffffff167f553a91c7a97032af09b7980d9e4413accd23504554878295ba9a38c4c152290334600460003373ffffffffffffffffffffffffffffffffffffffff1673ffffffffffffffffffffffffffffffffffffffff16815260200190815260200160002060030154604051611cdf929190612d9b565b60405180910390a2611cef612214565b50565b612710811115611d37576040517f08c379a0000000000000000000000000000000000000000000000000000000008152600401611d2e9061337d565b60405180910390fd5b611d403361221d565b80600460003373ffffffffffffffffffffffffffffffffffffffff1673ffffffffffffffffffffffffffffffffffffffff168152602001908152602001600020600501819055503373ffffffffffffffffffffffffffffffffffffffff167f0a51fdcf71e712387a63a14ece53424ea71c25cad26c89ece57aab1254e1b61182604051611dcd9190612422565b60405180910390a250565b611de06121ce565b6009548210158015611df25750600034115b611e31576040517f08c379a0000000000000000000000000000000000000000000000000000000008152600401611e28906133e9565b60405180910390fd5b611e3a3361221d565b600260009054906101000a900473ffffffffffffffffffffffffffffffffffffffff1673ffffffffffffffffffffffffffffffffffffffff166323b872dd3330856040518463ffffffff1660e01b8152600401611e999392919061328e565b6020604051808303816000875af1158015611eb8573d6000803e3d6000fd5b505050506040513d601f19601f82011682018060405250810190611edc9190612bad565b5081600460003373ffffffffffffffffffffffffffffffffffffffff1673ffffffffffffffffffffffffffffffffffffffff1681526020019081526020016000206000016000828254611f2f9190612b0d565b925050819055508160066000828254611f489190612b0d565b9250508190555034600460003373ffffffffffffffffffffffffffffffffffffffff1673ffffffffffffffffffffffffffffffffffffffff1681526020019081526020016000206001016000828254611fa19190612b0d565b925050819055503460076000828254611fba9190612b0d565b9250508190555062278d0081611fd09190612a6b565b42611fdb9190612b0d565b600460003373ffffffffffffffffffffffffffffffffffffffff1673ffffffffffffffffffffffffffffffffffffffff168152602001908152602001600020600301819055503373ffffffffffffffffffffffffffffffffffffffff167fe1143d893b199fc03b035a346869160004ff09106be624062c2816072202ba558334600460003373ffffffffffffffffffffffffffffffffffffffff1673ffffffffffffffffffffffffffffffffffffffff168152602001908152602001600020600301546040516120ad93929190612bda565b60405180910390a26120bd612214565b5050565b600860009054906101000a900473ffffffffffffffffffffffffffffffffffffffff1681565b6005602052816000526040600020818154811061210357600080fd5b9060005260206000209060020201600091509150508060000160009054906101000a900473ffffffffffffffffffffffffffffffffffffffff16908060010154905082565b6121506122b6565b600073ffffffffffffffffffffffffffffffffffffffff168173ffffffffffffffffffffffffffffffffffffffff16036121c25760006040517f1e4fbdf70000000000000000000000000000000000000000000000000000000081526004016121b991906128ff565b60405180910390fd5b6121cb8161233d565b50565b60026001540361220a576040517f3ee5aeb500000000000000000000000000000000000000000000000000000000815260040160405180910390fd5b6002600181905550565b60018081905550565b6122268161154b565b600460008373ffffffffffffffffffffffffffffffffffffffff1673ffffffffffffffffffffffffffffffffffffffff1681526020019081526020016000206004018190555042600460008373ffffffffffffffffffffffffffffffffffffffff1673ffffffffffffffffffffffffffffffffffffffff1681526020019081526020016000206002018190555050565b6122be612401565b73ffffffffffffffffffffffffffffffffffffffff166122dc611b06565b73ffffffffffffffffffffffffffffffffffffffff161461233b576122ff612401565b6040517f118cdaa700000000000000000000000000000000000000000000000000000000815260040161233291906128ff565b60405180910390fd5b565b60008060009054906101000a900473ffffffffffffffffffffffffffffffffffffffff169050816000806101000a81548173ffffffffffffffffffffffffffffffffffffffff021916908373ffffffffffffffffffffffffffffffffffffffff1602179055508173ffffffffffffffffffffffffffffffffffffffff168173ffffffffffffffffffffffffffffffffffffffff167f8be0079c531659141344cd1fd0a4f28419497f9722a3daafe3b4186f6b6457e060405160405180910390a35050565b600033905090565b6000819050919050565b61241c81612409565b82525050565b60006020820190506124376000830184612413565b92915050565b600080fd5b600080fd5b600073ffffffffffffffffffffffffffffffffffffffff82169050919050565b600061247282612447565b9050919050565b61248281612467565b811461248d57600080fd5b50565b60008135905061249f81612479565b92915050565b6000602082840312156124bb576124ba61243d565b5b60006124c984828501612490565b91505092915050565b600081519050919050565b600082825260208201905092915050565b6000819050602082019050919050565b61250781612467565b82525050565b61251681612409565b82525050565b60408201600082015161253260008501826124fe565b506020820151612545602085018261250d565b50505050565b6000612557838361251c565b60408301905092915050565b6000602082019050919050565b600061257b826124d2565b61258581856124dd565b9350612590836124ee565b8060005b838110156125c15781516125a8888261254b565b97506125b383612563565b925050600181019050612594565b5085935050505092915050565b600060208201905081810360008301526125e88184612570565b905092915050565b600081519050919050565b600082825260208201905092915050565b60005b8381101561262a57808201518184015260208101905061260f565b60008484015250505050565b6000601f19601f8301169050919050565b6000612652826125f0565b61265c81856125fb565b935061266c81856020860161260c565b61267581612636565b840191505092915050565b600061010082019050612696600083018b612413565b6126a3602083018a612413565b6126b06040830189612413565b6126bd6060830188612413565b6126ca6080830187612413565b6126d760a0830186612413565b6126e460c0830185612413565b81810360e08301526126f68184612647565b90509998505050505050505050565b61270e81612409565b811461271957600080fd5b50565b60008135905061272b81612705565b92915050565b600080604083850312156127485761274761243d565b5b60006127568582860161271c565b92505060206127678582860161271c565b9150509250929050565b600080604083850312156127885761278761243d565b5b600061279685828601612490565b92505060206127a78582860161271c565b9150509250929050565b600080fd5b600080fd5b600080fd5b60008083601f8401126127d6576127d56127b1565b5b8235905067ffffffffffffffff8111156127f3576127f26127b6565b5b60208301915083600182028301111561280f5761280e6127bb565b5b9250929050565b60008060006040848603121561282f5761282e61243d565b5b600084013567ffffffffffffffff81111561284d5761284c612442565b5b612859868287016127c0565b9350935050602061286c8682870161271c565b9150509250925092565b6000819050919050565b600061289b61289661289184612447565b612876565b612447565b9050919050565b60006128ad82612880565b9050919050565b60006128bf826128a2565b9050919050565b6128cf816128b4565b82525050565b60006020820190506128ea60008301846128c6565b92915050565b6128f981612467565b82525050565b600060208201905061291460008301846128f0565b92915050565b6000602082840312156129305761292f61243d565b5b600061293e8482850161271c565b91505092915050565b600060408201905061295c60008301856128f0565b6129696020830184612413565b9392505050565b7f4e487b7100000000000000000000000000000000000000000000000000000000600052602260045260246000fd5b600060028204905060018216806129b757607f821691505b6020821081036129ca576129c9612970565b5b50919050565b7f4e6f207265776172647320746f20636c61696d00000000000000000000000000600082015250565b6000612a066013836125fb565b9150612a11826129d0565b602082019050919050565b60006020820190508181036000830152612a35816129f9565b9050919050565b7f4e487b7100000000000000000000000000000000000000000000000000000000600052601160045260246000fd5b6000612a7682612409565b9150612a8183612409565b9250828202612a8f81612409565b91508282048414831517612aa657612aa5612a3c565b5b5092915050565b7f4e487b7100000000000000000000000000000000000000000000000000000000600052601260045260246000fd5b6000612ae782612409565b9150612af283612409565b925082612b0257612b01612aad565b5b828204905092915050565b6000612b1882612409565b9150612b2383612409565b9250828201905080821115612b3b57612b3a612a3c565b5b92915050565b6000612b4c82612409565b9150612b5783612409565b9250828203905081811115612b6f57612b6e612a3c565b5b92915050565b60008115159050919050565b612b8a81612b75565b8114612b9557600080fd5b50565b600081519050612ba781612b81565b92915050565b600060208284031215612bc357612bc261243d565b5b6000612bd184828501612b98565b91505092915050565b6000606082019050612bef6000830186612413565b612bfc6020830185612413565b612c096040830184612413565b949350505050565b7f5374616b65206973207374696c6c206c6f636b65640000000000000000000000600082015250565b6000612c476015836125fb565b9150612c5282612c11565b602082019050919050565b60006020820190508181036000830152612c7681612c3a565b9050919050565b7f4e6f7468696e6720746f20776974686472617700000000000000000000000000600082015250565b6000612cb36013836125fb565b9150612cbe82612c7d565b602082019050919050565b60006020820190508181036000830152612ce281612ca6565b9050919050565b600081905092915050565b50565b6000612d04600083612ce9565b9150612d0f82612cf4565b600082019050919050565b6000612d2582612cf7565b9150819050919050565b7f455448207472616e73666572206661696c656400000000000000000000000000600082015250565b6000612d656013836125fb565b9150612d7082612d2f565b602082019050919050565b60006020820190508181036000830152612d9481612d58565b9050919050565b6000604082019050612db06000830185612413565b612dbd6020830184612413565b9392505050565b7f496e73756666696369656e7420524c4f207374616b6564000000000000000000600082015250565b6000612dfa6017836125fb565b9150612e0582612dc4565b602082019050919050565b60006020820190508181036000830152612e2981612ded565b9050919050565b7f496e73756666696369656e7420455448207374616b6564000000000000000000600082015250565b6000612e666017836125fb565b9150612e7182612e30565b602082019050919050565b60006020820190508181036000830152612e9581612e59565b9050919050565b7f496e76616c69642070657263656e746167650000000000000000000000000000600082015250565b6000612ed26012836125fb565b9150612edd82612e9c565b602082019050919050565b60006020820190508181036000830152612f0181612ec5565b9050919050565b600082905092915050565b7f4e487b7100000000000000000000000000000000000000000000000000000000600052604160045260246000fd5b60008190508160005260206000209050919050565b60006020601f8301049050919050565b600082821b905092915050565b600060088302612fa47fffffffffffffffffffffffffffffffffffffffffffffffffffffffffffffffff82612f67565b612fae8683612f67565b95508019841693508086168417925050509392505050565b6000612fe1612fdc612fd784612409565b612876565b612409565b9050919050565b6000819050919050565b612ffb83612fc6565b61300f61300782612fe8565b848454612f74565b825550505050565b600090565b613024613017565b61302f818484612ff2565b505050565b5b818110156130535761304860008261301c565b600181019050613035565b5050565b601f8211156130985761306981612f42565b61307284612f57565b81016020851015613081578190505b61309561308d85612f57565b830182613034565b50505b505050565b600082821c905092915050565b60006130bb6000198460080261309d565b1980831691505092915050565b60006130d483836130aa565b9150826002028217905092915050565b6130ee8383612f08565b67ffffffffffffffff81111561310757613106612f13565b5b613111825461299f565b61311c828285613057565b6000601f83116001811461314b5760008415613139578287013590505b61314385826130c8565b8655506131ab565b601f19841661315986612f42565b60005b828110156131815784890135825560018201915060208501945060208101905061315c565b8683101561319e578489013561319a601f8916826130aa565b8355505b6001600288020188555050505b50505050505050565b82818337600083830152505050565b60006131cf83856125fb565b93506131dc8385846131b4565b6131e583612636565b840190509392505050565b60006040820190506132056000830186612413565b81810360208301526132188184866131c3565b9050949350505050565b7f42656c6f77206d696e696d756d207374616b6500000000000000000000000000600082015250565b60006132586013836125fb565b915061326382613222565b602082019050919050565b600060208201905081810360008301526132878161324b565b9050919050565b60006060820190506132a360008301866128f0565b6132b060208301856128f0565b6132bd6040830184612413565b949350505050565b7f4d7573742073656e642045544800000000000000000000000000000000000000600082015250565b60006132fb600d836125fb565b9150613306826132c5565b602082019050919050565b6000602082019050818103600083015261332a816132ee565b9050919050565b7f496e76616c6964206672616374696f6e00000000000000000000000000000000600082015250565b60006133676010836125fb565b915061337282613331565b602082019050919050565b600060208201905081810360008301526133968161335a565b9050919050565b7f496e76616c696420616d6f756e74730000000000000000000000000000000000600082015250565b60006133d3600f836125fb565b91506133de8261339d565b602082019050919050565b60006020820190508181036000830152613402816133c6565b905091905056fea2646970667358221220b6922d875a9e57e77a17340a104100a97e65a5f8334faf96f51fac0fb94dd1b364736f6c63430008140033",
  "linkReferences": {},
  "deployedLinkReferences": {}
}