{
  "_format": "hh-sol-artifact-1",
  "contractName": "Staking",
  "sourceName": "contracts/Staking.sol",
  "abi": [
    {
      "inputs": [
        {
          "internalType": "address",
          "name": "_stakingToken",
          "type": "address"
        }
      ],
      "stateMutability": "nonpayable",
      "type": "constructor"
    },
    {
      "inputs": [
        {
          "internalType": "address",
          "name": "owner",
          "type": "address"
        }
      ],
      "name": "OwnableInvalidOwner",
      "type": "error"
    },
    {
      "inputs": [
        {
          "internalType": "address",
          "name": "account",
          "type": "address"
        }
      ],
      "name": "OwnableUnauthorizedAccount",
      "type": "error"
    },
    {
      "inputs": [],
      "name": "ReentrancyGuardReentrantCall",
      "type": "error"
    },
    {
      "anonymous": false,
      "inputs": [
        {
          "indexed": true,
          "internalType": "address",
          "name": "previousOwner",
          "type": "address"
        },
        {
          "indexed": true,
          "internalType": "address",
          "name": "newOwner",
          "type": "address"
        }
      ],
      "name": "OwnershipTransferred",
      "type": "event"
    },
    {
      "inputs": [
        {
          "internalType": "address",
          "name": "user",
          "type": "address"
        }
      ],
      "name": "calculateRewards",
      "outputs": [
        {
          "internalType": "uint256",
          "name": "",
          "type": "uint256"
        }
      ],
      "stateMutability": "view",
      "type": "function"
    },
    {
      "inputs": [],
      "name": "claimRewards",
      "outputs": [],
      "stateMutability": "nonpayable",
      "type": "function"
    },
    {
      "inputs": [],
      "name": "owner",
      "outputs": [
        {
          "internalType": "address",
          "name": "",
          "type": "address"
        }
      ],
      "stateMutability": "view",
      "type": "function"
    },
    {
      "inputs": [],
      "name": "renounceOwnership",
      "outputs": [],
      "stateMutability": "nonpayable",
      "type": "function"
    },
    {
      "inputs": [],
      "name": "rewardRate",
      "outputs": [
        {
          "internalType": "uint256",
          "name": "",
          "type": "uint256"
        }
      ],
      "stateMutability": "view",
      "type": "function"
    },
    {
      "inputs": [],
      "name": "servicePaymaster",
      "outputs": [
        {
          "internalType": "address",
          "name": "",
          "type": "address"
        }
      ],
      "stateMutability": "view",
      "type": "function"
    },
    {
      "inputs": [
        {
          "internalType": "uint256",
          "name": "amount",
          "type": "uint256"
        },
        {
          "internalType": "uint256",
          "name": "lockMonths",
          "type": "uint256"
        }
      ],
      "name": "stake",
      "outputs": [],
      "stateMutability": "nonpayable",
      "type": "function"
    },
    {
      "inputs": [
        {
          "internalType": "uint256",
          "name": "lockMonths",
          "type": "uint256"
        }
      ],
      "name": "stakeEth",
      "outputs": [],
      "stateMutability": "payable",
      "type": "function"
    },
    {
      "inputs": [
        {
          "internalType": "uint256",
          "name": "rloAmount",
          "type": "uint256"
        },
        {
          "internalType": "uint256",
          "name": "lockMonths",
          "type": "uint256"
        }
      ],
      "name": "stakePair",
      "outputs": [],
      "stateMutability": "payable",
      "type": "function"
    },
    {
      "inputs": [
        {
          "internalType": "address",
          "name": "",
          "type": "address"
        }
      ],
      "name": "stakes",
      "outputs": [
        {
          "internalType": "uint256",
          "name": "rloAmount",
          "type": "uint256"
        },
        {
          "internalType": "uint256",
          "name": "ethAmount",
          "type": "uint256"
        },
        {
          "internalType": "uint256",
          "name": "lastUpdate",
          "type": "uint256"
        },
        {
          "internalType": "uint256",
          "name": "lockEnd",
          "type": "uint256"
        },
        {
          "internalType": "uint256",
          "name": "rewardsAccumulated",
          "type": "uint256"
        },
        {
          "internalType": "uint256",
          "name": "sfsFraction",
          "type": "uint256"
        },
        {
          "internalType": "uint256",
          "name": "rwaAllocation",
          "type": "uint256"
        },
        {
          "internalType": "string",
          "name": "rwaTarget",
          "type": "string"
        }
      ],
      "stateMutability": "view",
      "type": "function"
    },
    {
      "inputs": [],
      "name": "stakingToken",
      "outputs": [
        {
          "internalType": "contract IERC20",
          "name": "",
          "type": "address"
        }
      ],
      "stateMutability": "view",
      "type": "function"
    },
    {
      "inputs": [],
      "name": "totalStakedEth",
      "outputs": [
        {
          "internalType": "uint256",
          "name": "",
          "type": "uint256"
        }
      ],
      "stateMutability": "view",
      "type": "function"
    },
    {
      "inputs": [],
      "name": "totalStakedRlo",
      "outputs": [
        {
          "internalType": "uint256",
          "name": "",
          "type": "uint256"
        }
      ],
      "stateMutability": "view",
      "type": "function"
    },
    {
      "inputs": [
        {
          "internalType": "address",
          "name": "newOwner",
          "type": "address"
        }
      ],
      "name": "transferOwnership",
      "outputs": [],
      "stateMutability": "nonpayable",
      "type": "function"
    },
    {
      "stateMutability": "payable",
      "type": "receive"
    }
  ],
  "bytecode": "0x608060405260b86003553480156200001657600080fd5b5060405162001c4938038062001c4983398181016040528101906200003c919062000282565b33600073ffffffffffffffffffffffffffffffffffffffff168173ffffffffffffffffffffffffffffffffffffffff1603620000b25760006040517f1e4fbdf7000000000000000000000000000000000000000000000000000000008152600401620000a99190620002c5565b60405180910390fd5b620000c3816200015460201b60201c565b506001808190555080600260006101000a81548173ffffffffffffffffffffffffffffffffffffffff021916908373ffffffffffffffffffffffffffffffffffffffff16021790555033600760006101000a81548173ffffffffffffffffffffffffffffffffffffffff021916908373ffffffffffffffffffffffffffffffffffffffff16021790555050620002e2565b60008060009054906101000a900473ffffffffffffffffffffffffffffffffffffffff169050816000806101000a81548173ffffffffffffffffffffffffffffffffffffffff021916908373ffffffffffffffffffffffffffffffffffffffff1602179055508173ffffffffffffffffffffffffffffffffffffffff168173ffffffffffffffffffffffffffffffffffffffff167f8be0079c531659141344cd1fd0a4f28419497f9722a3daafe3b4186f6b6457e060405160405180910390a35050565b600080fd5b600073ffffffffffffffffffffffffffffffffffffffff82169050919050565b60006200024a826200021d565b9050919050565b6200025c816200023d565b81146200026857600080fd5b50565b6000815190506200027c8162000251565b92915050565b6000602082840312156200029b576200029a62000218565b5b6000620002ab848285016200026b565b91505092915050565b620002bf816200023d565b82525050565b6000602082019050620002dc6000830184620002b4565b92915050565b61195780620002f26000396000f3fe6080604052600436106100e15760003560e01c80637b0472f01161007f57806396db582a1161005957806396db582a1461029c578063d6f66ae6146102b8578063e6034b71146102d4578063f2fde38b146102ff576100e8565b80637b0472f01461021d5780637b0a47ee146102465780638da5cb5b14610271576100e8565b8063504cdacf116100bb578063504cdacf1461017357806364ab86751461019e578063715018a6146101db57806372f702f3146101f2576100e8565b806304fe754c146100ed57806316934fc414610118578063372500ab1461015c576100e8565b366100e857005b600080fd5b3480156100f957600080fd5b50610102610328565b60405161010f9190611216565b60405180910390f35b34801561012457600080fd5b5061013f600480360381019061013a9190611294565b61032e565b604051610153989796959493929190611351565b60405180910390f35b34801561016857600080fd5b506101716103fe565b005b34801561017f57600080fd5b50610188610804565b6040516101959190611216565b60405180910390f35b3480156101aa57600080fd5b506101c560048036038101906101c09190611294565b61080a565b6040516101d29190611216565b60405180910390f35b3480156101e757600080fd5b506101f0610856565b005b3480156101fe57600080fd5b5061020761086a565b6040516102149190611435565b60405180910390f35b34801561022957600080fd5b50610244600480360381019061023f919061147c565b610890565b005b34801561025257600080fd5b5061025b610ace565b6040516102689190611216565b60405180910390f35b34801561027d57600080fd5b50610286610ad4565b60405161029391906114cb565b60405180910390f35b6102b660048036038101906102b191906114e6565b610afd565b005b6102d260048036038101906102cd919061147c565b610c8f565b005b3480156102e057600080fd5b506102e9610f4a565b6040516102f691906114cb565b60405180910390f35b34801561030b57600080fd5b5061032660048036038101906103219190611294565b610f70565b005b60055481565b600460205280600052604060002060009150905080600001549080600101549080600201549080600301549080600401549080600501549080600601549080600701805461037b90611542565b80601f01602080910402602001604051908101604052809291908181526020018280546103a790611542565b80156103f45780601f106103c9576101008083540402835291602001916103f4565b820191906000526020600020905b8154815290600101906020018083116103d757829003601f168201915b5050505050905088565b610406610ff6565b6000600460003373ffffffffffffffffffffffffffffffffffffffff1673ffffffffffffffffffffffffffffffffffffffff16815260200190815260200160002060040154905060008111610490576040517f08c379a0000000000000000000000000000000000000000000000000000000008152600401610487906115bf565b60405180910390fd5b6000600460003373ffffffffffffffffffffffffffffffffffffffff1673ffffffffffffffffffffffffffffffffffffffff168152602001908152602001600020600401819055506000612710600460003373ffffffffffffffffffffffffffffffffffffffff1673ffffffffffffffffffffffffffffffffffffffff168152602001908152602001600020600501548361052b919061160e565b610535919061167f565b90506000612710600460003373ffffffffffffffffffffffffffffffffffffffff1673ffffffffffffffffffffffffffffffffffffffff168152602001908152602001600020600601548461058a919061160e565b610594919061167f565b9050600081836105a491906116b0565b846105af91906116e4565b9050600083111561067e57600260009054906101000a900473ffffffffffffffffffffffffffffffffffffffff1673ffffffffffffffffffffffffffffffffffffffff1663a9059cbb600760009054906101000a900473ffffffffffffffffffffffffffffffffffffffff16856040518363ffffffff1660e01b8152600401610639929190611718565b6020604051808303816000875af1158015610658573d6000803e3d6000fd5b505050506040513d601f19601f8201168201806040525081019061067c9190611779565b505b600082111561074b57600260009054906101000a900473ffffffffffffffffffffffffffffffffffffffff1673ffffffffffffffffffffffffffffffffffffffff1663a9059cbb600760009054906101000a900473ffffffffffffffffffffffffffffffffffffffff16846040518363ffffffff1660e01b8152600401610706929190611718565b6020604051808303816000875af1158015610725573d6000803e3d6000fd5b505050506040513d601f19601f820116820180604052508101906107499190611779565b505b60008111156107f657600260009054906101000a900473ffffffffffffffffffffffffffffffffffffffff1673ffffffffffffffffffffffffffffffffffffffff1663a9059cbb33836040518363ffffffff1660e01b81526004016107b1929190611718565b6020604051808303816000875af11580156107d0573d6000803e3d6000fd5b505050506040513d601f19601f820116820180604052508101906107f49190611779565b505b5050505061080261103c565b565b60065481565b6000600460008373ffffffffffffffffffffffffffffffffffffffff1673ffffffffffffffffffffffffffffffffffffffff168152602001908152602001600020600401549050919050565b61085e611045565b61086860006110cc565b565b600260009054906101000a900473ffffffffffffffffffffffffffffffffffffffff1681565b610898610ff6565b678ac7230489e800008210156108e3576040517f08c379a00000000000000000000000000000000000000000000000000000000081526004016108da906117f2565b60405180910390fd5b60006108f183600084611190565b9050600260009054906101000a900473ffffffffffffffffffffffffffffffffffffffff1673ffffffffffffffffffffffffffffffffffffffff166323b872dd3330866040518463ffffffff1660e01b815260040161095293929190611812565b6020604051808303816000875af1158015610971573d6000803e3d6000fd5b505050506040513d601f19601f820116820180604052508101906109959190611779565b5082600460003373ffffffffffffffffffffffffffffffffffffffff1673ffffffffffffffffffffffffffffffffffffffff16815260200190815260200160002060000160008282546109e891906116b0565b9250508190555080600460003373ffffffffffffffffffffffffffffffffffffffff1673ffffffffffffffffffffffffffffffffffffffff1681526020019081526020016000206004016000828254610a4191906116b0565b9250508190555062278d0082610a57919061160e565b42610a6291906116b0565b600460003373ffffffffffffffffffffffffffffffffffffffff1673ffffffffffffffffffffffffffffffffffffffff168152602001908152602001600020600301819055508260056000828254610aba91906116b0565b9250508190555050610aca61103c565b5050565b60035481565b60008060009054906101000a900473ffffffffffffffffffffffffffffffffffffffff16905090565b610b05610ff6565b60003411610b48576040517f08c379a0000000000000000000000000000000000000000000000000000000008152600401610b3f90611895565b60405180910390fd5b6000610b5660003484611190565b905034600460003373ffffffffffffffffffffffffffffffffffffffff1673ffffffffffffffffffffffffffffffffffffffff1681526020019081526020016000206001016000828254610baa91906116b0565b9250508190555080600460003373ffffffffffffffffffffffffffffffffffffffff1673ffffffffffffffffffffffffffffffffffffffff1681526020019081526020016000206004016000828254610c0391906116b0565b9250508190555062278d0082610c19919061160e565b42610c2491906116b0565b600460003373ffffffffffffffffffffffffffffffffffffffff1673ffffffffffffffffffffffffffffffffffffffff168152602001908152602001600020600301819055503460066000828254610c7c91906116b0565b9250508190555050610c8c61103c565b50565b610c97610ff6565b678ac7230489e800008210158015610caf5750600034115b610cee576040517f08c379a0000000000000000000000000000000000000000000000000000000008152600401610ce590611901565b60405180910390fd5b6000610cfb833484611190565b9050600260009054906101000a900473ffffffffffffffffffffffffffffffffffffffff1673ffffffffffffffffffffffffffffffffffffffff166323b872dd3330866040518463ffffffff1660e01b8152600401610d5c93929190611812565b6020604051808303816000875af1158015610d7b573d6000803e3d6000fd5b505050506040513d601f19601f82011682018060405250810190610d9f9190611779565b5082600460003373ffffffffffffffffffffffffffffffffffffffff1673ffffffffffffffffffffffffffffffffffffffff1681526020019081526020016000206000016000828254610df291906116b0565b9250508190555034600460003373ffffffffffffffffffffffffffffffffffffffff1673ffffffffffffffffffffffffffffffffffffffff1681526020019081526020016000206001016000828254610e4b91906116b0565b9250508190555080600460003373ffffffffffffffffffffffffffffffffffffffff1673ffffffffffffffffffffffffffffffffffffffff1681526020019081526020016000206004016000828254610ea491906116b0565b9250508190555062278d0082610eba919061160e565b42610ec591906116b0565b600460003373ffffffffffffffffffffffffffffffffffffffff1673ffffffffffffffffffffffffffffffffffffffff168152602001908152602001600020600301819055508260056000828254610f1d91906116b0565b925050819055503460066000828254610f3691906116b0565b9250508190555050610f4661103c565b5050565b600760009054906101000a900473ffffffffffffffffffffffffffffffffffffffff1681565b610f78611045565b600073ffffffffffffffffffffffffffffffffffffffff168173ffffffffffffffffffffffffffffffffffffffff1603610fea5760006040517f1e4fbdf7000000000000000000000000000000000000000000000000000000008152600401610fe191906114cb565b60405180910390fd5b610ff3816110cc565b50565b600260015403611032576040517f3ee5aeb500000000000000000000000000000000000000000000000000000000815260040160405180910390fd5b6002600181905550565b60018081905550565b61104d6111f5565b73ffffffffffffffffffffffffffffffffffffffff1661106b610ad4565b73ffffffffffffffffffffffffffffffffffffffff16146110ca5761108e6111f5565b6040517f118cdaa70000000000000000000000000000000000000000000000000000000081526004016110c191906114cb565b60405180910390fd5b565b60008060009054906101000a900473ffffffffffffffffffffffffffffffffffffffff169050816000806101000a81548173ffffffffffffffffffffffffffffffffffffffff021916908373ffffffffffffffffffffffffffffffffffffffff1602179055508173ffffffffffffffffffffffffffffffffffffffff168173ffffffffffffffffffffffffffffffffffffffff167f8be0079c531659141344cd1fd0a4f28419497f9722a3daafe3b4186f6b6457e060405160405180910390a35050565b6000806107d0846111a1919061160e565b856111ac91906116b0565b9050600062278d00846111bf919061160e565b9050640757b12c0081600354846111d6919061160e565b6111e0919061160e565b6111ea919061167f565b925050509392505050565b600033905090565b6000819050919050565b611210816111fd565b82525050565b600060208201905061122b6000830184611207565b92915050565b600080fd5b600073ffffffffffffffffffffffffffffffffffffffff82169050919050565b600061126182611236565b9050919050565b61127181611256565b811461127c57600080fd5b50565b60008135905061128e81611268565b92915050565b6000602082840312156112aa576112a9611231565b5b60006112b88482850161127f565b91505092915050565b600081519050919050565b600082825260208201905092915050565b60005b838110156112fb5780820151818401526020810190506112e0565b60008484015250505050565b6000601f19601f8301169050919050565b6000611323826112c1565b61132d81856112cc565b935061133d8185602086016112dd565b61134681611307565b840191505092915050565b600061010082019050611367600083018b611207565b611374602083018a611207565b6113816040830189611207565b61138e6060830188611207565b61139b6080830187611207565b6113a860a0830186611207565b6113b560c0830185611207565b81810360e08301526113c78184611318565b90509998505050505050505050565b6000819050919050565b60006113fb6113f66113f184611236565b6113d6565b611236565b9050919050565b600061140d826113e0565b9050919050565b600061141f82611402565b9050919050565b61142f81611414565b82525050565b600060208201905061144a6000830184611426565b92915050565b611459816111fd565b811461146457600080fd5b50565b60008135905061147681611450565b92915050565b6000806040838503121561149357611492611231565b5b60006114a185828601611467565b92505060206114b285828601611467565b9150509250929050565b6114c581611256565b82525050565b60006020820190506114e060008301846114bc565b92915050565b6000602082840312156114fc576114fb611231565b5b600061150a84828501611467565b91505092915050565b7f4e487b7100000000000000000000000000000000000000000000000000000000600052602260045260246000fd5b6000600282049050600182168061155a57607f821691505b60208210810361156d5761156c611513565b5b50919050565b7f4e6f207265776172647300000000000000000000000000000000000000000000600082015250565b60006115a9600a836112cc565b91506115b482611573565b602082019050919050565b600060208201905081810360008301526115d88161159c565b9050919050565b7f4e487b7100000000000000000000000000000000000000000000000000000000600052601160045260246000fd5b6000611619826111fd565b9150611624836111fd565b9250828202611632816111fd565b91508282048414831517611649576116486115df565b5b5092915050565b7f4e487b7100000000000000000000000000000000000000000000000000000000600052601260045260246000fd5b600061168a826111fd565b9150611695836111fd565b9250826116a5576116a4611650565b5b828204905092915050565b60006116bb826111fd565b91506116c6836111fd565b92508282019050808211156116de576116dd6115df565b5b92915050565b60006116ef826111fd565b91506116fa836111fd565b9250828203905081811115611712576117116115df565b5b92915050565b600060408201905061172d60008301856114bc565b61173a6020830184611207565b9392505050565b60008115159050919050565b61175681611741565b811461176157600080fd5b50565b6000815190506117738161174d565b92915050565b60006020828403121561178f5761178e611231565b5b600061179d84828501611764565b91505092915050565b7f42656c6f77206d696e696d756d00000000000000000000000000000000000000600082015250565b60006117dc600d836112cc565b91506117e7826117a6565b602082019050919050565b6000602082019050818103600083015261180b816117cf565b9050919050565b600060608201905061182760008301866114bc565b61183460208301856114bc565b6118416040830184611207565b949350505050565b7f4d7573742073656e642045544800000000000000000000000000000000000000600082015250565b600061187f600d836112cc565b915061188a82611849565b602082019050919050565b600060208201905081810360008301526118ae81611872565b9050919050565b7f496e76616c696420616d6f756e74730000000000000000000000000000000000600082015250565b60006118eb600f836112cc565b91506118f6826118b5565b602082019050919050565b6000602082019050818103600083015261191a816118de565b905091905056fea26469706673582212201443f5084cf2e4c9b01010fd1f5bd8d3fb137cfda6e40eb90afbddef66ec41f364736f6c63430008140033",
  "linkReferences": {},
  "deployedLinkReferences": {}
}